{
	"data": {
		"bytecode": {
			"linkReferences": {},
			"object": "60806040523480156200001157600080fd5b5060405162001962380380620019628339818101604052810190620000379190620002fd565b336000806101000a81548173ffffffffffffffffffffffffffffffffffffffff021916908373ffffffffffffffffffffffffffffffffffffffff160217905550846001908162000088919062000642565b50836002819055508260039081620000a1919062000642565b508160049081620000b3919062000642565b508060059081620000c5919062000642565b503073ffffffffffffffffffffffffffffffffffffffff167f2928f9dfe7563b359a46f1526ce53bd4fc234ff63bbfb92f76443ec46055d19f60016002546003600460056040516200011c959493929190620007db565b60405180910390a2505050505062000854565b6000604051905090565b600080fd5b600080fd5b600080fd5b600080fd5b6000601f19601f8301169050919050565b7f4e487b7100000000000000000000000000000000000000000000000000000000600052604160045260246000fd5b62000198826200014d565b810181811067ffffffffffffffff82111715620001ba57620001b96200015e565b5b80604052505050565b6000620001cf6200012f565b9050620001dd82826200018d565b919050565b600067ffffffffffffffff8211156200020057620001ff6200015e565b5b6200020b826200014d565b9050602081019050919050565b60005b83811015620002385780820151818401526020810190506200021b565b60008484015250505050565b60006200025b6200025584620001e2565b620001c3565b9050828152602081018484840111156200027a576200027962000148565b5b6200028784828562000218565b509392505050565b600082601f830112620002a757620002a662000143565b5b8151620002b984826020860162000244565b91505092915050565b6000819050919050565b620002d781620002c2565b8114620002e357600080fd5b50565b600081519050620002f781620002cc565b92915050565b600080600080600060a086880312156200031c576200031b62000139565b5b600086015167ffffffffffffffff8111156200033d576200033c6200013e565b5b6200034b888289016200028f565b95505060206200035e88828901620002e6565b945050604086015167ffffffffffffffff8111156200038257620003816200013e565b5b62000390888289016200028f565b935050606086015167ffffffffffffffff811115620003b457620003b36200013e565b5b620003c2888289016200028f565b925050608086015167ffffffffffffffff811115620003e657620003e56200013e565b5b620003f4888289016200028f565b9150509295509295909350565b600081519050919050565b7f4e487b7100000000000000000000000000000000000000000000000000000000600052602260045260246000fd5b600060028204905060018216806200045457607f821691505b6020821081036200046a57620004696200040c565b5b50919050565b60008190508160005260206000209050919050565b60006020601f8301049050919050565b600082821b905092915050565b600060088302620004d47fffffffffffffffffffffffffffffffffffffffffffffffffffffffffffffffff8262000495565b620004e0868362000495565b95508019841693508086168417925050509392505050565b6000819050919050565b6000620005236200051d6200051784620002c2565b620004f8565b620002c2565b9050919050565b6000819050919050565b6200053f8362000502565b620005576200054e826200052a565b848454620004a2565b825550505050565b600090565b6200056e6200055f565b6200057b81848462000534565b505050565b5b81811015620005a3576200059760008262000564565b60018101905062000581565b5050565b601f821115620005f257620005bc8162000470565b620005c78462000485565b81016020851015620005d7578190505b620005ef620005e68562000485565b83018262000580565b50505b505050565b600082821c905092915050565b60006200061760001984600802620005f7565b1980831691505092915050565b600062000632838362000604565b9150826002028217905092915050565b6200064d8262000401565b67ffffffffffffffff8111156200066957620006686200015e565b5b6200067582546200043b565b62000682828285620005a7565b600060209050601f831160018114620006ba5760008415620006a5578287015190505b620006b1858262000624565b86555062000721565b601f198416620006ca8662000470565b60005b82811015620006f457848901518255600182019150602085019450602081019050620006cd565b8683101562000714578489015162000710601f89168262000604565b8355505b6001600288020188555050505b505050505050565b600082825260208201905092915050565b6000815462000749816200043b565b62000755818662000729565b945060018216600081146200077357600181146200078a57620007c1565b60ff198316865281151560200286019350620007c1565b620007958562000470565b60005b83811015620007b95781548189015260018201915060208101905062000798565b808801955050505b50505092915050565b620007d581620002c2565b82525050565b600060a0820190508181036000830152620007f781886200073a565b9050620008086020830187620007ca565b81810360408301526200081c81866200073a565b905081810360608301526200083281856200073a565b905081810360808301526200084881846200073a565b90509695505050505050565b6110fe80620008646000396000f3fe608060405234801561001057600080fd5b50600436106100a95760003560e01c80638ee62344116100715780638ee623441461013e578063a71d58b71461015c578063b268199d1461017a578063b2e1b75e14610198578063bba88a4f146101b6578063ce425dbd146101d2576100a9565b8063203410e5146100ae5780632881842a146100ca57806330ac7cd3146100e65780635113940d146101025780637cdd416d14610120575b600080fd5b6100c860048036038101906100c39190610a92565b6101ee565b005b6100e460048036038101906100df9190610a92565b6102eb565b005b61010060048036038101906100fb9190610a92565b6103e8565b005b61010a6104e5565b6040516101179190610b1c565b60405180910390f35b610128610509565b6040516101359190610bb6565b60405180910390f35b610146610597565b6040516101539190610bb6565b60405180910390f35b610164610625565b6040516101719190610bb6565b60405180910390f35b6101826106b3565b60405161018f9190610bf1565b60405180910390f35b6101a06106b9565b6040516101ad9190610bb6565b60405180910390f35b6101d060048036038101906101cb9190610c38565b610747565b005b6101ec60048036038101906101e79190610a92565b61083b565b005b60008054906101000a900473ffffffffffffffffffffffffffffffffffffffff1673ffffffffffffffffffffffffffffffffffffffff163373ffffffffffffffffffffffffffffffffffffffff161461027c576040517f08c379a000000000000000000000000000000000000000000000000000000000815260040161027390610cd7565b60405180910390fd5b806005908161028b9190610f03565b503073ffffffffffffffffffffffffffffffffffffffff167f2928f9dfe7563b359a46f1526ce53bd4fc234ff63bbfb92f76443ec46055d19f60016002546003600460056040516102e0959493929190611059565b60405180910390a250565b60008054906101000a900473ffffffffffffffffffffffffffffffffffffffff1673ffffffffffffffffffffffffffffffffffffffff163373ffffffffffffffffffffffffffffffffffffffff1614610379576040517f08c379a000000000000000000000000000000000000000000000000000000000815260040161037090610cd7565b60405180910390fd5b80600190816103889190610f03565b503073ffffffffffffffffffffffffffffffffffffffff167f2928f9dfe7563b359a46f1526ce53bd4fc234ff63bbfb92f76443ec46055d19f60016002546003600460056040516103dd959493929190611059565b60405180910390a250565b60008054906101000a900473ffffffffffffffffffffffffffffffffffffffff1673ffffffffffffffffffffffffffffffffffffffff163373ffffffffffffffffffffffffffffffffffffffff1614610476576040517f08c379a000000000000000000000000000000000000000000000000000000000815260040161046d90610cd7565b60405180910390fd5b80600390816104859190610f03565b503073ffffffffffffffffffffffffffffffffffffffff167f2928f9dfe7563b359a46f1526ce53bd4fc234ff63bbfb92f76443ec46055d19f60016002546003600460056040516104da959493929190611059565b60405180910390a250565b60008054906101000a900473ffffffffffffffffffffffffffffffffffffffff1681565b6005805461051690610d26565b80601f016020809104026020016040519081016040528092919081815260200182805461054290610d26565b801561058f5780601f106105645761010080835404028352916020019161058f565b820191906000526020600020905b81548152906001019060200180831161057257829003601f168201915b505050505081565b600180546105a490610d26565b80601f01602080910402602001604051908101604052809291908181526020018280546105d090610d26565b801561061d5780601f106105f25761010080835404028352916020019161061d565b820191906000526020600020905b81548152906001019060200180831161060057829003601f168201915b505050505081565b6004805461063290610d26565b80601f016020809104026020016040519081016040528092919081815260200182805461065e90610d26565b80156106ab5780601f10610680576101008083540402835291602001916106ab565b820191906000526020600020905b81548152906001019060200180831161068e57829003601f168201915b505050505081565b60025481565b600380546106c690610d26565b80601f01602080910402602001604051908101604052809291908181526020018280546106f290610d26565b801561073f5780601f106107145761010080835404028352916020019161073f565b820191906000526020600020905b81548152906001019060200180831161072257829003601f168201915b505050505081565b60008054906101000a900473ffffffffffffffffffffffffffffffffffffffff1673ffffffffffffffffffffffffffffffffffffffff163373ffffffffffffffffffffffffffffffffffffffff16146107d5576040517f08c379a00000000000000000000000000000000000000000000000000000000081526004016107cc90610cd7565b60405180910390fd5b806002819055503073ffffffffffffffffffffffffffffffffffffffff167f2928f9dfe7563b359a46f1526ce53bd4fc234ff63bbfb92f76443ec46055d19f6001600254600360046005604051610830959493929190611059565b60405180910390a250565b60008054906101000a900473ffffffffffffffffffffffffffffffffffffffff1673ffffffffffffffffffffffffffffffffffffffff163373ffffffffffffffffffffffffffffffffffffffff16146108c9576040517f08c379a00000000000000000000000000000000000000000000000000000000081526004016108c090610cd7565b60405180910390fd5b80600490816108d89190610f03565b503073ffffffffffffffffffffffffffffffffffffffff167f2928f9dfe7563b359a46f1526ce53bd4fc234ff63bbfb92f76443ec46055d19f600160025460036004600560405161092d959493929190611059565b60405180910390a250565b6000604051905090565b600080fd5b600080fd5b600080fd5b600080fd5b6000601f19601f8301169050919050565b7f4e487b7100000000000000000000000000000000000000000000000000000000600052604160045260246000fd5b61099f82610956565b810181811067ffffffffffffffff821117156109be576109bd610967565b5b80604052505050565b60006109d1610938565b90506109dd8282610996565b919050565b600067ffffffffffffffff8211156109fd576109fc610967565b5b610a0682610956565b9050602081019050919050565b82818337600083830152505050565b6000610a35610a30846109e2565b6109c7565b905082815260208101848484011115610a5157610a50610951565b5b610a5c848285610a13565b509392505050565b600082601f830112610a7957610a7861094c565b5b8135610a89848260208601610a22565b91505092915050565b600060208284031215610aa857610aa7610942565b5b600082013567ffffffffffffffff811115610ac657610ac5610947565b5b610ad284828501610a64565b91505092915050565b600073ffffffffffffffffffffffffffffffffffffffff82169050919050565b6000610b0682610adb565b9050919050565b610b1681610afb565b82525050565b6000602082019050610b316000830184610b0d565b92915050565b600081519050919050565b600082825260208201905092915050565b60005b83811015610b71578082015181840152602081019050610b56565b60008484015250505050565b6000610b8882610b37565b610b928185610b42565b9350610ba2818560208601610b53565b610bab81610956565b840191505092915050565b60006020820190508181036000830152610bd08184610b7d565b905092915050565b6000819050919050565b610beb81610bd8565b82525050565b6000602082019050610c066000830184610be2565b92915050565b610c1581610bd8565b8114610c2057600080fd5b50565b600081359050610c3281610c0c565b92915050565b600060208284031215610c4e57610c4d610942565b5b6000610c5c84828501610c23565b91505092915050565b7f536f6d656e746520756d2070726f666573736f7220706f646520617475616c6960008201527f7a617220617320696e666f726d61636f657320646f20616c756e6f2100000000602082015250565b6000610cc1603c83610b42565b9150610ccc82610c65565b604082019050919050565b60006020820190508181036000830152610cf081610cb4565b9050919050565b7f4e487b7100000000000000000000000000000000000000000000000000000000600052602260045260246000fd5b60006002820490506001821680610d3e57607f821691505b602082108103610d5157610d50610cf7565b5b50919050565b60008190508160005260206000209050919050565b60006020601f8301049050919050565b600082821b905092915050565b600060088302610db97fffffffffffffffffffffffffffffffffffffffffffffffffffffffffffffffff82610d7c565b610dc38683610d7c565b95508019841693508086168417925050509392505050565b6000819050919050565b6000610e00610dfb610df684610bd8565b610ddb565b610bd8565b9050919050565b6000819050919050565b610e1a83610de5565b610e2e610e2682610e07565b848454610d89565b825550505050565b600090565b610e43610e36565b610e4e818484610e11565b505050565b5b81811015610e7257610e67600082610e3b565b600181019050610e54565b5050565b601f821115610eb757610e8881610d57565b610e9184610d6c565b81016020851015610ea0578190505b610eb4610eac85610d6c565b830182610e53565b50505b505050565b600082821c905092915050565b6000610eda60001984600802610ebc565b1980831691505092915050565b6000610ef38383610ec9565b9150826002028217905092915050565b610f0c82610b37565b67ffffffffffffffff811115610f2557610f24610967565b5b610f2f8254610d26565b610f3a828285610e76565b600060209050601f831160018114610f6d5760008415610f5b578287015190505b610f658582610ee7565b865550610fcd565b601f198416610f7b86610d57565b60005b82811015610fa357848901518255600182019150602085019450602081019050610f7e565b86831015610fc05784890151610fbc601f891682610ec9565b8355505b6001600288020188555050505b505050505050565b60008154610fe281610d26565b610fec8186610b42565b94506001821660008114611007576001811461101d57611050565b60ff198316865281151560200286019350611050565b61102685610d57565b60005b8381101561104857815481890152600182019150602081019050611029565b808801955050505b50505092915050565b600060a08201905081810360008301526110738188610fd5565b90506110826020830187610be2565b81810360408301526110948186610fd5565b905081810360608301526110a88185610fd5565b905081810360808301526110bc8184610fd5565b9050969550505050505056fea26469706673582212208c76ec7c0d7903592959ec7240fb02d7d8670e353370c269f82922afe3f51d0164736f6c63430008120033",
			"opcodes": "PUSH1 0x80 PUSH1 0x40 MSTORE CALLVALUE DUP1 ISZERO PUSH3 0x11 JUMPI PUSH1 0x0 DUP1 REVERT JUMPDEST POP PUSH1 0x40 MLOAD PUSH3 0x1962 CODESIZE SUB DUP1 PUSH3 0x1962 DUP4 CODECOPY DUP2 DUP2 ADD PUSH1 0x40 MSTORE DUP2 ADD SWAP1 PUSH3 0x37 SWAP2 SWAP1 PUSH3 0x2FD JUMP JUMPDEST CALLER PUSH1 0x0 DUP1 PUSH2 0x100 EXP DUP2 SLOAD DUP2 PUSH20 0xFFFFFFFFFFFFFFFFFFFFFFFFFFFFFFFFFFFFFFFF MUL NOT AND SWAP1 DUP4 PUSH20 0xFFFFFFFFFFFFFFFFFFFFFFFFFFFFFFFFFFFFFFFF AND MUL OR SWAP1 SSTORE POP DUP5 PUSH1 0x1 SWAP1 DUP2 PUSH3 0x88 SWAP2 SWAP1 PUSH3 0x642 JUMP JUMPDEST POP DUP4 PUSH1 0x2 DUP2 SWAP1 SSTORE POP DUP3 PUSH1 0x3 SWAP1 DUP2 PUSH3 0xA1 SWAP2 SWAP1 PUSH3 0x642 JUMP JUMPDEST POP DUP2 PUSH1 0x4 SWAP1 DUP2 PUSH3 0xB3 SWAP2 SWAP1 PUSH3 0x642 JUMP JUMPDEST POP DUP1 PUSH1 0x5 SWAP1 DUP2 PUSH3 0xC5 SWAP2 SWAP1 PUSH3 0x642 JUMP JUMPDEST POP ADDRESS PUSH20 0xFFFFFFFFFFFFFFFFFFFFFFFFFFFFFFFFFFFFFFFF AND PUSH32 0x2928F9DFE7563B359A46F1526CE53BD4FC234FF63BBFB92F76443EC46055D19F PUSH1 0x1 PUSH1 0x2 SLOAD PUSH1 0x3 PUSH1 0x4 PUSH1 0x5 PUSH1 0x40 MLOAD PUSH3 0x11C SWAP6 SWAP5 SWAP4 SWAP3 SWAP2 SWAP1 PUSH3 0x7DB JUMP JUMPDEST PUSH1 0x40 MLOAD DUP1 SWAP2 SUB SWAP1 LOG2 POP POP POP POP POP PUSH3 0x854 JUMP JUMPDEST PUSH1 0x0 PUSH1 0x40 MLOAD SWAP1 POP SWAP1 JUMP JUMPDEST PUSH1 0x0 DUP1 REVERT JUMPDEST PUSH1 0x0 DUP1 REVERT JUMPDEST PUSH1 0x0 DUP1 REVERT JUMPDEST PUSH1 0x0 DUP1 REVERT JUMPDEST PUSH1 0x0 PUSH1 0x1F NOT PUSH1 0x1F DUP4 ADD AND SWAP1 POP SWAP2 SWAP1 POP JUMP JUMPDEST PUSH32 0x4E487B7100000000000000000000000000000000000000000000000000000000 PUSH1 0x0 MSTORE PUSH1 0x41 PUSH1 0x4 MSTORE PUSH1 0x24 PUSH1 0x0 REVERT JUMPDEST PUSH3 0x198 DUP3 PUSH3 0x14D JUMP JUMPDEST DUP2 ADD DUP2 DUP2 LT PUSH8 0xFFFFFFFFFFFFFFFF DUP3 GT OR ISZERO PUSH3 0x1BA JUMPI PUSH3 0x1B9 PUSH3 0x15E JUMP JUMPDEST JUMPDEST DUP1 PUSH1 0x40 MSTORE POP POP POP JUMP JUMPDEST PUSH1 0x0 PUSH3 0x1CF PUSH3 0x12F JUMP JUMPDEST SWAP1 POP PUSH3 0x1DD DUP3 DUP3 PUSH3 0x18D JUMP JUMPDEST SWAP2 SWAP1 POP JUMP JUMPDEST PUSH1 0x0 PUSH8 0xFFFFFFFFFFFFFFFF DUP3 GT ISZERO PUSH3 0x200 JUMPI PUSH3 0x1FF PUSH3 0x15E JUMP JUMPDEST JUMPDEST PUSH3 0x20B DUP3 PUSH3 0x14D JUMP JUMPDEST SWAP1 POP PUSH1 0x20 DUP2 ADD SWAP1 POP SWAP2 SWAP1 POP JUMP JUMPDEST PUSH1 0x0 JUMPDEST DUP4 DUP2 LT ISZERO PUSH3 0x238 JUMPI DUP1 DUP3 ADD MLOAD DUP2 DUP5 ADD MSTORE PUSH1 0x20 DUP2 ADD SWAP1 POP PUSH3 0x21B JUMP JUMPDEST PUSH1 0x0 DUP5 DUP5 ADD MSTORE POP POP POP POP JUMP JUMPDEST PUSH1 0x0 PUSH3 0x25B PUSH3 0x255 DUP5 PUSH3 0x1E2 JUMP JUMPDEST PUSH3 0x1C3 JUMP JUMPDEST SWAP1 POP DUP3 DUP2 MSTORE PUSH1 0x20 DUP2 ADD DUP5 DUP5 DUP5 ADD GT ISZERO PUSH3 0x27A JUMPI PUSH3 0x279 PUSH3 0x148 JUMP JUMPDEST JUMPDEST PUSH3 0x287 DUP5 DUP3 DUP6 PUSH3 0x218 JUMP JUMPDEST POP SWAP4 SWAP3 POP POP POP JUMP JUMPDEST PUSH1 0x0 DUP3 PUSH1 0x1F DUP4 ADD SLT PUSH3 0x2A7 JUMPI PUSH3 0x2A6 PUSH3 0x143 JUMP JUMPDEST JUMPDEST DUP2 MLOAD PUSH3 0x2B9 DUP5 DUP3 PUSH1 0x20 DUP7 ADD PUSH3 0x244 JUMP JUMPDEST SWAP2 POP POP SWAP3 SWAP2 POP POP JUMP JUMPDEST PUSH1 0x0 DUP2 SWAP1 POP SWAP2 SWAP1 POP JUMP JUMPDEST PUSH3 0x2D7 DUP2 PUSH3 0x2C2 JUMP JUMPDEST DUP2 EQ PUSH3 0x2E3 JUMPI PUSH1 0x0 DUP1 REVERT JUMPDEST POP JUMP JUMPDEST PUSH1 0x0 DUP2 MLOAD SWAP1 POP PUSH3 0x2F7 DUP2 PUSH3 0x2CC JUMP JUMPDEST SWAP3 SWAP2 POP POP JUMP JUMPDEST PUSH1 0x0 DUP1 PUSH1 0x0 DUP1 PUSH1 0x0 PUSH1 0xA0 DUP7 DUP9 SUB SLT ISZERO PUSH3 0x31C JUMPI PUSH3 0x31B PUSH3 0x139 JUMP JUMPDEST JUMPDEST PUSH1 0x0 DUP7 ADD MLOAD PUSH8 0xFFFFFFFFFFFFFFFF DUP2 GT ISZERO PUSH3 0x33D JUMPI PUSH3 0x33C PUSH3 0x13E JUMP JUMPDEST JUMPDEST PUSH3 0x34B DUP9 DUP3 DUP10 ADD PUSH3 0x28F JUMP JUMPDEST SWAP6 POP POP PUSH1 0x20 PUSH3 0x35E DUP9 DUP3 DUP10 ADD PUSH3 0x2E6 JUMP JUMPDEST SWAP5 POP POP PUSH1 0x40 DUP7 ADD MLOAD PUSH8 0xFFFFFFFFFFFFFFFF DUP2 GT ISZERO PUSH3 0x382 JUMPI PUSH3 0x381 PUSH3 0x13E JUMP JUMPDEST JUMPDEST PUSH3 0x390 DUP9 DUP3 DUP10 ADD PUSH3 0x28F JUMP JUMPDEST SWAP4 POP POP PUSH1 0x60 DUP7 ADD MLOAD PUSH8 0xFFFFFFFFFFFFFFFF DUP2 GT ISZERO PUSH3 0x3B4 JUMPI PUSH3 0x3B3 PUSH3 0x13E JUMP JUMPDEST JUMPDEST PUSH3 0x3C2 DUP9 DUP3 DUP10 ADD PUSH3 0x28F JUMP JUMPDEST SWAP3 POP POP PUSH1 0x80 DUP7 ADD MLOAD PUSH8 0xFFFFFFFFFFFFFFFF DUP2 GT ISZERO PUSH3 0x3E6 JUMPI PUSH3 0x3E5 PUSH3 0x13E JUMP JUMPDEST JUMPDEST PUSH3 0x3F4 DUP9 DUP3 DUP10 ADD PUSH3 0x28F JUMP JUMPDEST SWAP2 POP POP SWAP3 SWAP6 POP SWAP3 SWAP6 SWAP1 SWAP4 POP JUMP JUMPDEST PUSH1 0x0 DUP2 MLOAD SWAP1 POP SWAP2 SWAP1 POP JUMP JUMPDEST PUSH32 0x4E487B7100000000000000000000000000000000000000000000000000000000 PUSH1 0x0 MSTORE PUSH1 0x22 PUSH1 0x4 MSTORE PUSH1 0x24 PUSH1 0x0 REVERT JUMPDEST PUSH1 0x0 PUSH1 0x2 DUP3 DIV SWAP1 POP PUSH1 0x1 DUP3 AND DUP1 PUSH3 0x454 JUMPI PUSH1 0x7F DUP3 AND SWAP2 POP JUMPDEST PUSH1 0x20 DUP3 LT DUP2 SUB PUSH3 0x46A JUMPI PUSH3 0x469 PUSH3 0x40C JUMP JUMPDEST JUMPDEST POP SWAP2 SWAP1 POP JUMP JUMPDEST PUSH1 0x0 DUP2 SWAP1 POP DUP2 PUSH1 0x0 MSTORE PUSH1 0x20 PUSH1 0x0 KECCAK256 SWAP1 POP SWAP2 SWAP1 POP JUMP JUMPDEST PUSH1 0x0 PUSH1 0x20 PUSH1 0x1F DUP4 ADD DIV SWAP1 POP SWAP2 SWAP1 POP JUMP JUMPDEST PUSH1 0x0 DUP3 DUP3 SHL SWAP1 POP SWAP3 SWAP2 POP POP JUMP JUMPDEST PUSH1 0x0 PUSH1 0x8 DUP4 MUL PUSH3 0x4D4 PUSH32 0xFFFFFFFFFFFFFFFFFFFFFFFFFFFFFFFFFFFFFFFFFFFFFFFFFFFFFFFFFFFFFFFF DUP3 PUSH3 0x495 JUMP JUMPDEST PUSH3 0x4E0 DUP7 DUP4 PUSH3 0x495 JUMP JUMPDEST SWAP6 POP DUP1 NOT DUP5 AND SWAP4 POP DUP1 DUP7 AND DUP5 OR SWAP3 POP POP POP SWAP4 SWAP3 POP POP POP JUMP JUMPDEST PUSH1 0x0 DUP2 SWAP1 POP SWAP2 SWAP1 POP JUMP JUMPDEST PUSH1 0x0 PUSH3 0x523 PUSH3 0x51D PUSH3 0x517 DUP5 PUSH3 0x2C2 JUMP JUMPDEST PUSH3 0x4F8 JUMP JUMPDEST PUSH3 0x2C2 JUMP JUMPDEST SWAP1 POP SWAP2 SWAP1 POP JUMP JUMPDEST PUSH1 0x0 DUP2 SWAP1 POP SWAP2 SWAP1 POP JUMP JUMPDEST PUSH3 0x53F DUP4 PUSH3 0x502 JUMP JUMPDEST PUSH3 0x557 PUSH3 0x54E DUP3 PUSH3 0x52A JUMP JUMPDEST DUP5 DUP5 SLOAD PUSH3 0x4A2 JUMP JUMPDEST DUP3 SSTORE POP POP POP POP JUMP JUMPDEST PUSH1 0x0 SWAP1 JUMP JUMPDEST PUSH3 0x56E PUSH3 0x55F JUMP JUMPDEST PUSH3 0x57B DUP2 DUP5 DUP5 PUSH3 0x534 JUMP JUMPDEST POP POP POP JUMP JUMPDEST JUMPDEST DUP2 DUP2 LT ISZERO PUSH3 0x5A3 JUMPI PUSH3 0x597 PUSH1 0x0 DUP3 PUSH3 0x564 JUMP JUMPDEST PUSH1 0x1 DUP2 ADD SWAP1 POP PUSH3 0x581 JUMP JUMPDEST POP POP JUMP JUMPDEST PUSH1 0x1F DUP3 GT ISZERO PUSH3 0x5F2 JUMPI PUSH3 0x5BC DUP2 PUSH3 0x470 JUMP JUMPDEST PUSH3 0x5C7 DUP5 PUSH3 0x485 JUMP JUMPDEST DUP2 ADD PUSH1 0x20 DUP6 LT ISZERO PUSH3 0x5D7 JUMPI DUP2 SWAP1 POP JUMPDEST PUSH3 0x5EF PUSH3 0x5E6 DUP6 PUSH3 0x485 JUMP JUMPDEST DUP4 ADD DUP3 PUSH3 0x580 JUMP JUMPDEST POP POP JUMPDEST POP POP POP JUMP JUMPDEST PUSH1 0x0 DUP3 DUP3 SHR SWAP1 POP SWAP3 SWAP2 POP POP JUMP JUMPDEST PUSH1 0x0 PUSH3 0x617 PUSH1 0x0 NOT DUP5 PUSH1 0x8 MUL PUSH3 0x5F7 JUMP JUMPDEST NOT DUP1 DUP4 AND SWAP2 POP POP SWAP3 SWAP2 POP POP JUMP JUMPDEST PUSH1 0x0 PUSH3 0x632 DUP4 DUP4 PUSH3 0x604 JUMP JUMPDEST SWAP2 POP DUP3 PUSH1 0x2 MUL DUP3 OR SWAP1 POP SWAP3 SWAP2 POP POP JUMP JUMPDEST PUSH3 0x64D DUP3 PUSH3 0x401 JUMP JUMPDEST PUSH8 0xFFFFFFFFFFFFFFFF DUP2 GT ISZERO PUSH3 0x669 JUMPI PUSH3 0x668 PUSH3 0x15E JUMP JUMPDEST JUMPDEST PUSH3 0x675 DUP3 SLOAD PUSH3 0x43B JUMP JUMPDEST PUSH3 0x682 DUP3 DUP3 DUP6 PUSH3 0x5A7 JUMP JUMPDEST PUSH1 0x0 PUSH1 0x20 SWAP1 POP PUSH1 0x1F DUP4 GT PUSH1 0x1 DUP2 EQ PUSH3 0x6BA JUMPI PUSH1 0x0 DUP5 ISZERO PUSH3 0x6A5 JUMPI DUP3 DUP8 ADD MLOAD SWAP1 POP JUMPDEST PUSH3 0x6B1 DUP6 DUP3 PUSH3 0x624 JUMP JUMPDEST DUP7 SSTORE POP PUSH3 0x721 JUMP JUMPDEST PUSH1 0x1F NOT DUP5 AND PUSH3 0x6CA DUP7 PUSH3 0x470 JUMP JUMPDEST PUSH1 0x0 JUMPDEST DUP3 DUP2 LT ISZERO PUSH3 0x6F4 JUMPI DUP5 DUP10 ADD MLOAD DUP3 SSTORE PUSH1 0x1 DUP3 ADD SWAP2 POP PUSH1 0x20 DUP6 ADD SWAP5 POP PUSH1 0x20 DUP2 ADD SWAP1 POP PUSH3 0x6CD JUMP JUMPDEST DUP7 DUP4 LT ISZERO PUSH3 0x714 JUMPI DUP5 DUP10 ADD MLOAD PUSH3 0x710 PUSH1 0x1F DUP10 AND DUP3 PUSH3 0x604 JUMP JUMPDEST DUP4 SSTORE POP JUMPDEST PUSH1 0x1 PUSH1 0x2 DUP9 MUL ADD DUP9 SSTORE POP POP POP JUMPDEST POP POP POP POP POP POP JUMP JUMPDEST PUSH1 0x0 DUP3 DUP3 MSTORE PUSH1 0x20 DUP3 ADD SWAP1 POP SWAP3 SWAP2 POP POP JUMP JUMPDEST PUSH1 0x0 DUP2 SLOAD PUSH3 0x749 DUP2 PUSH3 0x43B JUMP JUMPDEST PUSH3 0x755 DUP2 DUP7 PUSH3 0x729 JUMP JUMPDEST SWAP5 POP PUSH1 0x1 DUP3 AND PUSH1 0x0 DUP2 EQ PUSH3 0x773 JUMPI PUSH1 0x1 DUP2 EQ PUSH3 0x78A JUMPI PUSH3 0x7C1 JUMP JUMPDEST PUSH1 0xFF NOT DUP4 AND DUP7 MSTORE DUP2 ISZERO ISZERO PUSH1 0x20 MUL DUP7 ADD SWAP4 POP PUSH3 0x7C1 JUMP JUMPDEST PUSH3 0x795 DUP6 PUSH3 0x470 JUMP JUMPDEST PUSH1 0x0 JUMPDEST DUP4 DUP2 LT ISZERO PUSH3 0x7B9 JUMPI DUP2 SLOAD DUP2 DUP10 ADD MSTORE PUSH1 0x1 DUP3 ADD SWAP2 POP PUSH1 0x20 DUP2 ADD SWAP1 POP PUSH3 0x798 JUMP JUMPDEST DUP1 DUP9 ADD SWAP6 POP POP POP JUMPDEST POP POP POP SWAP3 SWAP2 POP POP JUMP JUMPDEST PUSH3 0x7D5 DUP2 PUSH3 0x2C2 JUMP JUMPDEST DUP3 MSTORE POP POP JUMP JUMPDEST PUSH1 0x0 PUSH1 0xA0 DUP3 ADD SWAP1 POP DUP2 DUP2 SUB PUSH1 0x0 DUP4 ADD MSTORE PUSH3 0x7F7 DUP2 DUP9 PUSH3 0x73A JUMP JUMPDEST SWAP1 POP PUSH3 0x808 PUSH1 0x20 DUP4 ADD DUP8 PUSH3 0x7CA JUMP JUMPDEST DUP2 DUP2 SUB PUSH1 0x40 DUP4 ADD MSTORE PUSH3 0x81C DUP2 DUP7 PUSH3 0x73A JUMP JUMPDEST SWAP1 POP DUP2 DUP2 SUB PUSH1 0x60 DUP4 ADD MSTORE PUSH3 0x832 DUP2 DUP6 PUSH3 0x73A JUMP JUMPDEST SWAP1 POP DUP2 DUP2 SUB PUSH1 0x80 DUP4 ADD MSTORE PUSH3 0x848 DUP2 DUP5 PUSH3 0x73A JUMP JUMPDEST SWAP1 POP SWAP7 SWAP6 POP POP POP POP POP POP JUMP JUMPDEST PUSH2 0x10FE DUP1 PUSH3 0x864 PUSH1 0x0 CODECOPY PUSH1 0x0 RETURN INVALID PUSH1 0x80 PUSH1 0x40 MSTORE CALLVALUE DUP1 ISZERO PUSH2 0x10 JUMPI PUSH1 0x0 DUP1 REVERT JUMPDEST POP PUSH1 0x4 CALLDATASIZE LT PUSH2 0xA9 JUMPI PUSH1 0x0 CALLDATALOAD PUSH1 0xE0 SHR DUP1 PUSH4 0x8EE62344 GT PUSH2 0x71 JUMPI DUP1 PUSH4 0x8EE62344 EQ PUSH2 0x13E JUMPI DUP1 PUSH4 0xA71D58B7 EQ PUSH2 0x15C JUMPI DUP1 PUSH4 0xB268199D EQ PUSH2 0x17A JUMPI DUP1 PUSH4 0xB2E1B75E EQ PUSH2 0x198 JUMPI DUP1 PUSH4 0xBBA88A4F EQ PUSH2 0x1B6 JUMPI DUP1 PUSH4 0xCE425DBD EQ PUSH2 0x1D2 JUMPI PUSH2 0xA9 JUMP JUMPDEST DUP1 PUSH4 0x203410E5 EQ PUSH2 0xAE JUMPI DUP1 PUSH4 0x2881842A EQ PUSH2 0xCA JUMPI DUP1 PUSH4 0x30AC7CD3 EQ PUSH2 0xE6 JUMPI DUP1 PUSH4 0x5113940D EQ PUSH2 0x102 JUMPI DUP1 PUSH4 0x7CDD416D EQ PUSH2 0x120 JUMPI JUMPDEST PUSH1 0x0 DUP1 REVERT JUMPDEST PUSH2 0xC8 PUSH1 0x4 DUP1 CALLDATASIZE SUB DUP2 ADD SWAP1 PUSH2 0xC3 SWAP2 SWAP1 PUSH2 0xA92 JUMP JUMPDEST PUSH2 0x1EE JUMP JUMPDEST STOP JUMPDEST PUSH2 0xE4 PUSH1 0x4 DUP1 CALLDATASIZE SUB DUP2 ADD SWAP1 PUSH2 0xDF SWAP2 SWAP1 PUSH2 0xA92 JUMP JUMPDEST PUSH2 0x2EB JUMP JUMPDEST STOP JUMPDEST PUSH2 0x100 PUSH1 0x4 DUP1 CALLDATASIZE SUB DUP2 ADD SWAP1 PUSH2 0xFB SWAP2 SWAP1 PUSH2 0xA92 JUMP JUMPDEST PUSH2 0x3E8 JUMP JUMPDEST STOP JUMPDEST PUSH2 0x10A PUSH2 0x4E5 JUMP JUMPDEST PUSH1 0x40 MLOAD PUSH2 0x117 SWAP2 SWAP1 PUSH2 0xB1C JUMP JUMPDEST PUSH1 0x40 MLOAD DUP1 SWAP2 SUB SWAP1 RETURN JUMPDEST PUSH2 0x128 PUSH2 0x509 JUMP JUMPDEST PUSH1 0x40 MLOAD PUSH2 0x135 SWAP2 SWAP1 PUSH2 0xBB6 JUMP JUMPDEST PUSH1 0x40 MLOAD DUP1 SWAP2 SUB SWAP1 RETURN JUMPDEST PUSH2 0x146 PUSH2 0x597 JUMP JUMPDEST PUSH1 0x40 MLOAD PUSH2 0x153 SWAP2 SWAP1 PUSH2 0xBB6 JUMP JUMPDEST PUSH1 0x40 MLOAD DUP1 SWAP2 SUB SWAP1 RETURN JUMPDEST PUSH2 0x164 PUSH2 0x625 JUMP JUMPDEST PUSH1 0x40 MLOAD PUSH2 0x171 SWAP2 SWAP1 PUSH2 0xBB6 JUMP JUMPDEST PUSH1 0x40 MLOAD DUP1 SWAP2 SUB SWAP1 RETURN JUMPDEST PUSH2 0x182 PUSH2 0x6B3 JUMP JUMPDEST PUSH1 0x40 MLOAD PUSH2 0x18F SWAP2 SWAP1 PUSH2 0xBF1 JUMP JUMPDEST PUSH1 0x40 MLOAD DUP1 SWAP2 SUB SWAP1 RETURN JUMPDEST PUSH2 0x1A0 PUSH2 0x6B9 JUMP JUMPDEST PUSH1 0x40 MLOAD PUSH2 0x1AD SWAP2 SWAP1 PUSH2 0xBB6 JUMP JUMPDEST PUSH1 0x40 MLOAD DUP1 SWAP2 SUB SWAP1 RETURN JUMPDEST PUSH2 0x1D0 PUSH1 0x4 DUP1 CALLDATASIZE SUB DUP2 ADD SWAP1 PUSH2 0x1CB SWAP2 SWAP1 PUSH2 0xC38 JUMP JUMPDEST PUSH2 0x747 JUMP JUMPDEST STOP JUMPDEST PUSH2 0x1EC PUSH1 0x4 DUP1 CALLDATASIZE SUB DUP2 ADD SWAP1 PUSH2 0x1E7 SWAP2 SWAP1 PUSH2 0xA92 JUMP JUMPDEST PUSH2 0x83B JUMP JUMPDEST STOP JUMPDEST PUSH1 0x0 DUP1 SLOAD SWAP1 PUSH2 0x100 EXP SWAP1 DIV PUSH20 0xFFFFFFFFFFFFFFFFFFFFFFFFFFFFFFFFFFFFFFFF AND PUSH20 0xFFFFFFFFFFFFFFFFFFFFFFFFFFFFFFFFFFFFFFFF AND CALLER PUSH20 0xFFFFFFFFFFFFFFFFFFFFFFFFFFFFFFFFFFFFFFFF AND EQ PUSH2 0x27C JUMPI PUSH1 0x40 MLOAD PUSH32 0x8C379A000000000000000000000000000000000000000000000000000000000 DUP2 MSTORE PUSH1 0x4 ADD PUSH2 0x273 SWAP1 PUSH2 0xCD7 JUMP JUMPDEST PUSH1 0x40 MLOAD DUP1 SWAP2 SUB SWAP1 REVERT JUMPDEST DUP1 PUSH1 0x5 SWAP1 DUP2 PUSH2 0x28B SWAP2 SWAP1 PUSH2 0xF03 JUMP JUMPDEST POP ADDRESS PUSH20 0xFFFFFFFFFFFFFFFFFFFFFFFFFFFFFFFFFFFFFFFF AND PUSH32 0x2928F9DFE7563B359A46F1526CE53BD4FC234FF63BBFB92F76443EC46055D19F PUSH1 0x1 PUSH1 0x2 SLOAD PUSH1 0x3 PUSH1 0x4 PUSH1 0x5 PUSH1 0x40 MLOAD PUSH2 0x2E0 SWAP6 SWAP5 SWAP4 SWAP3 SWAP2 SWAP1 PUSH2 0x1059 JUMP JUMPDEST PUSH1 0x40 MLOAD DUP1 SWAP2 SUB SWAP1 LOG2 POP JUMP JUMPDEST PUSH1 0x0 DUP1 SLOAD SWAP1 PUSH2 0x100 EXP SWAP1 DIV PUSH20 0xFFFFFFFFFFFFFFFFFFFFFFFFFFFFFFFFFFFFFFFF AND PUSH20 0xFFFFFFFFFFFFFFFFFFFFFFFFFFFFFFFFFFFFFFFF AND CALLER PUSH20 0xFFFFFFFFFFFFFFFFFFFFFFFFFFFFFFFFFFFFFFFF AND EQ PUSH2 0x379 JUMPI PUSH1 0x40 MLOAD PUSH32 0x8C379A000000000000000000000000000000000000000000000000000000000 DUP2 MSTORE PUSH1 0x4 ADD PUSH2 0x370 SWAP1 PUSH2 0xCD7 JUMP JUMPDEST PUSH1 0x40 MLOAD DUP1 SWAP2 SUB SWAP1 REVERT JUMPDEST DUP1 PUSH1 0x1 SWAP1 DUP2 PUSH2 0x388 SWAP2 SWAP1 PUSH2 0xF03 JUMP JUMPDEST POP ADDRESS PUSH20 0xFFFFFFFFFFFFFFFFFFFFFFFFFFFFFFFFFFFFFFFF AND PUSH32 0x2928F9DFE7563B359A46F1526CE53BD4FC234FF63BBFB92F76443EC46055D19F PUSH1 0x1 PUSH1 0x2 SLOAD PUSH1 0x3 PUSH1 0x4 PUSH1 0x5 PUSH1 0x40 MLOAD PUSH2 0x3DD SWAP6 SWAP5 SWAP4 SWAP3 SWAP2 SWAP1 PUSH2 0x1059 JUMP JUMPDEST PUSH1 0x40 MLOAD DUP1 SWAP2 SUB SWAP1 LOG2 POP JUMP JUMPDEST PUSH1 0x0 DUP1 SLOAD SWAP1 PUSH2 0x100 EXP SWAP1 DIV PUSH20 0xFFFFFFFFFFFFFFFFFFFFFFFFFFFFFFFFFFFFFFFF AND PUSH20 0xFFFFFFFFFFFFFFFFFFFFFFFFFFFFFFFFFFFFFFFF AND CALLER PUSH20 0xFFFFFFFFFFFFFFFFFFFFFFFFFFFFFFFFFFFFFFFF AND EQ PUSH2 0x476 JUMPI PUSH1 0x40 MLOAD PUSH32 0x8C379A000000000000000000000000000000000000000000000000000000000 DUP2 MSTORE PUSH1 0x4 ADD PUSH2 0x46D SWAP1 PUSH2 0xCD7 JUMP JUMPDEST PUSH1 0x40 MLOAD DUP1 SWAP2 SUB SWAP1 REVERT JUMPDEST DUP1 PUSH1 0x3 SWAP1 DUP2 PUSH2 0x485 SWAP2 SWAP1 PUSH2 0xF03 JUMP JUMPDEST POP ADDRESS PUSH20 0xFFFFFFFFFFFFFFFFFFFFFFFFFFFFFFFFFFFFFFFF AND PUSH32 0x2928F9DFE7563B359A46F1526CE53BD4FC234FF63BBFB92F76443EC46055D19F PUSH1 0x1 PUSH1 0x2 SLOAD PUSH1 0x3 PUSH1 0x4 PUSH1 0x5 PUSH1 0x40 MLOAD PUSH2 0x4DA SWAP6 SWAP5 SWAP4 SWAP3 SWAP2 SWAP1 PUSH2 0x1059 JUMP JUMPDEST PUSH1 0x40 MLOAD DUP1 SWAP2 SUB SWAP1 LOG2 POP JUMP JUMPDEST PUSH1 0x0 DUP1 SLOAD SWAP1 PUSH2 0x100 EXP SWAP1 DIV PUSH20 0xFFFFFFFFFFFFFFFFFFFFFFFFFFFFFFFFFFFFFFFF AND DUP2 JUMP JUMPDEST PUSH1 0x5 DUP1 SLOAD PUSH2 0x516 SWAP1 PUSH2 0xD26 JUMP JUMPDEST DUP1 PUSH1 0x1F ADD PUSH1 0x20 DUP1 SWAP2 DIV MUL PUSH1 0x20 ADD PUSH1 0x40 MLOAD SWAP1 DUP2 ADD PUSH1 0x40 MSTORE DUP1 SWAP3 SWAP2 SWAP1 DUP2 DUP2 MSTORE PUSH1 0x20 ADD DUP3 DUP1 SLOAD PUSH2 0x542 SWAP1 PUSH2 0xD26 JUMP JUMPDEST DUP1 ISZERO PUSH2 0x58F JUMPI DUP1 PUSH1 0x1F LT PUSH2 0x564 JUMPI PUSH2 0x100 DUP1 DUP4 SLOAD DIV MUL DUP4 MSTORE SWAP2 PUSH1 0x20 ADD SWAP2 PUSH2 0x58F JUMP JUMPDEST DUP3 ADD SWAP2 SWAP1 PUSH1 0x0 MSTORE PUSH1 0x20 PUSH1 0x0 KECCAK256 SWAP1 JUMPDEST DUP2 SLOAD DUP2 MSTORE SWAP1 PUSH1 0x1 ADD SWAP1 PUSH1 0x20 ADD DUP1 DUP4 GT PUSH2 0x572 JUMPI DUP3 SWAP1 SUB PUSH1 0x1F AND DUP3 ADD SWAP2 JUMPDEST POP POP POP POP POP DUP2 JUMP JUMPDEST PUSH1 0x1 DUP1 SLOAD PUSH2 0x5A4 SWAP1 PUSH2 0xD26 JUMP JUMPDEST DUP1 PUSH1 0x1F ADD PUSH1 0x20 DUP1 SWAP2 DIV MUL PUSH1 0x20 ADD PUSH1 0x40 MLOAD SWAP1 DUP2 ADD PUSH1 0x40 MSTORE DUP1 SWAP3 SWAP2 SWAP1 DUP2 DUP2 MSTORE PUSH1 0x20 ADD DUP3 DUP1 SLOAD PUSH2 0x5D0 SWAP1 PUSH2 0xD26 JUMP JUMPDEST DUP1 ISZERO PUSH2 0x61D JUMPI DUP1 PUSH1 0x1F LT PUSH2 0x5F2 JUMPI PUSH2 0x100 DUP1 DUP4 SLOAD DIV MUL DUP4 MSTORE SWAP2 PUSH1 0x20 ADD SWAP2 PUSH2 0x61D JUMP JUMPDEST DUP3 ADD SWAP2 SWAP1 PUSH1 0x0 MSTORE PUSH1 0x20 PUSH1 0x0 KECCAK256 SWAP1 JUMPDEST DUP2 SLOAD DUP2 MSTORE SWAP1 PUSH1 0x1 ADD SWAP1 PUSH1 0x20 ADD DUP1 DUP4 GT PUSH2 0x600 JUMPI DUP3 SWAP1 SUB PUSH1 0x1F AND DUP3 ADD SWAP2 JUMPDEST POP POP POP POP POP DUP2 JUMP JUMPDEST PUSH1 0x4 DUP1 SLOAD PUSH2 0x632 SWAP1 PUSH2 0xD26 JUMP JUMPDEST DUP1 PUSH1 0x1F ADD PUSH1 0x20 DUP1 SWAP2 DIV MUL PUSH1 0x20 ADD PUSH1 0x40 MLOAD SWAP1 DUP2 ADD PUSH1 0x40 MSTORE DUP1 SWAP3 SWAP2 SWAP1 DUP2 DUP2 MSTORE PUSH1 0x20 ADD DUP3 DUP1 SLOAD PUSH2 0x65E SWAP1 PUSH2 0xD26 JUMP JUMPDEST DUP1 ISZERO PUSH2 0x6AB JUMPI DUP1 PUSH1 0x1F LT PUSH2 0x680 JUMPI PUSH2 0x100 DUP1 DUP4 SLOAD DIV MUL DUP4 MSTORE SWAP2 PUSH1 0x20 ADD SWAP2 PUSH2 0x6AB JUMP JUMPDEST DUP3 ADD SWAP2 SWAP1 PUSH1 0x0 MSTORE PUSH1 0x20 PUSH1 0x0 KECCAK256 SWAP1 JUMPDEST DUP2 SLOAD DUP2 MSTORE SWAP1 PUSH1 0x1 ADD SWAP1 PUSH1 0x20 ADD DUP1 DUP4 GT PUSH2 0x68E JUMPI DUP3 SWAP1 SUB PUSH1 0x1F AND DUP3 ADD SWAP2 JUMPDEST POP POP POP POP POP DUP2 JUMP JUMPDEST PUSH1 0x2 SLOAD DUP2 JUMP JUMPDEST PUSH1 0x3 DUP1 SLOAD PUSH2 0x6C6 SWAP1 PUSH2 0xD26 JUMP JUMPDEST DUP1 PUSH1 0x1F ADD PUSH1 0x20 DUP1 SWAP2 DIV MUL PUSH1 0x20 ADD PUSH1 0x40 MLOAD SWAP1 DUP2 ADD PUSH1 0x40 MSTORE DUP1 SWAP3 SWAP2 SWAP1 DUP2 DUP2 MSTORE PUSH1 0x20 ADD DUP3 DUP1 SLOAD PUSH2 0x6F2 SWAP1 PUSH2 0xD26 JUMP JUMPDEST DUP1 ISZERO PUSH2 0x73F JUMPI DUP1 PUSH1 0x1F LT PUSH2 0x714 JUMPI PUSH2 0x100 DUP1 DUP4 SLOAD DIV MUL DUP4 MSTORE SWAP2 PUSH1 0x20 ADD SWAP2 PUSH2 0x73F JUMP JUMPDEST DUP3 ADD SWAP2 SWAP1 PUSH1 0x0 MSTORE PUSH1 0x20 PUSH1 0x0 KECCAK256 SWAP1 JUMPDEST DUP2 SLOAD DUP2 MSTORE SWAP1 PUSH1 0x1 ADD SWAP1 PUSH1 0x20 ADD DUP1 DUP4 GT PUSH2 0x722 JUMPI DUP3 SWAP1 SUB PUSH1 0x1F AND DUP3 ADD SWAP2 JUMPDEST POP POP POP POP POP DUP2 JUMP JUMPDEST PUSH1 0x0 DUP1 SLOAD SWAP1 PUSH2 0x100 EXP SWAP1 DIV PUSH20 0xFFFFFFFFFFFFFFFFFFFFFFFFFFFFFFFFFFFFFFFF AND PUSH20 0xFFFFFFFFFFFFFFFFFFFFFFFFFFFFFFFFFFFFFFFF AND CALLER PUSH20 0xFFFFFFFFFFFFFFFFFFFFFFFFFFFFFFFFFFFFFFFF AND EQ PUSH2 0x7D5 JUMPI PUSH1 0x40 MLOAD PUSH32 0x8C379A000000000000000000000000000000000000000000000000000000000 DUP2 MSTORE PUSH1 0x4 ADD PUSH2 0x7CC SWAP1 PUSH2 0xCD7 JUMP JUMPDEST PUSH1 0x40 MLOAD DUP1 SWAP2 SUB SWAP1 REVERT JUMPDEST DUP1 PUSH1 0x2 DUP2 SWAP1 SSTORE POP ADDRESS PUSH20 0xFFFFFFFFFFFFFFFFFFFFFFFFFFFFFFFFFFFFFFFF AND PUSH32 0x2928F9DFE7563B359A46F1526CE53BD4FC234FF63BBFB92F76443EC46055D19F PUSH1 0x1 PUSH1 0x2 SLOAD PUSH1 0x3 PUSH1 0x4 PUSH1 0x5 PUSH1 0x40 MLOAD PUSH2 0x830 SWAP6 SWAP5 SWAP4 SWAP3 SWAP2 SWAP1 PUSH2 0x1059 JUMP JUMPDEST PUSH1 0x40 MLOAD DUP1 SWAP2 SUB SWAP1 LOG2 POP JUMP JUMPDEST PUSH1 0x0 DUP1 SLOAD SWAP1 PUSH2 0x100 EXP SWAP1 DIV PUSH20 0xFFFFFFFFFFFFFFFFFFFFFFFFFFFFFFFFFFFFFFFF AND PUSH20 0xFFFFFFFFFFFFFFFFFFFFFFFFFFFFFFFFFFFFFFFF AND CALLER PUSH20 0xFFFFFFFFFFFFFFFFFFFFFFFFFFFFFFFFFFFFFFFF AND EQ PUSH2 0x8C9 JUMPI PUSH1 0x40 MLOAD PUSH32 0x8C379A000000000000000000000000000000000000000000000000000000000 DUP2 MSTORE PUSH1 0x4 ADD PUSH2 0x8C0 SWAP1 PUSH2 0xCD7 JUMP JUMPDEST PUSH1 0x40 MLOAD DUP1 SWAP2 SUB SWAP1 REVERT JUMPDEST DUP1 PUSH1 0x4 SWAP1 DUP2 PUSH2 0x8D8 SWAP2 SWAP1 PUSH2 0xF03 JUMP JUMPDEST POP ADDRESS PUSH20 0xFFFFFFFFFFFFFFFFFFFFFFFFFFFFFFFFFFFFFFFF AND PUSH32 0x2928F9DFE7563B359A46F1526CE53BD4FC234FF63BBFB92F76443EC46055D19F PUSH1 0x1 PUSH1 0x2 SLOAD PUSH1 0x3 PUSH1 0x4 PUSH1 0x5 PUSH1 0x40 MLOAD PUSH2 0x92D SWAP6 SWAP5 SWAP4 SWAP3 SWAP2 SWAP1 PUSH2 0x1059 JUMP JUMPDEST PUSH1 0x40 MLOAD DUP1 SWAP2 SUB SWAP1 LOG2 POP JUMP JUMPDEST PUSH1 0x0 PUSH1 0x40 MLOAD SWAP1 POP SWAP1 JUMP JUMPDEST PUSH1 0x0 DUP1 REVERT JUMPDEST PUSH1 0x0 DUP1 REVERT JUMPDEST PUSH1 0x0 DUP1 REVERT JUMPDEST PUSH1 0x0 DUP1 REVERT JUMPDEST PUSH1 0x0 PUSH1 0x1F NOT PUSH1 0x1F DUP4 ADD AND SWAP1 POP SWAP2 SWAP1 POP JUMP JUMPDEST PUSH32 0x4E487B7100000000000000000000000000000000000000000000000000000000 PUSH1 0x0 MSTORE PUSH1 0x41 PUSH1 0x4 MSTORE PUSH1 0x24 PUSH1 0x0 REVERT JUMPDEST PUSH2 0x99F DUP3 PUSH2 0x956 JUMP JUMPDEST DUP2 ADD DUP2 DUP2 LT PUSH8 0xFFFFFFFFFFFFFFFF DUP3 GT OR ISZERO PUSH2 0x9BE JUMPI PUSH2 0x9BD PUSH2 0x967 JUMP JUMPDEST JUMPDEST DUP1 PUSH1 0x40 MSTORE POP POP POP JUMP JUMPDEST PUSH1 0x0 PUSH2 0x9D1 PUSH2 0x938 JUMP JUMPDEST SWAP1 POP PUSH2 0x9DD DUP3 DUP3 PUSH2 0x996 JUMP JUMPDEST SWAP2 SWAP1 POP JUMP JUMPDEST PUSH1 0x0 PUSH8 0xFFFFFFFFFFFFFFFF DUP3 GT ISZERO PUSH2 0x9FD JUMPI PUSH2 0x9FC PUSH2 0x967 JUMP JUMPDEST JUMPDEST PUSH2 0xA06 DUP3 PUSH2 0x956 JUMP JUMPDEST SWAP1 POP PUSH1 0x20 DUP2 ADD SWAP1 POP SWAP2 SWAP1 POP JUMP JUMPDEST DUP3 DUP2 DUP4 CALLDATACOPY PUSH1 0x0 DUP4 DUP4 ADD MSTORE POP POP POP JUMP JUMPDEST PUSH1 0x0 PUSH2 0xA35 PUSH2 0xA30 DUP5 PUSH2 0x9E2 JUMP JUMPDEST PUSH2 0x9C7 JUMP JUMPDEST SWAP1 POP DUP3 DUP2 MSTORE PUSH1 0x20 DUP2 ADD DUP5 DUP5 DUP5 ADD GT ISZERO PUSH2 0xA51 JUMPI PUSH2 0xA50 PUSH2 0x951 JUMP JUMPDEST JUMPDEST PUSH2 0xA5C DUP5 DUP3 DUP6 PUSH2 0xA13 JUMP JUMPDEST POP SWAP4 SWAP3 POP POP POP JUMP JUMPDEST PUSH1 0x0 DUP3 PUSH1 0x1F DUP4 ADD SLT PUSH2 0xA79 JUMPI PUSH2 0xA78 PUSH2 0x94C JUMP JUMPDEST JUMPDEST DUP2 CALLDATALOAD PUSH2 0xA89 DUP5 DUP3 PUSH1 0x20 DUP7 ADD PUSH2 0xA22 JUMP JUMPDEST SWAP2 POP POP SWAP3 SWAP2 POP POP JUMP JUMPDEST PUSH1 0x0 PUSH1 0x20 DUP3 DUP5 SUB SLT ISZERO PUSH2 0xAA8 JUMPI PUSH2 0xAA7 PUSH2 0x942 JUMP JUMPDEST JUMPDEST PUSH1 0x0 DUP3 ADD CALLDATALOAD PUSH8 0xFFFFFFFFFFFFFFFF DUP2 GT ISZERO PUSH2 0xAC6 JUMPI PUSH2 0xAC5 PUSH2 0x947 JUMP JUMPDEST JUMPDEST PUSH2 0xAD2 DUP5 DUP3 DUP6 ADD PUSH2 0xA64 JUMP JUMPDEST SWAP2 POP POP SWAP3 SWAP2 POP POP JUMP JUMPDEST PUSH1 0x0 PUSH20 0xFFFFFFFFFFFFFFFFFFFFFFFFFFFFFFFFFFFFFFFF DUP3 AND SWAP1 POP SWAP2 SWAP1 POP JUMP JUMPDEST PUSH1 0x0 PUSH2 0xB06 DUP3 PUSH2 0xADB JUMP JUMPDEST SWAP1 POP SWAP2 SWAP1 POP JUMP JUMPDEST PUSH2 0xB16 DUP2 PUSH2 0xAFB JUMP JUMPDEST DUP3 MSTORE POP POP JUMP JUMPDEST PUSH1 0x0 PUSH1 0x20 DUP3 ADD SWAP1 POP PUSH2 0xB31 PUSH1 0x0 DUP4 ADD DUP5 PUSH2 0xB0D JUMP JUMPDEST SWAP3 SWAP2 POP POP JUMP JUMPDEST PUSH1 0x0 DUP2 MLOAD SWAP1 POP SWAP2 SWAP1 POP JUMP JUMPDEST PUSH1 0x0 DUP3 DUP3 MSTORE PUSH1 0x20 DUP3 ADD SWAP1 POP SWAP3 SWAP2 POP POP JUMP JUMPDEST PUSH1 0x0 JUMPDEST DUP4 DUP2 LT ISZERO PUSH2 0xB71 JUMPI DUP1 DUP3 ADD MLOAD DUP2 DUP5 ADD MSTORE PUSH1 0x20 DUP2 ADD SWAP1 POP PUSH2 0xB56 JUMP JUMPDEST PUSH1 0x0 DUP5 DUP5 ADD MSTORE POP POP POP POP JUMP JUMPDEST PUSH1 0x0 PUSH2 0xB88 DUP3 PUSH2 0xB37 JUMP JUMPDEST PUSH2 0xB92 DUP2 DUP6 PUSH2 0xB42 JUMP JUMPDEST SWAP4 POP PUSH2 0xBA2 DUP2 DUP6 PUSH1 0x20 DUP7 ADD PUSH2 0xB53 JUMP JUMPDEST PUSH2 0xBAB DUP2 PUSH2 0x956 JUMP JUMPDEST DUP5 ADD SWAP2 POP POP SWAP3 SWAP2 POP POP JUMP JUMPDEST PUSH1 0x0 PUSH1 0x20 DUP3 ADD SWAP1 POP DUP2 DUP2 SUB PUSH1 0x0 DUP4 ADD MSTORE PUSH2 0xBD0 DUP2 DUP5 PUSH2 0xB7D JUMP JUMPDEST SWAP1 POP SWAP3 SWAP2 POP POP JUMP JUMPDEST PUSH1 0x0 DUP2 SWAP1 POP SWAP2 SWAP1 POP JUMP JUMPDEST PUSH2 0xBEB DUP2 PUSH2 0xBD8 JUMP JUMPDEST DUP3 MSTORE POP POP JUMP JUMPDEST PUSH1 0x0 PUSH1 0x20 DUP3 ADD SWAP1 POP PUSH2 0xC06 PUSH1 0x0 DUP4 ADD DUP5 PUSH2 0xBE2 JUMP JUMPDEST SWAP3 SWAP2 POP POP JUMP JUMPDEST PUSH2 0xC15 DUP2 PUSH2 0xBD8 JUMP JUMPDEST DUP2 EQ PUSH2 0xC20 JUMPI PUSH1 0x0 DUP1 REVERT JUMPDEST POP JUMP JUMPDEST PUSH1 0x0 DUP2 CALLDATALOAD SWAP1 POP PUSH2 0xC32 DUP2 PUSH2 0xC0C JUMP JUMPDEST SWAP3 SWAP2 POP POP JUMP JUMPDEST PUSH1 0x0 PUSH1 0x20 DUP3 DUP5 SUB SLT ISZERO PUSH2 0xC4E JUMPI PUSH2 0xC4D PUSH2 0x942 JUMP JUMPDEST JUMPDEST PUSH1 0x0 PUSH2 0xC5C DUP5 DUP3 DUP6 ADD PUSH2 0xC23 JUMP JUMPDEST SWAP2 POP POP SWAP3 SWAP2 POP POP JUMP JUMPDEST PUSH32 0x536F6D656E746520756D2070726F666573736F7220706F646520617475616C69 PUSH1 0x0 DUP3 ADD MSTORE PUSH32 0x7A617220617320696E666F726D61636F657320646F20616C756E6F2100000000 PUSH1 0x20 DUP3 ADD MSTORE POP JUMP JUMPDEST PUSH1 0x0 PUSH2 0xCC1 PUSH1 0x3C DUP4 PUSH2 0xB42 JUMP JUMPDEST SWAP2 POP PUSH2 0xCCC DUP3 PUSH2 0xC65 JUMP JUMPDEST PUSH1 0x40 DUP3 ADD SWAP1 POP SWAP2 SWAP1 POP JUMP JUMPDEST PUSH1 0x0 PUSH1 0x20 DUP3 ADD SWAP1 POP DUP2 DUP2 SUB PUSH1 0x0 DUP4 ADD MSTORE PUSH2 0xCF0 DUP2 PUSH2 0xCB4 JUMP JUMPDEST SWAP1 POP SWAP2 SWAP1 POP JUMP JUMPDEST PUSH32 0x4E487B7100000000000000000000000000000000000000000000000000000000 PUSH1 0x0 MSTORE PUSH1 0x22 PUSH1 0x4 MSTORE PUSH1 0x24 PUSH1 0x0 REVERT JUMPDEST PUSH1 0x0 PUSH1 0x2 DUP3 DIV SWAP1 POP PUSH1 0x1 DUP3 AND DUP1 PUSH2 0xD3E JUMPI PUSH1 0x7F DUP3 AND SWAP2 POP JUMPDEST PUSH1 0x20 DUP3 LT DUP2 SUB PUSH2 0xD51 JUMPI PUSH2 0xD50 PUSH2 0xCF7 JUMP JUMPDEST JUMPDEST POP SWAP2 SWAP1 POP JUMP JUMPDEST PUSH1 0x0 DUP2 SWAP1 POP DUP2 PUSH1 0x0 MSTORE PUSH1 0x20 PUSH1 0x0 KECCAK256 SWAP1 POP SWAP2 SWAP1 POP JUMP JUMPDEST PUSH1 0x0 PUSH1 0x20 PUSH1 0x1F DUP4 ADD DIV SWAP1 POP SWAP2 SWAP1 POP JUMP JUMPDEST PUSH1 0x0 DUP3 DUP3 SHL SWAP1 POP SWAP3 SWAP2 POP POP JUMP JUMPDEST PUSH1 0x0 PUSH1 0x8 DUP4 MUL PUSH2 0xDB9 PUSH32 0xFFFFFFFFFFFFFFFFFFFFFFFFFFFFFFFFFFFFFFFFFFFFFFFFFFFFFFFFFFFFFFFF DUP3 PUSH2 0xD7C JUMP JUMPDEST PUSH2 0xDC3 DUP7 DUP4 PUSH2 0xD7C JUMP JUMPDEST SWAP6 POP DUP1 NOT DUP5 AND SWAP4 POP DUP1 DUP7 AND DUP5 OR SWAP3 POP POP POP SWAP4 SWAP3 POP POP POP JUMP JUMPDEST PUSH1 0x0 DUP2 SWAP1 POP SWAP2 SWAP1 POP JUMP JUMPDEST PUSH1 0x0 PUSH2 0xE00 PUSH2 0xDFB PUSH2 0xDF6 DUP5 PUSH2 0xBD8 JUMP JUMPDEST PUSH2 0xDDB JUMP JUMPDEST PUSH2 0xBD8 JUMP JUMPDEST SWAP1 POP SWAP2 SWAP1 POP JUMP JUMPDEST PUSH1 0x0 DUP2 SWAP1 POP SWAP2 SWAP1 POP JUMP JUMPDEST PUSH2 0xE1A DUP4 PUSH2 0xDE5 JUMP JUMPDEST PUSH2 0xE2E PUSH2 0xE26 DUP3 PUSH2 0xE07 JUMP JUMPDEST DUP5 DUP5 SLOAD PUSH2 0xD89 JUMP JUMPDEST DUP3 SSTORE POP POP POP POP JUMP JUMPDEST PUSH1 0x0 SWAP1 JUMP JUMPDEST PUSH2 0xE43 PUSH2 0xE36 JUMP JUMPDEST PUSH2 0xE4E DUP2 DUP5 DUP5 PUSH2 0xE11 JUMP JUMPDEST POP POP POP JUMP JUMPDEST JUMPDEST DUP2 DUP2 LT ISZERO PUSH2 0xE72 JUMPI PUSH2 0xE67 PUSH1 0x0 DUP3 PUSH2 0xE3B JUMP JUMPDEST PUSH1 0x1 DUP2 ADD SWAP1 POP PUSH2 0xE54 JUMP JUMPDEST POP POP JUMP JUMPDEST PUSH1 0x1F DUP3 GT ISZERO PUSH2 0xEB7 JUMPI PUSH2 0xE88 DUP2 PUSH2 0xD57 JUMP JUMPDEST PUSH2 0xE91 DUP5 PUSH2 0xD6C JUMP JUMPDEST DUP2 ADD PUSH1 0x20 DUP6 LT ISZERO PUSH2 0xEA0 JUMPI DUP2 SWAP1 POP JUMPDEST PUSH2 0xEB4 PUSH2 0xEAC DUP6 PUSH2 0xD6C JUMP JUMPDEST DUP4 ADD DUP3 PUSH2 0xE53 JUMP JUMPDEST POP POP JUMPDEST POP POP POP JUMP JUMPDEST PUSH1 0x0 DUP3 DUP3 SHR SWAP1 POP SWAP3 SWAP2 POP POP JUMP JUMPDEST PUSH1 0x0 PUSH2 0xEDA PUSH1 0x0 NOT DUP5 PUSH1 0x8 MUL PUSH2 0xEBC JUMP JUMPDEST NOT DUP1 DUP4 AND SWAP2 POP POP SWAP3 SWAP2 POP POP JUMP JUMPDEST PUSH1 0x0 PUSH2 0xEF3 DUP4 DUP4 PUSH2 0xEC9 JUMP JUMPDEST SWAP2 POP DUP3 PUSH1 0x2 MUL DUP3 OR SWAP1 POP SWAP3 SWAP2 POP POP JUMP JUMPDEST PUSH2 0xF0C DUP3 PUSH2 0xB37 JUMP JUMPDEST PUSH8 0xFFFFFFFFFFFFFFFF DUP2 GT ISZERO PUSH2 0xF25 JUMPI PUSH2 0xF24 PUSH2 0x967 JUMP JUMPDEST JUMPDEST PUSH2 0xF2F DUP3 SLOAD PUSH2 0xD26 JUMP JUMPDEST PUSH2 0xF3A DUP3 DUP3 DUP6 PUSH2 0xE76 JUMP JUMPDEST PUSH1 0x0 PUSH1 0x20 SWAP1 POP PUSH1 0x1F DUP4 GT PUSH1 0x1 DUP2 EQ PUSH2 0xF6D JUMPI PUSH1 0x0 DUP5 ISZERO PUSH2 0xF5B JUMPI DUP3 DUP8 ADD MLOAD SWAP1 POP JUMPDEST PUSH2 0xF65 DUP6 DUP3 PUSH2 0xEE7 JUMP JUMPDEST DUP7 SSTORE POP PUSH2 0xFCD JUMP JUMPDEST PUSH1 0x1F NOT DUP5 AND PUSH2 0xF7B DUP7 PUSH2 0xD57 JUMP JUMPDEST PUSH1 0x0 JUMPDEST DUP3 DUP2 LT ISZERO PUSH2 0xFA3 JUMPI DUP5 DUP10 ADD MLOAD DUP3 SSTORE PUSH1 0x1 DUP3 ADD SWAP2 POP PUSH1 0x20 DUP6 ADD SWAP5 POP PUSH1 0x20 DUP2 ADD SWAP1 POP PUSH2 0xF7E JUMP JUMPDEST DUP7 DUP4 LT ISZERO PUSH2 0xFC0 JUMPI DUP5 DUP10 ADD MLOAD PUSH2 0xFBC PUSH1 0x1F DUP10 AND DUP3 PUSH2 0xEC9 JUMP JUMPDEST DUP4 SSTORE POP JUMPDEST PUSH1 0x1 PUSH1 0x2 DUP9 MUL ADD DUP9 SSTORE POP POP POP JUMPDEST POP POP POP POP POP POP JUMP JUMPDEST PUSH1 0x0 DUP2 SLOAD PUSH2 0xFE2 DUP2 PUSH2 0xD26 JUMP JUMPDEST PUSH2 0xFEC DUP2 DUP7 PUSH2 0xB42 JUMP JUMPDEST SWAP5 POP PUSH1 0x1 DUP3 AND PUSH1 0x0 DUP2 EQ PUSH2 0x1007 JUMPI PUSH1 0x1 DUP2 EQ PUSH2 0x101D JUMPI PUSH2 0x1050 JUMP JUMPDEST PUSH1 0xFF NOT DUP4 AND DUP7 MSTORE DUP2 ISZERO ISZERO PUSH1 0x20 MUL DUP7 ADD SWAP4 POP PUSH2 0x1050 JUMP JUMPDEST PUSH2 0x1026 DUP6 PUSH2 0xD57 JUMP JUMPDEST PUSH1 0x0 JUMPDEST DUP4 DUP2 LT ISZERO PUSH2 0x1048 JUMPI DUP2 SLOAD DUP2 DUP10 ADD MSTORE PUSH1 0x1 DUP3 ADD SWAP2 POP PUSH1 0x20 DUP2 ADD SWAP1 POP PUSH2 0x1029 JUMP JUMPDEST DUP1 DUP9 ADD SWAP6 POP POP POP JUMPDEST POP POP POP SWAP3 SWAP2 POP POP JUMP JUMPDEST PUSH1 0x0 PUSH1 0xA0 DUP3 ADD SWAP1 POP DUP2 DUP2 SUB PUSH1 0x0 DUP4 ADD MSTORE PUSH2 0x1073 DUP2 DUP9 PUSH2 0xFD5 JUMP JUMPDEST SWAP1 POP PUSH2 0x1082 PUSH1 0x20 DUP4 ADD DUP8 PUSH2 0xBE2 JUMP JUMPDEST DUP2 DUP2 SUB PUSH1 0x40 DUP4 ADD MSTORE PUSH2 0x1094 DUP2 DUP7 PUSH2 0xFD5 JUMP JUMPDEST SWAP1 POP DUP2 DUP2 SUB PUSH1 0x60 DUP4 ADD MSTORE PUSH2 0x10A8 DUP2 DUP6 PUSH2 0xFD5 JUMP JUMPDEST SWAP1 POP DUP2 DUP2 SUB PUSH1 0x80 DUP4 ADD MSTORE PUSH2 0x10BC DUP2 DUP5 PUSH2 0xFD5 JUMP JUMPDEST SWAP1 POP SWAP7 SWAP6 POP POP POP POP POP POP JUMP INVALID LOG2 PUSH5 0x6970667358 0x22 SLT KECCAK256 DUP13 PUSH23 0xEC7C0D7903592959EC7240FB02D7D8670E353370C269F8 0x29 0x22 0xAF 0xE3 CREATE2 SAR ADD PUSH5 0x736F6C6343 STOP ADDMOD SLT STOP CALLER "
		},
		"gasEstimates": {
			"creation": {
				"codeDepositCost": "870000",
				"executionCost": "infinite",
				"totalCost": "infinite"
			},
			"external": {
				"ano()": "infinite",
				"cidadeNatal()": "infinite",
				"estadoNatal()": "infinite",
				"idade()": "2473",
				"nomeAluno()": "infinite",
				"professor()": "2578",
				"setAno(string)": "infinite",
				"setCidadeNatal(string)": "infinite",
				"setEstadoNatal(string)": "infinite",
				"setIdade(uint256)": "infinite",
				"setNomeAluno(string)": "infinite"
			}
		},
		"methodIdentifiers": {
			"ano()": "b2e1b75e",
			"cidadeNatal()": "a71d58b7",
			"estadoNatal()": "7cdd416d",
			"idade()": "b268199d",
			"nomeAluno()": "8ee62344",
			"professor()": "5113940d",
			"setAno(string)": "30ac7cd3",
			"setCidadeNatal(string)": "ce425dbd",
			"setEstadoNatal(string)": "203410e5",
			"setIdade(uint256)": "bba88a4f",
			"setNomeAluno(string)": "2881842a"
		}
	},
	"abi": [
		{
			"inputs": [
				{
					"internalType": "string",
					"name": "_nomeAluno",
					"type": "string"
				},
				{
					"internalType": "uint256",
					"name": "_idade",
					"type": "uint256"
				},
				{
					"internalType": "string",
					"name": "_ano",
					"type": "string"
				},
				{
					"internalType": "string",
					"name": "_cidadeNatal",
					"type": "string"
				},
				{
					"internalType": "string",
					"name": "_estadoNatal",
					"type": "string"
				}
			],
			"stateMutability": "nonpayable",
			"type": "constructor"
		},
		{
			"anonymous": false,
			"inputs": [
				{
					"indexed": true,
					"internalType": "address",
					"name": "aluno",
					"type": "address"
				},
				{
					"indexed": false,
					"internalType": "string",
					"name": "nomeAluno",
					"type": "string"
				},
				{
					"indexed": false,
					"internalType": "uint256",
					"name": "idade",
					"type": "uint256"
				},
				{
					"indexed": false,
					"internalType": "string",
					"name": "ano",
					"type": "string"
				},
				{
					"indexed": false,
					"internalType": "string",
					"name": "cidadeNatal",
					"type": "string"
				},
				{
					"indexed": false,
					"internalType": "string",
					"name": "estadoNatal",
					"type": "string"
				}
			],
			"name": "infoAlunoAtualizada",
			"type": "event"
		},
		{
			"inputs": [],
			"name": "ano",
			"outputs": [
				{
					"internalType": "string",
					"name": "",
					"type": "string"
				}
			],
			"stateMutability": "view",
			"type": "function"
		},
		{
			"inputs": [],
			"name": "cidadeNatal",
			"outputs": [
				{
					"internalType": "string",
					"name": "",
					"type": "string"
				}
			],
			"stateMutability": "view",
			"type": "function"
		},
		{
			"inputs": [],
			"name": "estadoNatal",
			"outputs": [
				{
					"internalType": "string",
					"name": "",
					"type": "string"
				}
			],
			"stateMutability": "view",
			"type": "function"
		},
		{
			"inputs": [],
			"name": "idade",
			"outputs": [
				{
					"internalType": "uint256",
					"name": "",
					"type": "uint256"
				}
			],
			"stateMutability": "view",
			"type": "function"
		},
		{
			"inputs": [],
			"name": "nomeAluno",
			"outputs": [
				{
					"internalType": "string",
					"name": "",
					"type": "string"
				}
			],
			"stateMutability": "view",
			"type": "function"
		},
		{
			"inputs": [],
			"name": "professor",
			"outputs": [
				{
					"internalType": "address",
					"name": "",
					"type": "address"
				}
			],
			"stateMutability": "view",
			"type": "function"
		},
		{
			"inputs": [
				{
					"internalType": "string",
					"name": "_ano",
					"type": "string"
				}
			],
			"name": "setAno",
			"outputs": [],
			"stateMutability": "nonpayable",
			"type": "function"
		},
		{
			"inputs": [
				{
					"internalType": "string",
					"name": "_cidadeNatal",
					"type": "string"
				}
			],
			"name": "setCidadeNatal",
			"outputs": [],
			"stateMutability": "nonpayable",
			"type": "function"
		},
		{
			"inputs": [
				{
					"internalType": "string",
					"name": "_estadoNatal",
					"type": "string"
				}
			],
			"name": "setEstadoNatal",
			"outputs": [],
			"stateMutability": "nonpayable",
			"type": "function"
		},
		{
			"inputs": [
				{
					"internalType": "uint256",
					"name": "_idade",
					"type": "uint256"
				}
			],
			"name": "setIdade",
			"outputs": [],
			"stateMutability": "nonpayable",
			"type": "function"
		},
		{
			"inputs": [
				{
					"internalType": "string",
					"name": "nome",
					"type": "string"
				}
			],
			"name": "setNomeAluno",
			"outputs": [],
			"stateMutability": "nonpayable",
			"type": "function"
		}
	]
}