{
  "contractName": "Aluno",
  "abi": [
    {
      "inputs": [
        {
          "internalType": "address",
          "name": "_professor",
          "type": "address"
        }
      ],
      "stateMutability": "nonpayable",
      "type": "constructor"
    },
    {
      "anonymous": false,
      "inputs": [
        {
          "indexed": true,
          "internalType": "address",
          "name": "aluno",
          "type": "address"
        },
        {
          "indexed": false,
          "internalType": "string",
          "name": "nomeAluno",
          "type": "string"
        },
        {
          "indexed": false,
          "internalType": "uint256",
          "name": "idade",
          "type": "uint256"
        },
        {
          "indexed": false,
          "internalType": "string",
          "name": "ano",
          "type": "string"
        }
      ],
      "name": "infoAlunoAtualizada",
      "type": "event"
    },
    {
      "inputs": [],
      "name": "ano",
      "outputs": [
        {
          "internalType": "string",
          "name": "",
          "type": "string"
        }
      ],
      "stateMutability": "view",
      "type": "function",
      "constant": true
    },
    {
      "inputs": [],
      "name": "idade",
      "outputs": [
        {
          "internalType": "uint256",
          "name": "",
          "type": "uint256"
        }
      ],
      "stateMutability": "view",
      "type": "function",
      "constant": true
    },
    {
      "inputs": [],
      "name": "nomeAluno",
      "outputs": [
        {
          "internalType": "string",
          "name": "",
          "type": "string"
        }
      ],
      "stateMutability": "view",
      "type": "function",
      "constant": true
    },
    {
      "inputs": [],
      "name": "perfilBasico",
      "outputs": [
        {
          "internalType": "string",
          "name": "",
          "type": "string"
        }
      ],
      "stateMutability": "view",
      "type": "function",
      "constant": true
    },
    {
      "inputs": [],
      "name": "professor",
      "outputs": [
        {
          "internalType": "address",
          "name": "",
          "type": "address"
        }
      ],
      "stateMutability": "view",
      "type": "function",
      "constant": true
    },
    {
      "inputs": [
        {
          "internalType": "string",
          "name": "nome",
          "type": "string"
        }
      ],
      "name": "setNomeAluno",
      "outputs": [],
      "stateMutability": "nonpayable",
      "type": "function"
    },
    {
      "inputs": [
        {
          "internalType": "uint256",
          "name": "_idade",
          "type": "uint256"
        }
      ],
      "name": "setIdade",
      "outputs": [],
      "stateMutability": "nonpayable",
      "type": "function"
    },
    {
      "inputs": [
        {
          "internalType": "string",
          "name": "_ano",
          "type": "string"
        }
      ],
      "name": "setAno",
      "outputs": [],
      "stateMutability": "nonpayable",
      "type": "function"
    }
  ],
  "bytecode": "0x608060405234801561000f575f80fd5b50604051610e83380380610e83833981810160405281019061003191906100d4565b805f806101000a81548173ffffffffffffffffffffffffffffffffffffffff021916908373ffffffffffffffffffffffffffffffffffffffff160217905550506100ff565b5f80fd5b5f73ffffffffffffffffffffffffffffffffffffffff82169050919050565b5f6100a38261007a565b9050919050565b6100b381610099565b81146100bd575f80fd5b50565b5f815190506100ce816100aa565b92915050565b5f602082840312156100e9576100e8610076565b5b5f6100f6848285016100c0565b91505092915050565b610d778061010c5f395ff3fe608060405234801561000f575f80fd5b5060043610610086575f3560e01c8063b268199d11610059578063b268199d146100fe578063b2e1b75e1461011c578063bba88a4f1461013a578063ea97d37e1461015657610086565b80632881842a1461008a57806330ac7cd3146100a65780635113940d146100c25780638ee62344146100e0575b5f80fd5b6100a4600480360381019061009f9190610767565b610174565b005b6100c060048036038101906100bb9190610767565b61026a565b005b6100ca610360565b6040516100d791906107ed565b60405180910390f35b6100e8610383565b6040516100f59190610880565b60405180910390f35b61010661040f565b60405161011391906108b8565b60405180910390f35b610124610415565b6040516101319190610880565b60405180910390f35b610154600480360381019061014f91906108fb565b6104a1565b005b61015e61058e565b60405161016b9190610880565b60405180910390f35b5f8054906101000a900473ffffffffffffffffffffffffffffffffffffffff1673ffffffffffffffffffffffffffffffffffffffff163373ffffffffffffffffffffffffffffffffffffffff1614610201576040517f08c379a00000000000000000000000000000000000000000000000000000000081526004016101f890610996565b60405180910390fd5b80600190816102109190610bae565b503073ffffffffffffffffffffffffffffffffffffffff167fdc6f1380960885218d350bdd3945555fc6025a7258ae33d69d7193120a76d8736001600254600360405161025f93929190610cfe565b60405180910390a250565b5f8054906101000a900473ffffffffffffffffffffffffffffffffffffffff1673ffffffffffffffffffffffffffffffffffffffff163373ffffffffffffffffffffffffffffffffffffffff16146102f7576040517f08c379a00000000000000000000000000000000000000000000000000000000081526004016102ee90610996565b60405180910390fd5b80600390816103069190610bae565b503073ffffffffffffffffffffffffffffffffffffffff167fdc6f1380960885218d350bdd3945555fc6025a7258ae33d69d7193120a76d8736001600254600360405161035593929190610cfe565b60405180910390a250565b5f8054906101000a900473ffffffffffffffffffffffffffffffffffffffff1681565b60018054610390906109e1565b80601f01602080910402602001604051908101604052809291908181526020018280546103bc906109e1565b80156104075780601f106103de57610100808354040283529160200191610407565b820191905f5260205f20905b8154815290600101906020018083116103ea57829003601f168201915b505050505081565b60025481565b60038054610422906109e1565b80601f016020809104026020016040519081016040528092919081815260200182805461044e906109e1565b80156104995780601f1061047057610100808354040283529160200191610499565b820191905f5260205f20905b81548152906001019060200180831161047c57829003601f168201915b505050505081565b5f8054906101000a900473ffffffffffffffffffffffffffffffffffffffff1673ffffffffffffffffffffffffffffffffffffffff163373ffffffffffffffffffffffffffffffffffffffff161461052e576040517f08c379a000000000000000000000000000000000000000000000000000000000815260040161052590610996565b60405180910390fd5b806002819055503073ffffffffffffffffffffffffffffffffffffffff167fdc6f1380960885218d350bdd3945555fc6025a7258ae33d69d7193120a76d8736001600254600360405161058393929190610cfe565b60405180910390a250565b6004805461059b906109e1565b80601f01602080910402602001604051908101604052809291908181526020018280546105c7906109e1565b80156106125780601f106105e957610100808354040283529160200191610612565b820191905f5260205f20905b8154815290600101906020018083116105f557829003601f168201915b505050505081565b5f604051905090565b5f80fd5b5f80fd5b5f80fd5b5f80fd5b5f601f19601f8301169050919050565b7f4e487b71000000000000000000000000000000000000000000000000000000005f52604160045260245ffd5b61067982610633565b810181811067ffffffffffffffff8211171561069857610697610643565b5b80604052505050565b5f6106aa61061a565b90506106b68282610670565b919050565b5f67ffffffffffffffff8211156106d5576106d4610643565b5b6106de82610633565b9050602081019050919050565b828183375f83830152505050565b5f61070b610706846106bb565b6106a1565b9050828152602081018484840111156107275761072661062f565b5b6107328482856106eb565b509392505050565b5f82601f83011261074e5761074d61062b565b5b813561075e8482602086016106f9565b91505092915050565b5f6020828403121561077c5761077b610623565b5b5f82013567ffffffffffffffff81111561079957610798610627565b5b6107a58482850161073a565b91505092915050565b5f73ffffffffffffffffffffffffffffffffffffffff82169050919050565b5f6107d7826107ae565b9050919050565b6107e7816107cd565b82525050565b5f6020820190506108005f8301846107de565b92915050565b5f81519050919050565b5f82825260208201905092915050565b5f5b8381101561083d578082015181840152602081019050610822565b5f8484015250505050565b5f61085282610806565b61085c8185610810565b935061086c818560208601610820565b61087581610633565b840191505092915050565b5f6020820190508181035f8301526108988184610848565b905092915050565b5f819050919050565b6108b2816108a0565b82525050565b5f6020820190506108cb5f8301846108a9565b92915050565b6108da816108a0565b81146108e4575f80fd5b50565b5f813590506108f5816108d1565b92915050565b5f602082840312156109105761090f610623565b5b5f61091d848285016108e7565b91505092915050565b7f536f6d656e746520756d2070726f666573736f7220706f646520617475616c695f8201527f7a617220617320696e666f7320646f20616c756e6f2100000000000000000000602082015250565b5f610980603683610810565b915061098b82610926565b604082019050919050565b5f6020820190508181035f8301526109ad81610974565b9050919050565b7f4e487b71000000000000000000000000000000000000000000000000000000005f52602260045260245ffd5b5f60028204905060018216806109f857607f821691505b602082108103610a0b57610a0a6109b4565b5b50919050565b5f819050815f5260205f209050919050565b5f6020601f8301049050919050565b5f82821b905092915050565b5f60088302610a6d7fffffffffffffffffffffffffffffffffffffffffffffffffffffffffffffffff82610a32565b610a778683610a32565b95508019841693508086168417925050509392505050565b5f819050919050565b5f610ab2610aad610aa8846108a0565b610a8f565b6108a0565b9050919050565b5f819050919050565b610acb83610a98565b610adf610ad782610ab9565b848454610a3e565b825550505050565b5f90565b610af3610ae7565b610afe818484610ac2565b505050565b5b81811015610b2157610b165f82610aeb565b600181019050610b04565b5050565b601f821115610b6657610b3781610a11565b610b4084610a23565b81016020851015610b4f578190505b610b63610b5b85610a23565b830182610b03565b50505b505050565b5f82821c905092915050565b5f610b865f1984600802610b6b565b1980831691505092915050565b5f610b9e8383610b77565b9150826002028217905092915050565b610bb782610806565b67ffffffffffffffff811115610bd057610bcf610643565b5b610bda82546109e1565b610be5828285610b25565b5f60209050601f831160018114610c16575f8415610c04578287015190505b610c0e8582610b93565b865550610c75565b601f198416610c2486610a11565b5f5b82811015610c4b57848901518255600182019150602085019450602081019050610c26565b86831015610c685784890151610c64601f891682610b77565b8355505b6001600288020188555050505b505050505050565b5f8154610c89816109e1565b610c938186610810565b9450600182165f8114610cad5760018114610cc357610cf5565b60ff198316865281151560200286019350610cf5565b610ccc85610a11565b5f5b83811015610ced57815481890152600182019150602081019050610cce565b808801955050505b50505092915050565b5f6060820190508181035f830152610d168186610c7d565b9050610d2560208301856108a9565b8181036040830152610d378184610c7d565b905094935050505056fea264697066735822122024687d0d1d1dc7ca136ee1d097962b77efec26af720db971b94b3e598366821a64736f6c63430008140033",
  "immutableReferences": {},
  "source": "// SPDX-License-Identifier: MIT\npragma solidity ^0.8.0;\n\ncontract Aluno {\n    address public professor;\n    string public nomeAluno;\n    uint public idade;\n    string public ano;\n    string public perfilBasico;\n\n    event infoAlunoAtualizada(address indexed aluno, string nomeAluno, uint idade, string ano);\n\n    constructor(address _professor) {\n        professor = _professor;\n    }\n\n    modifier onlyProfessor() {\n        require(msg.sender == professor, \"Somente um professor pode atualizar as infos do aluno!\");\n        _;\n    }\n\n    function setNomeAluno(string memory nome) public onlyProfessor {\n        nomeAluno = nome;\n        emit infoAlunoAtualizada(address(this), nomeAluno, idade, ano);\n    }\n\n    function setIdade(uint _idade) public onlyProfessor {\n        idade = _idade;\n        emit infoAlunoAtualizada(address(this), nomeAluno, idade, ano);\n    }\n\n    function setAno(string memory _ano) public onlyProfessor {\n        ano = _ano;\n        emit infoAlunoAtualizada(address(this), nomeAluno, idade, ano);\n    }\n}",
  "sourcePath": "/home/victorcarvalho/Documents/Github/CPGoiasHackas/protected/blockchain/contracts/Aluno.sol",
  "compiler": {
    "name": "solc",
    "version": "0.8.20+commit.a1b79de6.Emscripten.clang"
  },
  "schemaVersion": "3.4.14",
  "updatedAt": "2023-06-09T04:50:41.662Z",
  "networkType": "ethereum",
  "devdoc": {
    "kind": "dev",
    "methods": {},
    "version": 1
  },
  "userdoc": {
    "kind": "user",
    "methods": {},
    "version": 1
  }
}