{
  "contractName": "Aluno",
  "abi": [
    {
      "inputs": [
        {
          "internalType": "string",
          "name": "_nomeAluno",
          "type": "string"
        },
        {
          "internalType": "uint256",
          "name": "_idade",
          "type": "uint256"
        },
        {
          "internalType": "string",
          "name": "_ano",
          "type": "string"
        },
        {
          "internalType": "string",
          "name": "_cidadeNatal",
          "type": "string"
        },
        {
          "internalType": "string",
          "name": "_estadoNatal",
          "type": "string"
        }
      ],
      "stateMutability": "nonpayable",
      "type": "constructor"
    },
    {
      "anonymous": false,
      "inputs": [
        {
          "indexed": true,
          "internalType": "address",
          "name": "aluno",
          "type": "address"
        },
        {
          "indexed": false,
          "internalType": "uint256",
          "name": "tokenId",
          "type": "uint256"
        }
      ],
      "name": "TokenRecebido",
      "type": "event"
    },
    {
      "anonymous": false,
      "inputs": [
        {
          "indexed": true,
          "internalType": "address",
          "name": "aluno",
          "type": "address"
        },
        {
          "indexed": false,
          "internalType": "string",
          "name": "nomeAluno",
          "type": "string"
        },
        {
          "indexed": false,
          "internalType": "uint256",
          "name": "idade",
          "type": "uint256"
        },
        {
          "indexed": false,
          "internalType": "string",
          "name": "ano",
          "type": "string"
        },
        {
          "indexed": false,
          "internalType": "string",
          "name": "cidadeNatal",
          "type": "string"
        },
        {
          "indexed": false,
          "internalType": "string",
          "name": "estadoNatal",
          "type": "string"
        }
      ],
      "name": "infoAlunoAtualizada",
      "type": "event"
    },
    {
      "inputs": [],
      "name": "ano",
      "outputs": [
        {
          "internalType": "string",
          "name": "",
          "type": "string"
        }
      ],
      "stateMutability": "view",
      "type": "function"
    },
    {
      "inputs": [],
      "name": "cidadeNatal",
      "outputs": [
        {
          "internalType": "string",
          "name": "",
          "type": "string"
        }
      ],
      "stateMutability": "view",
      "type": "function"
    },
    {
      "inputs": [],
      "name": "estadoNatal",
      "outputs": [
        {
          "internalType": "string",
          "name": "",
          "type": "string"
        }
      ],
      "stateMutability": "view",
      "type": "function"
    },
    {
      "inputs": [],
      "name": "idade",
      "outputs": [
        {
          "internalType": "uint256",
          "name": "",
          "type": "uint256"
        }
      ],
      "stateMutability": "view",
      "type": "function"
    },
    {
      "inputs": [],
      "name": "nomeAluno",
      "outputs": [
        {
          "internalType": "string",
          "name": "",
          "type": "string"
        }
      ],
      "stateMutability": "view",
      "type": "function"
    },
    {
      "inputs": [],
      "name": "professor",
      "outputs": [
        {
          "internalType": "address",
          "name": "",
          "type": "address"
        }
      ],
      "stateMutability": "view",
      "type": "function"
    },
    {
      "inputs": [
        {
          "internalType": "string",
          "name": "nome",
          "type": "string"
        }
      ],
      "name": "setNomeAluno",
      "outputs": [],
      "stateMutability": "nonpayable",
      "type": "function"
    },
    {
      "inputs": [
        {
          "internalType": "uint256",
          "name": "_idade",
          "type": "uint256"
        }
      ],
      "name": "setIdade",
      "outputs": [],
      "stateMutability": "nonpayable",
      "type": "function"
    },
    {
      "inputs": [
        {
          "internalType": "string",
          "name": "_ano",
          "type": "string"
        }
      ],
      "name": "setAno",
      "outputs": [],
      "stateMutability": "nonpayable",
      "type": "function"
    },
    {
      "inputs": [
        {
          "internalType": "string",
          "name": "_cidadeNatal",
          "type": "string"
        }
      ],
      "name": "setCidadeNatal",
      "outputs": [],
      "stateMutability": "nonpayable",
      "type": "function"
    },
    {
      "inputs": [
        {
          "internalType": "string",
          "name": "_estadoNatal",
          "type": "string"
        }
      ],
      "name": "setEstadoNatal",
      "outputs": [],
      "stateMutability": "nonpayable",
      "type": "function"
    },
    {
      "inputs": [
        {
          "internalType": "address",
          "name": "operator",
          "type": "address"
        },
        {
          "internalType": "address",
          "name": "from",
          "type": "address"
        },
        {
          "internalType": "uint256",
          "name": "tokenId",
          "type": "uint256"
        },
        {
          "internalType": "bytes",
          "name": "data",
          "type": "bytes"
        }
      ],
      "name": "onERC721Received",
      "outputs": [
        {
          "internalType": "bytes4",
          "name": "",
          "type": "bytes4"
        }
      ],
      "stateMutability": "nonpayable",
      "type": "function"
    }
  ],
  "bytecode": "0x60806040523480156200001157600080fd5b50604051620017e8380380620017e88339818101604052810190620000379190620003d3565b336000806101000a81548173ffffffffffffffffffffffffffffffffffffffff021916908373ffffffffffffffffffffffffffffffffffffffff16021790555084600190805190602001906200008f9291906200014b565b50836002819055508260039080519060200190620000af9291906200014b565b508160049080519060200190620000c89291906200014b565b508060059080519060200190620000e19291906200014b565b503073ffffffffffffffffffffffffffffffffffffffff167f2928f9dfe7563b359a46f1526ce53bd4fc234ff63bbfb92f76443ec46055d19f600160025460036004600560405162000138959493929190620005fe565b60405180910390a2505050505062000677565b828054620001599062000506565b90600052602060002090601f0160209004810192826200017d5760008555620001c9565b82601f106200019857805160ff1916838001178555620001c9565b82800160010185558215620001c9579182015b82811115620001c8578251825591602001919060010190620001ab565b5b509050620001d89190620001dc565b5090565b5b80821115620001f7576000816000905550600101620001dd565b5090565b6000604051905090565b600080fd5b600080fd5b600080fd5b600080fd5b6000601f19601f8301169050919050565b7f4e487b7100000000000000000000000000000000000000000000000000000000600052604160045260246000fd5b620002648262000219565b810181811067ffffffffffffffff821117156200028657620002856200022a565b5b80604052505050565b60006200029b620001fb565b9050620002a9828262000259565b919050565b600067ffffffffffffffff821115620002cc57620002cb6200022a565b5b620002d78262000219565b9050602081019050919050565b60005b8381101562000304578082015181840152602081019050620002e7565b8381111562000314576000848401525b50505050565b6000620003316200032b84620002ae565b6200028f565b90508281526020810184848401111562000350576200034f62000214565b5b6200035d848285620002e4565b509392505050565b600082601f8301126200037d576200037c6200020f565b5b81516200038f8482602086016200031a565b91505092915050565b6000819050919050565b620003ad8162000398565b8114620003b957600080fd5b50565b600081519050620003cd81620003a2565b92915050565b600080600080600060a08688031215620003f257620003f162000205565b5b600086015167ffffffffffffffff8111156200041357620004126200020a565b5b620004218882890162000365565b95505060206200043488828901620003bc565b945050604086015167ffffffffffffffff8111156200045857620004576200020a565b5b620004668882890162000365565b935050606086015167ffffffffffffffff8111156200048a57620004896200020a565b5b620004988882890162000365565b925050608086015167ffffffffffffffff811115620004bc57620004bb6200020a565b5b620004ca8882890162000365565b9150509295509295909350565b7f4e487b7100000000000000000000000000000000000000000000000000000000600052602260045260246000fd5b600060028204905060018216806200051f57607f821691505b602082108103620005355762000534620004d7565b5b50919050565b600082825260208201905092915050565b60008190508160005260206000209050919050565b60008154620005708162000506565b6200057c81866200053b565b945060018216600081146200059a5760018114620005ad57620005e4565b60ff1983168652602086019350620005e4565b620005b8856200054c565b60005b83811015620005dc57815481890152600182019150602081019050620005bb565b808801955050505b50505092915050565b620005f88162000398565b82525050565b600060a08201905081810360008301526200061a818862000561565b90506200062b6020830187620005ed565b81810360408301526200063f818662000561565b9050818103606083015262000655818562000561565b905081810360808301526200066b818462000561565b90509695505050505050565b61116180620006876000396000f3fe608060405234801561001057600080fd5b50600436106100b45760003560e01c80638ee62344116100715780638ee6234414610179578063a71d58b714610197578063b268199d146101b5578063b2e1b75e146101d3578063bba88a4f146101f1578063ce425dbd1461020d576100b4565b8063150b7a02146100b9578063203410e5146100e95780632881842a1461010557806330ac7cd3146101215780635113940d1461013d5780637cdd416d1461015b575b600080fd5b6100d360048036038101906100ce9190610ba2565b610229565b6040516100e09190610c65565b60405180910390f35b61010360048036038101906100fe9190610dc1565b61028c565b005b61011f600480360381019061011a9190610dc1565b610390565b005b61013b60048036038101906101369190610dc1565b610494565b005b610145610598565b6040516101529190610e19565b60405180910390f35b6101636105bc565b6040516101709190610ebc565b60405180910390f35b61018161064a565b60405161018e9190610ebc565b60405180910390f35b61019f6106d8565b6040516101ac9190610ebc565b60405180910390f35b6101bd610766565b6040516101ca9190610eed565b60405180910390f35b6101db61076c565b6040516101e89190610ebc565b60405180910390f35b61020b60048036038101906102069190610f08565b6107fa565b005b61022760048036038101906102229190610dc1565b6108ee565b005b60003073ffffffffffffffffffffffffffffffffffffffff167f669bbff8f24fafe590bebb745db57886fac8e266c60d19586a8e9b3aafa82fd5856040516102719190610eed565b60405180910390a263150b7a0260e01b905095945050505050565b60008054906101000a900473ffffffffffffffffffffffffffffffffffffffff1673ffffffffffffffffffffffffffffffffffffffff163373ffffffffffffffffffffffffffffffffffffffff161461031a576040517f08c379a000000000000000000000000000000000000000000000000000000000815260040161031190610fa7565b60405180910390fd5b80600590805190602001906103309291906109f2565b503073ffffffffffffffffffffffffffffffffffffffff167f2928f9dfe7563b359a46f1526ce53bd4fc234ff63bbfb92f76443ec46055d19f60016002546003600460056040516103859594939291906110bc565b60405180910390a250565b60008054906101000a900473ffffffffffffffffffffffffffffffffffffffff1673ffffffffffffffffffffffffffffffffffffffff163373ffffffffffffffffffffffffffffffffffffffff161461041e576040517f08c379a000000000000000000000000000000000000000000000000000000000815260040161041590610fa7565b60405180910390fd5b80600190805190602001906104349291906109f2565b503073ffffffffffffffffffffffffffffffffffffffff167f2928f9dfe7563b359a46f1526ce53bd4fc234ff63bbfb92f76443ec46055d19f60016002546003600460056040516104899594939291906110bc565b60405180910390a250565b60008054906101000a900473ffffffffffffffffffffffffffffffffffffffff1673ffffffffffffffffffffffffffffffffffffffff163373ffffffffffffffffffffffffffffffffffffffff1614610522576040517f08c379a000000000000000000000000000000000000000000000000000000000815260040161051990610fa7565b60405180910390fd5b80600390805190602001906105389291906109f2565b503073ffffffffffffffffffffffffffffffffffffffff167f2928f9dfe7563b359a46f1526ce53bd4fc234ff63bbfb92f76443ec46055d19f600160025460036004600560405161058d9594939291906110bc565b60405180910390a250565b60008054906101000a900473ffffffffffffffffffffffffffffffffffffffff1681565b600580546105c990610ff6565b80601f01602080910402602001604051908101604052809291908181526020018280546105f590610ff6565b80156106425780601f1061061757610100808354040283529160200191610642565b820191906000526020600020905b81548152906001019060200180831161062557829003601f168201915b505050505081565b6001805461065790610ff6565b80601f016020809104026020016040519081016040528092919081815260200182805461068390610ff6565b80156106d05780601f106106a5576101008083540402835291602001916106d0565b820191906000526020600020905b8154815290600101906020018083116106b357829003601f168201915b505050505081565b600480546106e590610ff6565b80601f016020809104026020016040519081016040528092919081815260200182805461071190610ff6565b801561075e5780601f106107335761010080835404028352916020019161075e565b820191906000526020600020905b81548152906001019060200180831161074157829003601f168201915b505050505081565b60025481565b6003805461077990610ff6565b80601f01602080910402602001604051908101604052809291908181526020018280546107a590610ff6565b80156107f25780601f106107c7576101008083540402835291602001916107f2565b820191906000526020600020905b8154815290600101906020018083116107d557829003601f168201915b505050505081565b60008054906101000a900473ffffffffffffffffffffffffffffffffffffffff1673ffffffffffffffffffffffffffffffffffffffff163373ffffffffffffffffffffffffffffffffffffffff1614610888576040517f08c379a000000000000000000000000000000000000000000000000000000000815260040161087f90610fa7565b60405180910390fd5b806002819055503073ffffffffffffffffffffffffffffffffffffffff167f2928f9dfe7563b359a46f1526ce53bd4fc234ff63bbfb92f76443ec46055d19f60016002546003600460056040516108e39594939291906110bc565b60405180910390a250565b60008054906101000a900473ffffffffffffffffffffffffffffffffffffffff1673ffffffffffffffffffffffffffffffffffffffff163373ffffffffffffffffffffffffffffffffffffffff161461097c576040517f08c379a000000000000000000000000000000000000000000000000000000000815260040161097390610fa7565b60405180910390fd5b80600490805190602001906109929291906109f2565b503073ffffffffffffffffffffffffffffffffffffffff167f2928f9dfe7563b359a46f1526ce53bd4fc234ff63bbfb92f76443ec46055d19f60016002546003600460056040516109e79594939291906110bc565b60405180910390a250565b8280546109fe90610ff6565b90600052602060002090601f016020900481019282610a205760008555610a67565b82601f10610a3957805160ff1916838001178555610a67565b82800160010185558215610a67579182015b82811115610a66578251825591602001919060010190610a4b565b5b509050610a749190610a78565b5090565b5b80821115610a91576000816000905550600101610a79565b5090565b6000604051905090565b600080fd5b600080fd5b600073ffffffffffffffffffffffffffffffffffffffff82169050919050565b6000610ad482610aa9565b9050919050565b610ae481610ac9565b8114610aef57600080fd5b50565b600081359050610b0181610adb565b92915050565b6000819050919050565b610b1a81610b07565b8114610b2557600080fd5b50565b600081359050610b3781610b11565b92915050565b600080fd5b600080fd5b600080fd5b60008083601f840112610b6257610b61610b3d565b5b8235905067ffffffffffffffff811115610b7f57610b7e610b42565b5b602083019150836001820283011115610b9b57610b9a610b47565b5b9250929050565b600080600080600060808688031215610bbe57610bbd610a9f565b5b6000610bcc88828901610af2565b9550506020610bdd88828901610af2565b9450506040610bee88828901610b28565b935050606086013567ffffffffffffffff811115610c0f57610c0e610aa4565b5b610c1b88828901610b4c565b92509250509295509295909350565b60007fffffffff0000000000000000000000000000000000000000000000000000000082169050919050565b610c5f81610c2a565b82525050565b6000602082019050610c7a6000830184610c56565b92915050565b600080fd5b6000601f19601f8301169050919050565b7f4e487b7100000000000000000000000000000000000000000000000000000000600052604160045260246000fd5b610cce82610c85565b810181811067ffffffffffffffff82111715610ced57610cec610c96565b5b80604052505050565b6000610d00610a95565b9050610d0c8282610cc5565b919050565b600067ffffffffffffffff821115610d2c57610d2b610c96565b5b610d3582610c85565b9050602081019050919050565b82818337600083830152505050565b6000610d64610d5f84610d11565b610cf6565b905082815260208101848484011115610d8057610d7f610c80565b5b610d8b848285610d42565b509392505050565b600082601f830112610da857610da7610b3d565b5b8135610db8848260208601610d51565b91505092915050565b600060208284031215610dd757610dd6610a9f565b5b600082013567ffffffffffffffff811115610df557610df4610aa4565b5b610e0184828501610d93565b91505092915050565b610e1381610ac9565b82525050565b6000602082019050610e2e6000830184610e0a565b92915050565b600081519050919050565b600082825260208201905092915050565b60005b83811015610e6e578082015181840152602081019050610e53565b83811115610e7d576000848401525b50505050565b6000610e8e82610e34565b610e988185610e3f565b9350610ea8818560208601610e50565b610eb181610c85565b840191505092915050565b60006020820190508181036000830152610ed68184610e83565b905092915050565b610ee781610b07565b82525050565b6000602082019050610f026000830184610ede565b92915050565b600060208284031215610f1e57610f1d610a9f565b5b6000610f2c84828501610b28565b91505092915050565b7f536f6d656e746520756d2070726f666573736f7220706f646520617475616c6960008201527f7a617220617320696e666f726d61636f657320646f20616c756e6f2100000000602082015250565b6000610f91603c83610e3f565b9150610f9c82610f35565b604082019050919050565b60006020820190508181036000830152610fc081610f84565b9050919050565b7f4e487b7100000000000000000000000000000000000000000000000000000000600052602260045260246000fd5b6000600282049050600182168061100e57607f821691505b60208210810361102157611020610fc7565b5b50919050565b60008190508160005260206000209050919050565b6000815461104981610ff6565b6110538186610e3f565b9450600182166000811461106e5760018114611080576110b3565b60ff19831686526020860193506110b3565b61108985611027565b60005b838110156110ab5781548189015260018201915060208101905061108c565b808801955050505b50505092915050565b600060a08201905081810360008301526110d6818861103c565b90506110e56020830187610ede565b81810360408301526110f7818661103c565b9050818103606083015261110b818561103c565b9050818103608083015261111f818461103c565b9050969550505050505056fea2646970667358221220c295d91660eb7d129427d19cffe2cdb7e11c8cc384aa694ad9370ec1905da88364736f6c634300080d0033",
  "immutableReferences": {},
  "source": "//SPDX-License-Identifier: MIT\npragma solidity ^0.8.0;\n\nimport \"../node_modules/@openzeppelin/contracts/token/ERC721/IERC721Receiver.sol\";\nimport \"../node_modules/@openzeppelin/contracts/token/ERC721/IERC721.sol\";\n\ncontract Aluno is IERC721Receiver {\n    address public professor;\n    string public nomeAluno;\n    uint public idade;\n    string public ano;\n    string public cidadeNatal;\n    string public estadoNatal;\n\n    event infoAlunoAtualizada(address indexed aluno, string nomeAluno, uint idade, string ano, string cidadeNatal, string estadoNatal);\n\n    constructor(string memory _nomeAluno, uint _idade, string memory _ano, string memory _cidadeNatal, string memory _estadoNatal) {\n        professor = msg.sender;\n        nomeAluno = _nomeAluno;\n        idade = _idade;\n        ano = _ano;\n        cidadeNatal = _cidadeNatal;\n        estadoNatal = _estadoNatal;\n        emit infoAlunoAtualizada(address(this), nomeAluno, idade, ano, cidadeNatal, estadoNatal);\n    }\n\n    modifier onlyProfessor() {\n        require(msg.sender == professor, \"Somente um professor pode atualizar as informacoes do aluno!\");\n        _;\n    }\n\n    function setNomeAluno(string memory nome) public onlyProfessor {\n        nomeAluno = nome;\n        emit infoAlunoAtualizada(address(this), nomeAluno, idade, ano, cidadeNatal, estadoNatal);\n    }\n\n    function setIdade(uint _idade) public onlyProfessor {\n        idade = _idade;\n        emit infoAlunoAtualizada(address(this), nomeAluno, idade, ano, cidadeNatal, estadoNatal);\n    }\n\n    function setAno(string memory _ano) public onlyProfessor {\n        ano = _ano;\n        emit infoAlunoAtualizada(address(this), nomeAluno, idade, ano, cidadeNatal, estadoNatal);\n    }\n\n    function setCidadeNatal(string memory _cidadeNatal) public onlyProfessor {\n        cidadeNatal = _cidadeNatal;\n        emit infoAlunoAtualizada(address(this), nomeAluno, idade, ano, cidadeNatal, estadoNatal);\n    }\n\n    function setEstadoNatal(string memory _estadoNatal) public onlyProfessor {\n        estadoNatal = _estadoNatal;\n        emit infoAlunoAtualizada(address(this), nomeAluno, idade, ano, cidadeNatal, estadoNatal);\n    }\n\n    event TokenRecebido(address indexed aluno, uint256 tokenId);\n\n    function onERC721Received(address operator, address from, uint256 tokenId, bytes calldata data) external override returns (bytes4) {\n        tokenId = tokenId;\n\n        // Emitir um evento para indicar que o token foi recebido e processado\n        emit TokenRecebido(address(this), tokenId);\n\n        return IERC721Receiver.onERC721Received.selector;\n    }\n}",
  "sourcePath": "/home/victorcarvalho/Documents/Github/CPGoiasHackas/protected/blockchain/contracts/Aluno.sol",
  "compiler": {
    "name": "solc",
    "version": "0.8.13+commit.abaa5c0e.Emscripten.clang"
  },
  "schemaVersion": "3.4.14",
  "updatedAt": "2023-06-10T14:30:05.030Z",
  "networkType": "ethereum",
  "devdoc": {
    "kind": "dev",
    "methods": {
      "onERC721Received(address,address,uint256,bytes)": {
        "details": "Whenever an {IERC721} `tokenId` token is transferred to this contract via {IERC721-safeTransferFrom} by `operator` from `from`, this function is called. It must return its Solidity selector to confirm the token transfer. If any other value is returned or the interface is not implemented by the recipient, the transfer will be reverted. The selector can be obtained in Solidity with `IERC721Receiver.onERC721Received.selector`."
      }
    },
    "version": 1
  },
  "userdoc": {
    "kind": "user",
    "methods": {},
    "version": 1
  }
}