{
  "contractName": "EpisodioTraumatico",
  "abi": [
    {
      "inputs": [],
      "stateMutability": "nonpayable",
      "type": "constructor"
    },
    {
      "anonymous": false,
      "inputs": [
        {
          "indexed": true,
          "internalType": "address",
          "name": "owner",
          "type": "address"
        },
        {
          "indexed": true,
          "internalType": "address",
          "name": "approved",
          "type": "address"
        },
        {
          "indexed": true,
          "internalType": "uint256",
          "name": "tokenId",
          "type": "uint256"
        }
      ],
      "name": "Approval",
      "type": "event"
    },
    {
      "anonymous": false,
      "inputs": [
        {
          "indexed": true,
          "internalType": "address",
          "name": "owner",
          "type": "address"
        },
        {
          "indexed": true,
          "internalType": "address",
          "name": "operator",
          "type": "address"
        },
        {
          "indexed": false,
          "internalType": "bool",
          "name": "approved",
          "type": "bool"
        }
      ],
      "name": "ApprovalForAll",
      "type": "event"
    },
    {
      "anonymous": false,
      "inputs": [
        {
          "indexed": false,
          "internalType": "uint256",
          "name": "_fromTokenId",
          "type": "uint256"
        },
        {
          "indexed": false,
          "internalType": "uint256",
          "name": "_toTokenId",
          "type": "uint256"
        }
      ],
      "name": "BatchMetadataUpdate",
      "type": "event"
    },
    {
      "anonymous": false,
      "inputs": [
        {
          "indexed": false,
          "internalType": "uint256",
          "name": "_tokenId",
          "type": "uint256"
        }
      ],
      "name": "MetadataUpdate",
      "type": "event"
    },
    {
      "anonymous": false,
      "inputs": [
        {
          "indexed": false,
          "internalType": "address",
          "name": "account",
          "type": "address"
        }
      ],
      "name": "Paused",
      "type": "event"
    },
    {
      "anonymous": false,
      "inputs": [
        {
          "indexed": true,
          "internalType": "bytes32",
          "name": "role",
          "type": "bytes32"
        },
        {
          "indexed": true,
          "internalType": "bytes32",
          "name": "previousAdminRole",
          "type": "bytes32"
        },
        {
          "indexed": true,
          "internalType": "bytes32",
          "name": "newAdminRole",
          "type": "bytes32"
        }
      ],
      "name": "RoleAdminChanged",
      "type": "event"
    },
    {
      "anonymous": false,
      "inputs": [
        {
          "indexed": true,
          "internalType": "bytes32",
          "name": "role",
          "type": "bytes32"
        },
        {
          "indexed": true,
          "internalType": "address",
          "name": "account",
          "type": "address"
        },
        {
          "indexed": true,
          "internalType": "address",
          "name": "sender",
          "type": "address"
        }
      ],
      "name": "RoleGranted",
      "type": "event"
    },
    {
      "anonymous": false,
      "inputs": [
        {
          "indexed": true,
          "internalType": "bytes32",
          "name": "role",
          "type": "bytes32"
        },
        {
          "indexed": true,
          "internalType": "address",
          "name": "account",
          "type": "address"
        },
        {
          "indexed": true,
          "internalType": "address",
          "name": "sender",
          "type": "address"
        }
      ],
      "name": "RoleRevoked",
      "type": "event"
    },
    {
      "anonymous": false,
      "inputs": [
        {
          "indexed": true,
          "internalType": "address",
          "name": "from",
          "type": "address"
        },
        {
          "indexed": true,
          "internalType": "address",
          "name": "to",
          "type": "address"
        },
        {
          "indexed": true,
          "internalType": "uint256",
          "name": "tokenId",
          "type": "uint256"
        }
      ],
      "name": "Transfer",
      "type": "event"
    },
    {
      "anonymous": false,
      "inputs": [
        {
          "indexed": false,
          "internalType": "address",
          "name": "account",
          "type": "address"
        }
      ],
      "name": "Unpaused",
      "type": "event"
    },
    {
      "inputs": [],
      "name": "DEFAULT_ADMIN_ROLE",
      "outputs": [
        {
          "internalType": "bytes32",
          "name": "",
          "type": "bytes32"
        }
      ],
      "stateMutability": "view",
      "type": "function",
      "constant": true
    },
    {
      "inputs": [],
      "name": "MINTER_ROLE",
      "outputs": [
        {
          "internalType": "bytes32",
          "name": "",
          "type": "bytes32"
        }
      ],
      "stateMutability": "view",
      "type": "function",
      "constant": true
    },
    {
      "inputs": [],
      "name": "PAUSER_ROLE",
      "outputs": [
        {
          "internalType": "bytes32",
          "name": "",
          "type": "bytes32"
        }
      ],
      "stateMutability": "view",
      "type": "function",
      "constant": true
    },
    {
      "inputs": [
        {
          "internalType": "address",
          "name": "to",
          "type": "address"
        },
        {
          "internalType": "uint256",
          "name": "tokenId",
          "type": "uint256"
        }
      ],
      "name": "approve",
      "outputs": [],
      "stateMutability": "nonpayable",
      "type": "function"
    },
    {
      "inputs": [
        {
          "internalType": "address",
          "name": "owner",
          "type": "address"
        }
      ],
      "name": "balanceOf",
      "outputs": [
        {
          "internalType": "uint256",
          "name": "",
          "type": "uint256"
        }
      ],
      "stateMutability": "view",
      "type": "function",
      "constant": true
    },
    {
      "inputs": [
        {
          "internalType": "uint256",
          "name": "tokenId",
          "type": "uint256"
        }
      ],
      "name": "burn",
      "outputs": [],
      "stateMutability": "nonpayable",
      "type": "function"
    },
    {
      "inputs": [
        {
          "internalType": "uint256",
          "name": "tokenId",
          "type": "uint256"
        }
      ],
      "name": "getApproved",
      "outputs": [
        {
          "internalType": "address",
          "name": "",
          "type": "address"
        }
      ],
      "stateMutability": "view",
      "type": "function",
      "constant": true
    },
    {
      "inputs": [
        {
          "internalType": "bytes32",
          "name": "role",
          "type": "bytes32"
        }
      ],
      "name": "getRoleAdmin",
      "outputs": [
        {
          "internalType": "bytes32",
          "name": "",
          "type": "bytes32"
        }
      ],
      "stateMutability": "view",
      "type": "function",
      "constant": true
    },
    {
      "inputs": [
        {
          "internalType": "bytes32",
          "name": "role",
          "type": "bytes32"
        },
        {
          "internalType": "address",
          "name": "account",
          "type": "address"
        }
      ],
      "name": "grantRole",
      "outputs": [],
      "stateMutability": "nonpayable",
      "type": "function"
    },
    {
      "inputs": [
        {
          "internalType": "bytes32",
          "name": "role",
          "type": "bytes32"
        },
        {
          "internalType": "address",
          "name": "account",
          "type": "address"
        }
      ],
      "name": "hasRole",
      "outputs": [
        {
          "internalType": "bool",
          "name": "",
          "type": "bool"
        }
      ],
      "stateMutability": "view",
      "type": "function",
      "constant": true
    },
    {
      "inputs": [
        {
          "internalType": "address",
          "name": "owner",
          "type": "address"
        },
        {
          "internalType": "address",
          "name": "operator",
          "type": "address"
        }
      ],
      "name": "isApprovedForAll",
      "outputs": [
        {
          "internalType": "bool",
          "name": "",
          "type": "bool"
        }
      ],
      "stateMutability": "view",
      "type": "function",
      "constant": true
    },
    {
      "inputs": [],
      "name": "name",
      "outputs": [
        {
          "internalType": "string",
          "name": "",
          "type": "string"
        }
      ],
      "stateMutability": "view",
      "type": "function",
      "constant": true
    },
    {
      "inputs": [
        {
          "internalType": "uint256",
          "name": "tokenId",
          "type": "uint256"
        }
      ],
      "name": "ownerOf",
      "outputs": [
        {
          "internalType": "address",
          "name": "",
          "type": "address"
        }
      ],
      "stateMutability": "view",
      "type": "function",
      "constant": true
    },
    {
      "inputs": [],
      "name": "paused",
      "outputs": [
        {
          "internalType": "bool",
          "name": "",
          "type": "bool"
        }
      ],
      "stateMutability": "view",
      "type": "function",
      "constant": true
    },
    {
      "inputs": [
        {
          "internalType": "bytes32",
          "name": "role",
          "type": "bytes32"
        },
        {
          "internalType": "address",
          "name": "account",
          "type": "address"
        }
      ],
      "name": "renounceRole",
      "outputs": [],
      "stateMutability": "nonpayable",
      "type": "function"
    },
    {
      "inputs": [
        {
          "internalType": "bytes32",
          "name": "role",
          "type": "bytes32"
        },
        {
          "internalType": "address",
          "name": "account",
          "type": "address"
        }
      ],
      "name": "revokeRole",
      "outputs": [],
      "stateMutability": "nonpayable",
      "type": "function"
    },
    {
      "inputs": [
        {
          "internalType": "address",
          "name": "from",
          "type": "address"
        },
        {
          "internalType": "address",
          "name": "to",
          "type": "address"
        },
        {
          "internalType": "uint256",
          "name": "tokenId",
          "type": "uint256"
        }
      ],
      "name": "safeTransferFrom",
      "outputs": [],
      "stateMutability": "nonpayable",
      "type": "function"
    },
    {
      "inputs": [
        {
          "internalType": "address",
          "name": "from",
          "type": "address"
        },
        {
          "internalType": "address",
          "name": "to",
          "type": "address"
        },
        {
          "internalType": "uint256",
          "name": "tokenId",
          "type": "uint256"
        },
        {
          "internalType": "bytes",
          "name": "data",
          "type": "bytes"
        }
      ],
      "name": "safeTransferFrom",
      "outputs": [],
      "stateMutability": "nonpayable",
      "type": "function"
    },
    {
      "inputs": [
        {
          "internalType": "address",
          "name": "operator",
          "type": "address"
        },
        {
          "internalType": "bool",
          "name": "approved",
          "type": "bool"
        }
      ],
      "name": "setApprovalForAll",
      "outputs": [],
      "stateMutability": "nonpayable",
      "type": "function"
    },
    {
      "inputs": [],
      "name": "symbol",
      "outputs": [
        {
          "internalType": "string",
          "name": "",
          "type": "string"
        }
      ],
      "stateMutability": "view",
      "type": "function",
      "constant": true
    },
    {
      "inputs": [
        {
          "internalType": "uint256",
          "name": "index",
          "type": "uint256"
        }
      ],
      "name": "tokenByIndex",
      "outputs": [
        {
          "internalType": "uint256",
          "name": "",
          "type": "uint256"
        }
      ],
      "stateMutability": "view",
      "type": "function",
      "constant": true
    },
    {
      "inputs": [
        {
          "internalType": "address",
          "name": "owner",
          "type": "address"
        },
        {
          "internalType": "uint256",
          "name": "index",
          "type": "uint256"
        }
      ],
      "name": "tokenOfOwnerByIndex",
      "outputs": [
        {
          "internalType": "uint256",
          "name": "",
          "type": "uint256"
        }
      ],
      "stateMutability": "view",
      "type": "function",
      "constant": true
    },
    {
      "inputs": [],
      "name": "totalSupply",
      "outputs": [
        {
          "internalType": "uint256",
          "name": "",
          "type": "uint256"
        }
      ],
      "stateMutability": "view",
      "type": "function",
      "constant": true
    },
    {
      "inputs": [
        {
          "internalType": "address",
          "name": "from",
          "type": "address"
        },
        {
          "internalType": "address",
          "name": "to",
          "type": "address"
        },
        {
          "internalType": "uint256",
          "name": "tokenId",
          "type": "uint256"
        }
      ],
      "name": "transferFrom",
      "outputs": [],
      "stateMutability": "nonpayable",
      "type": "function"
    },
    {
      "inputs": [],
      "name": "pause",
      "outputs": [],
      "stateMutability": "nonpayable",
      "type": "function"
    },
    {
      "inputs": [],
      "name": "unpause",
      "outputs": [],
      "stateMutability": "nonpayable",
      "type": "function"
    },
    {
      "inputs": [
        {
          "internalType": "address",
          "name": "to",
          "type": "address"
        },
        {
          "internalType": "string",
          "name": "uri",
          "type": "string"
        }
      ],
      "name": "safeMint",
      "outputs": [],
      "stateMutability": "nonpayable",
      "type": "function"
    },
    {
      "inputs": [
        {
          "internalType": "uint256",
          "name": "tokenId",
          "type": "uint256"
        }
      ],
      "name": "tokenURI",
      "outputs": [
        {
          "internalType": "string",
          "name": "",
          "type": "string"
        }
      ],
      "stateMutability": "view",
      "type": "function",
      "constant": true
    },
    {
      "inputs": [
        {
          "internalType": "bytes4",
          "name": "interfaceId",
          "type": "bytes4"
        }
      ],
      "name": "supportsInterface",
      "outputs": [
        {
          "internalType": "bool",
          "name": "",
          "type": "bool"
        }
      ],
      "stateMutability": "view",
      "type": "function",
      "constant": true
    }
  ],
  "bytecode": "0x608060405234801562000010575f80fd5b506040518060400160405280601381526020017f457069736f64696f20547261756d617469636f000000000000000000000000008152506040518060400160405280600681526020017f547261756d610000000000000000000000000000000000000000000000000000815250815f90816200008d9190620004f4565b5080600190816200009f9190620004f4565b5050505f60075f6101000a81548160ff021916908315150217905550620000cf5f801b336200013960201b60201c565b620001017f65d7a28e3265b37a6474929f336521b332c1681b933f6cb9f3376673440d862a336200013960201b60201c565b620001337f9f2df0fed2c77648de5860a4cc508cd0818c85b8b8a1ab4ceeef8d981c8956a6336200013960201b60201c565b620005d8565b6200014b82826200022560201b60201c565b6200022157600160085f8481526020019081526020015f205f015f8373ffffffffffffffffffffffffffffffffffffffff1673ffffffffffffffffffffffffffffffffffffffff1681526020019081526020015f205f6101000a81548160ff021916908315150217905550620001c66200028960201b60201c565b73ffffffffffffffffffffffffffffffffffffffff168173ffffffffffffffffffffffffffffffffffffffff16837f2f8788117e7eff1d82e926ec794901d17c78024a50270940304540a733656f0d60405160405180910390a45b5050565b5f60085f8481526020019081526020015f205f015f8373ffffffffffffffffffffffffffffffffffffffff1673ffffffffffffffffffffffffffffffffffffffff1681526020019081526020015f205f9054906101000a900460ff16905092915050565b5f33905090565b5f81519050919050565b7f4e487b71000000000000000000000000000000000000000000000000000000005f52604160045260245ffd5b7f4e487b71000000000000000000000000000000000000000000000000000000005f52602260045260245ffd5b5f60028204905060018216806200030c57607f821691505b602082108103620003225762000321620002c7565b5b50919050565b5f819050815f5260205f209050919050565b5f6020601f8301049050919050565b5f82821b905092915050565b5f60088302620003867fffffffffffffffffffffffffffffffffffffffffffffffffffffffffffffffff8262000349565b62000392868362000349565b95508019841693508086168417925050509392505050565b5f819050919050565b5f819050919050565b5f620003dc620003d6620003d084620003aa565b620003b3565b620003aa565b9050919050565b5f819050919050565b620003f783620003bc565b6200040f6200040682620003e3565b84845462000355565b825550505050565b5f90565b6200042562000417565b62000432818484620003ec565b505050565b5b8181101562000459576200044d5f826200041b565b60018101905062000438565b5050565b601f821115620004a857620004728162000328565b6200047d846200033a565b810160208510156200048d578190505b620004a56200049c856200033a565b83018262000437565b50505b505050565b5f82821c905092915050565b5f620004ca5f1984600802620004ad565b1980831691505092915050565b5f620004e48383620004b9565b9150826002028217905092915050565b620004ff8262000290565b67ffffffffffffffff8111156200051b576200051a6200029a565b5b620005278254620002f4565b620005348282856200045d565b5f60209050601f8311600181146200056a575f841562000555578287015190505b620005618582620004d7565b865550620005d0565b601f1984166200057a8662000328565b5f5b82811015620005a3578489015182556001820191506020850194506020810190506200057c565b86831015620005c35784890151620005bf601f891682620004b9565b8355505b6001600288020188555050505b505050505050565b6144f480620005e65f395ff3fe608060405234801561000f575f80fd5b50600436106101cd575f3560e01c80635c975abb11610102578063a22cb465116100a0578063d53913931161006f578063d539139314610527578063d547741f14610545578063e63ab1e914610561578063e985e9c51461057f576101cd565b8063a22cb465146104a3578063b88d4fde146104bf578063c87b56dd146104db578063d204c45e1461050b576101cd565b80638456cb59116100dc5780638456cb591461042d57806391d148541461043757806395d89b4114610467578063a217fddf14610485576101cd565b80635c975abb146103af5780636352211e146103cd57806370a08231146103fd576101cd565b80632f2ff15d1161016f5780633f4ba83a116101495780633f4ba83a1461033d57806342842e0e1461034757806342966c68146103635780634f6ccce71461037f576101cd565b80632f2ff15d146102d55780632f745c59146102f157806336568abe14610321576101cd565b8063095ea7b3116101ab578063095ea7b31461024f57806318160ddd1461026b57806323b872dd14610289578063248a9ca3146102a5576101cd565b806301ffc9a7146101d157806306fdde0314610201578063081812fc1461021f575b5f80fd5b6101eb60048036038101906101e69190612d95565b6105af565b6040516101f89190612dda565b60405180910390f35b6102096105c0565b6040516102169190612e7d565b60405180910390f35b61023960048036038101906102349190612ed0565b61064f565b6040516102469190612f3a565b60405180910390f35b61026960048036038101906102649190612f7d565b610691565b005b6102736107a7565b6040516102809190612fca565b60405180910390f35b6102a3600480360381019061029e9190612fe3565b6107b3565b005b6102bf60048036038101906102ba9190613066565b610813565b6040516102cc91906130a0565b60405180910390f35b6102ef60048036038101906102ea91906130b9565b610830565b005b61030b60048036038101906103069190612f7d565b610851565b6040516103189190612fca565b60405180910390f35b61033b600480360381019061033691906130b9565b6108f1565b005b610345610974565b005b610361600480360381019061035c9190612fe3565b6109a9565b005b61037d60048036038101906103789190612ed0565b6109c8565b005b61039960048036038101906103949190612ed0565b610a24565b6040516103a69190612fca565b60405180910390f35b6103b7610a92565b6040516103c49190612dda565b60405180910390f35b6103e760048036038101906103e29190612ed0565b610aa7565b6040516103f49190612f3a565b60405180910390f35b610417600480360381019061041291906130f7565b610b2b565b6040516104249190612fca565b60405180910390f35b610435610bdf565b005b610451600480360381019061044c91906130b9565b610c14565b60405161045e9190612dda565b60405180910390f35b61046f610c78565b60405161047c9190612e7d565b60405180910390f35b61048d610d08565b60405161049a91906130a0565b60405180910390f35b6104bd60048036038101906104b8919061314c565b610d0e565b005b6104d960048036038101906104d491906132b6565b610d24565b005b6104f560048036038101906104f09190612ed0565b610d86565b6040516105029190612e7d565b60405180910390f35b610525600480360381019061052091906133d4565b610d98565b005b61052f610df3565b60405161053c91906130a0565b60405180910390f35b61055f600480360381019061055a91906130b9565b610e17565b005b610569610e38565b60405161057691906130a0565b60405180910390f35b6105996004803603810190610594919061342e565b610e5c565b6040516105a69190612dda565b60405180910390f35b5f6105b982610eea565b9050919050565b60605f80546105ce90613499565b80601f01602080910402602001604051908101604052809291908181526020018280546105fa90613499565b80156106455780601f1061061c57610100808354040283529160200191610645565b820191905f5260205f20905b81548152906001019060200180831161062857829003601f168201915b5050505050905090565b5f61065982610f63565b60045f8381526020019081526020015f205f9054906101000a900473ffffffffffffffffffffffffffffffffffffffff169050919050565b5f61069b82610aa7565b90508073ffffffffffffffffffffffffffffffffffffffff168373ffffffffffffffffffffffffffffffffffffffff160361070b576040517f08c379a000000000000000000000000000000000000000000000000000000000815260040161070290613539565b60405180910390fd5b8073ffffffffffffffffffffffffffffffffffffffff1661072a610fae565b73ffffffffffffffffffffffffffffffffffffffff161480610759575061075881610753610fae565b610e5c565b5b610798576040517f08c379a000000000000000000000000000000000000000000000000000000000815260040161078f906135c7565b60405180910390fd5b6107a28383610fb5565b505050565b5f600b80549050905090565b6107c46107be610fae565b8261106b565b610803576040517f08c379a00000000000000000000000000000000000000000000000000000000081526004016107fa90613655565b60405180910390fd5b61080e8383836110ff565b505050565b5f60085f8381526020019081526020015f20600101549050919050565b61083982610813565b610842816113eb565b61084c83836113ff565b505050565b5f61085b83610b2b565b821061089c576040517f08c379a0000000000000000000000000000000000000000000000000000000008152600401610893906136e3565b60405180910390fd5b60095f8473ffffffffffffffffffffffffffffffffffffffff1673ffffffffffffffffffffffffffffffffffffffff1681526020019081526020015f205f8381526020019081526020015f2054905092915050565b6108f9610fae565b73ffffffffffffffffffffffffffffffffffffffff168173ffffffffffffffffffffffffffffffffffffffff1614610966576040517f08c379a000000000000000000000000000000000000000000000000000000000815260040161095d90613771565b60405180910390fd5b61097082826114da565b5050565b7f65d7a28e3265b37a6474929f336521b332c1681b933f6cb9f3376673440d862a61099e816113eb565b6109a66115b5565b50565b6109c383838360405180602001604052805f815250610d24565b505050565b6109d96109d3610fae565b8261106b565b610a18576040517f08c379a0000000000000000000000000000000000000000000000000000000008152600401610a0f90613655565b60405180910390fd5b610a2181611616565b50565b5f610a2d6107a7565b8210610a6e576040517f08c379a0000000000000000000000000000000000000000000000000000000008152600401610a65906137ff565b60405180910390fd5b600b8281548110610a8257610a8161381d565b5b905f5260205f2001549050919050565b5f60075f9054906101000a900460ff16905090565b5f80610ab283611622565b90505f73ffffffffffffffffffffffffffffffffffffffff168173ffffffffffffffffffffffffffffffffffffffff1603610b22576040517f08c379a0000000000000000000000000000000000000000000000000000000008152600401610b1990613894565b60405180910390fd5b80915050919050565b5f8073ffffffffffffffffffffffffffffffffffffffff168273ffffffffffffffffffffffffffffffffffffffff1603610b9a576040517f08c379a0000000000000000000000000000000000000000000000000000000008152600401610b9190613922565b60405180910390fd5b60035f8373ffffffffffffffffffffffffffffffffffffffff1673ffffffffffffffffffffffffffffffffffffffff1681526020019081526020015f20549050919050565b7f65d7a28e3265b37a6474929f336521b332c1681b933f6cb9f3376673440d862a610c09816113eb565b610c1161165b565b50565b5f60085f8481526020019081526020015f205f015f8373ffffffffffffffffffffffffffffffffffffffff1673ffffffffffffffffffffffffffffffffffffffff1681526020019081526020015f205f9054906101000a900460ff16905092915050565b606060018054610c8790613499565b80601f0160208091040260200160405190810160405280929190818152602001828054610cb390613499565b8015610cfe5780601f10610cd557610100808354040283529160200191610cfe565b820191905f5260205f20905b815481529060010190602001808311610ce157829003601f168201915b5050505050905090565b5f801b81565b610d20610d19610fae565b83836116bd565b5050565b610d35610d2f610fae565b8361106b565b610d74576040517f08c379a0000000000000000000000000000000000000000000000000000000008152600401610d6b90613655565b60405180910390fd5b610d8084848484611824565b50505050565b6060610d9182611880565b9050919050565b7f9f2df0fed2c77648de5860a4cc508cd0818c85b8b8a1ab4ceeef8d981c8956a6610dc2816113eb565b5f610dcd600d61198a565b9050610dd9600d611996565b610de384826119aa565b610ded81846119c7565b50505050565b7f9f2df0fed2c77648de5860a4cc508cd0818c85b8b8a1ab4ceeef8d981c8956a681565b610e2082610813565b610e29816113eb565b610e3383836114da565b505050565b7f65d7a28e3265b37a6474929f336521b332c1681b933f6cb9f3376673440d862a81565b5f60055f8473ffffffffffffffffffffffffffffffffffffffff1673ffffffffffffffffffffffffffffffffffffffff1681526020019081526020015f205f8373ffffffffffffffffffffffffffffffffffffffff1673ffffffffffffffffffffffffffffffffffffffff1681526020019081526020015f205f9054906101000a900460ff16905092915050565b5f7f780e9d63000000000000000000000000000000000000000000000000000000007bffffffffffffffffffffffffffffffffffffffffffffffffffffffff1916827bffffffffffffffffffffffffffffffffffffffffffffffffffffffff19161480610f5c5750610f5b82611a69565b5b9050919050565b610f6c81611ae2565b610fab576040517f08c379a0000000000000000000000000000000000000000000000000000000008152600401610fa290613894565b60405180910390fd5b50565b5f33905090565b8160045f8381526020019081526020015f205f6101000a81548173ffffffffffffffffffffffffffffffffffffffff021916908373ffffffffffffffffffffffffffffffffffffffff160217905550808273ffffffffffffffffffffffffffffffffffffffff1661102583610aa7565b73ffffffffffffffffffffffffffffffffffffffff167f8c5be1e5ebec7d5bd14f71427d1e84f3dd0314c0f7b2291e5b200ac8c7c3b92560405160405180910390a45050565b5f8061107683610aa7565b90508073ffffffffffffffffffffffffffffffffffffffff168473ffffffffffffffffffffffffffffffffffffffff1614806110b857506110b78185610e5c565b5b806110f657508373ffffffffffffffffffffffffffffffffffffffff166110de8461064f565b73ffffffffffffffffffffffffffffffffffffffff16145b91505092915050565b8273ffffffffffffffffffffffffffffffffffffffff1661111f82610aa7565b73ffffffffffffffffffffffffffffffffffffffff1614611175576040517f08c379a000000000000000000000000000000000000000000000000000000000815260040161116c906139b0565b60405180910390fd5b5f73ffffffffffffffffffffffffffffffffffffffff168273ffffffffffffffffffffffffffffffffffffffff16036111e3576040517f08c379a00000000000000000000000000000000000000000000000000000000081526004016111da90613a3e565b60405180910390fd5b6111f08383836001611b22565b8273ffffffffffffffffffffffffffffffffffffffff1661121082610aa7565b73ffffffffffffffffffffffffffffffffffffffff1614611266576040517f08c379a000000000000000000000000000000000000000000000000000000000815260040161125d906139b0565b60405180910390fd5b60045f8281526020019081526020015f205f6101000a81549073ffffffffffffffffffffffffffffffffffffffff0219169055600160035f8573ffffffffffffffffffffffffffffffffffffffff1673ffffffffffffffffffffffffffffffffffffffff1681526020019081526020015f205f8282540392505081905550600160035f8473ffffffffffffffffffffffffffffffffffffffff1673ffffffffffffffffffffffffffffffffffffffff1681526020019081526020015f205f82825401925050819055508160025f8381526020019081526020015f205f6101000a81548173ffffffffffffffffffffffffffffffffffffffff021916908373ffffffffffffffffffffffffffffffffffffffff160217905550808273ffffffffffffffffffffffffffffffffffffffff168473ffffffffffffffffffffffffffffffffffffffff167fddf252ad1be2c89b69c2b068fc378daa952ba7f163c4a11628f55a4df523b3ef60405160405180910390a46113e68383836001611b3c565b505050565b6113fc816113f7610fae565b611b42565b50565b6114098282610c14565b6114d657600160085f8481526020019081526020015f205f015f8373ffffffffffffffffffffffffffffffffffffffff1673ffffffffffffffffffffffffffffffffffffffff1681526020019081526020015f205f6101000a81548160ff02191690831515021790555061147b610fae565b73ffffffffffffffffffffffffffffffffffffffff168173ffffffffffffffffffffffffffffffffffffffff16837f2f8788117e7eff1d82e926ec794901d17c78024a50270940304540a733656f0d60405160405180910390a45b5050565b6114e48282610c14565b156115b1575f60085f8481526020019081526020015f205f015f8373ffffffffffffffffffffffffffffffffffffffff1673ffffffffffffffffffffffffffffffffffffffff1681526020019081526020015f205f6101000a81548160ff021916908315150217905550611556610fae565b73ffffffffffffffffffffffffffffffffffffffff168173ffffffffffffffffffffffffffffffffffffffff16837ff6391f5c32d9c69d2a47ea670b442974b53935d1edc7fd64eb21e047a839171b60405160405180910390a45b5050565b6115bd611bc6565b5f60075f6101000a81548160ff0219169083151502179055507f5db9ee0a495bf2e6ff9c91a7834c1ba4fdd244a5e8aa4e537bd38aeae4b073aa6115ff610fae565b60405161160c9190612f3a565b60405180910390a1565b61161f81611c0f565b50565b5f60025f8381526020019081526020015f205f9054906101000a900473ffffffffffffffffffffffffffffffffffffffff169050919050565b611663611c5c565b600160075f6101000a81548160ff0219169083151502179055507f62e78cea01bee320cd4e420270b5ea74000d11b0c9f74754ebdbfc544b05a2586116a6610fae565b6040516116b39190612f3a565b60405180910390a1565b8173ffffffffffffffffffffffffffffffffffffffff168373ffffffffffffffffffffffffffffffffffffffff160361172b576040517f08c379a000000000000000000000000000000000000000000000000000000000815260040161172290613aa6565b60405180910390fd5b8060055f8573ffffffffffffffffffffffffffffffffffffffff1673ffffffffffffffffffffffffffffffffffffffff1681526020019081526020015f205f8473ffffffffffffffffffffffffffffffffffffffff1673ffffffffffffffffffffffffffffffffffffffff1681526020019081526020015f205f6101000a81548160ff0219169083151502179055508173ffffffffffffffffffffffffffffffffffffffff168373ffffffffffffffffffffffffffffffffffffffff167f17307eab39ab6107e8899845ad3d59bd9653f200f220920489ca2b5937696c31836040516118179190612dda565b60405180910390a3505050565b61182f8484846110ff565b61183b84848484611ca6565b61187a576040517f08c379a000000000000000000000000000000000000000000000000000000000815260040161187190613b34565b60405180910390fd5b50505050565b606061188b82610f63565b5f60065f8481526020019081526020015f2080546118a890613499565b80601f01602080910402602001604051908101604052809291908181526020018280546118d490613499565b801561191f5780601f106118f65761010080835404028352916020019161191f565b820191905f5260205f20905b81548152906001019060200180831161190257829003601f168201915b505050505090505f61192f611e28565b90505f815103611943578192505050611985565b5f8251111561197757808260405160200161195f929190613b8c565b60405160208183030381529060405292505050611985565b61198084611e48565b925050505b919050565b5f815f01549050919050565b6001815f015f828254019250508190555050565b6119c3828260405180602001604052805f815250611ead565b5050565b6119d082611ae2565b611a0f576040517f08c379a0000000000000000000000000000000000000000000000000000000008152600401611a0690613c1f565b60405180910390fd5b8060065f8481526020019081526020015f209081611a2d9190613dda565b507ff8e1a15aba9398e019f0b49df1a4fde98ee17ae345cb5f6b5e2c27f5033e8ce782604051611a5d9190612fca565b60405180910390a15050565b5f7f7965db0b000000000000000000000000000000000000000000000000000000007bffffffffffffffffffffffffffffffffffffffffffffffffffffffff1916827bffffffffffffffffffffffffffffffffffffffffffffffffffffffff19161480611adb5750611ada82611f07565b5b9050919050565b5f8073ffffffffffffffffffffffffffffffffffffffff16611b0383611622565b73ffffffffffffffffffffffffffffffffffffffff1614159050919050565b611b2a611c5c565b611b3684848484611f67565b50505050565b50505050565b611b4c8282610c14565b611bc257611b59816120c2565b611b66835f1c60206120ef565b604051602001611b77929190613f3d565b6040516020818303038152906040526040517f08c379a0000000000000000000000000000000000000000000000000000000008152600401611bb99190612e7d565b60405180910390fd5b5050565b611bce610a92565b611c0d576040517f08c379a0000000000000000000000000000000000000000000000000000000008152600401611c0490613fc0565b60405180910390fd5b565b611c1881612324565b5f60065f8381526020019081526020015f208054611c3590613499565b905014611c595760065f8281526020019081526020015f205f611c589190612cd7565b5b50565b611c64610a92565b15611ca4576040517f08c379a0000000000000000000000000000000000000000000000000000000008152600401611c9b90614028565b60405180910390fd5b565b5f611cc68473ffffffffffffffffffffffffffffffffffffffff16612465565b15611e1b578373ffffffffffffffffffffffffffffffffffffffff1663150b7a02611cef610fae565b8786866040518563ffffffff1660e01b8152600401611d119493929190614098565b6020604051808303815f875af1925050508015611d4c57506040513d601f19601f82011682018060405250810190611d4991906140f6565b60015b611dcb573d805f8114611d7a576040519150601f19603f3d011682016040523d82523d5f602084013e611d7f565b606091505b505f815103611dc3576040517f08c379a0000000000000000000000000000000000000000000000000000000008152600401611dba90613b34565b60405180910390fd5b805181602001fd5b63150b7a0260e01b7bffffffffffffffffffffffffffffffffffffffffffffffffffffffff1916817bffffffffffffffffffffffffffffffffffffffffffffffffffffffff191614915050611e20565b600190505b949350505050565b60606040518060c001604052806082815260200161443d60829139905090565b6060611e5382610f63565b5f611e5c611e28565b90505f815111611e7a5760405180602001604052805f815250611ea5565b80611e8484612487565b604051602001611e95929190613b8c565b6040516020818303038152906040525b915050919050565b611eb78383612551565b611ec35f848484611ca6565b611f02576040517f08c379a0000000000000000000000000000000000000000000000000000000008152600401611ef990613b34565b60405180910390fd5b505050565b5f634906490660e01b7bffffffffffffffffffffffffffffffffffffffffffffffffffffffff1916827bffffffffffffffffffffffffffffffffffffffffffffffffffffffff19161480611f605750611f5f82612764565b5b9050919050565b611f7384848484612845565b6001811115611fb7576040517f08c379a0000000000000000000000000000000000000000000000000000000008152600401611fae90614191565b60405180910390fd5b5f8290505f73ffffffffffffffffffffffffffffffffffffffff168573ffffffffffffffffffffffffffffffffffffffff1603611ffc57611ff78161284b565b61203b565b8373ffffffffffffffffffffffffffffffffffffffff168573ffffffffffffffffffffffffffffffffffffffff161461203a57612039858261288f565b5b5b5f73ffffffffffffffffffffffffffffffffffffffff168473ffffffffffffffffffffffffffffffffffffffff160361207c57612077816129e5565b6120bb565b8473ffffffffffffffffffffffffffffffffffffffff168473ffffffffffffffffffffffffffffffffffffffff16146120ba576120b98482612aa5565b5b5b5050505050565b60606120e88273ffffffffffffffffffffffffffffffffffffffff16601460ff166120ef565b9050919050565b60605f600283600261210191906141dc565b61210b919061421d565b67ffffffffffffffff81111561212457612123613192565b5b6040519080825280601f01601f1916602001820160405280156121565781602001600182028036833780820191505090505b5090507f3000000000000000000000000000000000000000000000000000000000000000815f8151811061218d5761218c61381d565b5b60200101907effffffffffffffffffffffffffffffffffffffffffffffffffffffffffffff191690815f1a9053507f7800000000000000000000000000000000000000000000000000000000000000816001815181106121f0576121ef61381d565b5b60200101907effffffffffffffffffffffffffffffffffffffffffffffffffffffffffffff191690815f1a9053505f600184600261222e91906141dc565b612238919061421d565b90505b60018111156122d7577f3031323334353637383961626364656600000000000000000000000000000000600f86166010811061227a5761227961381d565b5b1a60f81b8282815181106122915761229061381d565b5b60200101907effffffffffffffffffffffffffffffffffffffffffffffffffffffffffffff191690815f1a905350600485901c9450806122d090614250565b905061223b565b505f841461231a576040517f08c379a0000000000000000000000000000000000000000000000000000000008152600401612311906142c1565b60405180910390fd5b8091505092915050565b5f61232e82610aa7565b905061233d815f846001611b22565b61234682610aa7565b905060045f8381526020019081526020015f205f6101000a81549073ffffffffffffffffffffffffffffffffffffffff0219169055600160035f8373ffffffffffffffffffffffffffffffffffffffff1673ffffffffffffffffffffffffffffffffffffffff1681526020019081526020015f205f828254039250508190555060025f8381526020019081526020015f205f6101000a81549073ffffffffffffffffffffffffffffffffffffffff0219169055815f73ffffffffffffffffffffffffffffffffffffffff168273ffffffffffffffffffffffffffffffffffffffff167fddf252ad1be2c89b69c2b068fc378daa952ba7f163c4a11628f55a4df523b3ef60405160405180910390a4612461815f846001611b3c565b5050565b5f808273ffffffffffffffffffffffffffffffffffffffff163b119050919050565b60605f600161249584612b1d565b0190505f8167ffffffffffffffff8111156124b3576124b2613192565b5b6040519080825280601f01601f1916602001820160405280156124e55781602001600182028036833780820191505090505b5090505f82602001820190505b600115612546578080600190039150507f3031323334353637383961626364656600000000000000000000000000000000600a86061a8153600a858161253b5761253a6142df565b5b0494505f85036124f2575b819350505050919050565b5f73ffffffffffffffffffffffffffffffffffffffff168273ffffffffffffffffffffffffffffffffffffffff16036125bf576040517f08c379a00000000000000000000000000000000000000000000000000000000081526004016125b690614356565b60405180910390fd5b6125c881611ae2565b15612608576040517f08c379a00000000000000000000000000000000000000000000000000000000081526004016125ff906143be565b60405180910390fd5b6126155f83836001611b22565b61261e81611ae2565b1561265e576040517f08c379a0000000000000000000000000000000000000000000000000000000008152600401612655906143be565b60405180910390fd5b600160035f8473ffffffffffffffffffffffffffffffffffffffff1673ffffffffffffffffffffffffffffffffffffffff1681526020019081526020015f205f82825401925050819055508160025f8381526020019081526020015f205f6101000a81548173ffffffffffffffffffffffffffffffffffffffff021916908373ffffffffffffffffffffffffffffffffffffffff160217905550808273ffffffffffffffffffffffffffffffffffffffff165f73ffffffffffffffffffffffffffffffffffffffff167fddf252ad1be2c89b69c2b068fc378daa952ba7f163c4a11628f55a4df523b3ef60405160405180910390a46127605f83836001611b3c565b5050565b5f7f80ac58cd000000000000000000000000000000000000000000000000000000007bffffffffffffffffffffffffffffffffffffffffffffffffffffffff1916827bffffffffffffffffffffffffffffffffffffffffffffffffffffffff1916148061282e57507f5b5e139f000000000000000000000000000000000000000000000000000000007bffffffffffffffffffffffffffffffffffffffffffffffffffffffff1916827bffffffffffffffffffffffffffffffffffffffffffffffffffffffff1916145b8061283e575061283d82612c6e565b5b9050919050565b50505050565b600b80549050600c5f8381526020019081526020015f2081905550600b81908060018154018082558091505060019003905f5260205f20015f909190919091505550565b5f600161289b84610b2b565b6128a591906143dc565b90505f600a5f8481526020019081526020015f2054905081811461297c575f60095f8673ffffffffffffffffffffffffffffffffffffffff1673ffffffffffffffffffffffffffffffffffffffff1681526020019081526020015f205f8481526020019081526020015f205490508060095f8773ffffffffffffffffffffffffffffffffffffffff1673ffffffffffffffffffffffffffffffffffffffff1681526020019081526020015f205f8481526020019081526020015f208190555081600a5f8381526020019081526020015f2081905550505b600a5f8481526020019081526020015f205f905560095f8573ffffffffffffffffffffffffffffffffffffffff1673ffffffffffffffffffffffffffffffffffffffff1681526020019081526020015f205f8381526020019081526020015f205f905550505050565b5f6001600b805490506129f891906143dc565b90505f600c5f8481526020019081526020015f205490505f600b8381548110612a2457612a2361381d565b5b905f5260205f200154905080600b8381548110612a4457612a4361381d565b5b905f5260205f20018190555081600c5f8381526020019081526020015f2081905550600c5f8581526020019081526020015f205f9055600b805480612a8c57612a8b61440f565b5b600190038181905f5260205f20015f9055905550505050565b5f612aaf83610b2b565b90508160095f8573ffffffffffffffffffffffffffffffffffffffff1673ffffffffffffffffffffffffffffffffffffffff1681526020019081526020015f205f8381526020019081526020015f208190555080600a5f8481526020019081526020015f2081905550505050565b5f805f90507a184f03e93ff9f4daa797ed6e38ed64bf6a1f0100000000000000008310612b79577a184f03e93ff9f4daa797ed6e38ed64bf6a1f0100000000000000008381612b6f57612b6e6142df565b5b0492506040810190505b6d04ee2d6d415b85acef81000000008310612bb6576d04ee2d6d415b85acef81000000008381612bac57612bab6142df565b5b0492506020810190505b662386f26fc100008310612be557662386f26fc100008381612bdb57612bda6142df565b5b0492506010810190505b6305f5e1008310612c0e576305f5e1008381612c0457612c036142df565b5b0492506008810190505b6127108310612c33576127108381612c2957612c286142df565b5b0492506004810190505b60648310612c565760648381612c4c57612c4b6142df565b5b0492506002810190505b600a8310612c65576001810190505b80915050919050565b5f7f01ffc9a7000000000000000000000000000000000000000000000000000000007bffffffffffffffffffffffffffffffffffffffffffffffffffffffff1916827bffffffffffffffffffffffffffffffffffffffffffffffffffffffff1916149050919050565b508054612ce390613499565b5f825580601f10612cf45750612d11565b601f0160209004905f5260205f2090810190612d109190612d14565b5b50565b5b80821115612d2b575f815f905550600101612d15565b5090565b5f604051905090565b5f80fd5b5f80fd5b5f7fffffffff0000000000000000000000000000000000000000000000000000000082169050919050565b612d7481612d40565b8114612d7e575f80fd5b50565b5f81359050612d8f81612d6b565b92915050565b5f60208284031215612daa57612da9612d38565b5b5f612db784828501612d81565b91505092915050565b5f8115159050919050565b612dd481612dc0565b82525050565b5f602082019050612ded5f830184612dcb565b92915050565b5f81519050919050565b5f82825260208201905092915050565b5f5b83811015612e2a578082015181840152602081019050612e0f565b5f8484015250505050565b5f601f19601f8301169050919050565b5f612e4f82612df3565b612e598185612dfd565b9350612e69818560208601612e0d565b612e7281612e35565b840191505092915050565b5f6020820190508181035f830152612e958184612e45565b905092915050565b5f819050919050565b612eaf81612e9d565b8114612eb9575f80fd5b50565b5f81359050612eca81612ea6565b92915050565b5f60208284031215612ee557612ee4612d38565b5b5f612ef284828501612ebc565b91505092915050565b5f73ffffffffffffffffffffffffffffffffffffffff82169050919050565b5f612f2482612efb565b9050919050565b612f3481612f1a565b82525050565b5f602082019050612f4d5f830184612f2b565b92915050565b612f5c81612f1a565b8114612f66575f80fd5b50565b5f81359050612f7781612f53565b92915050565b5f8060408385031215612f9357612f92612d38565b5b5f612fa085828601612f69565b9250506020612fb185828601612ebc565b9150509250929050565b612fc481612e9d565b82525050565b5f602082019050612fdd5f830184612fbb565b92915050565b5f805f60608486031215612ffa57612ff9612d38565b5b5f61300786828701612f69565b935050602061301886828701612f69565b925050604061302986828701612ebc565b9150509250925092565b5f819050919050565b61304581613033565b811461304f575f80fd5b50565b5f813590506130608161303c565b92915050565b5f6020828403121561307b5761307a612d38565b5b5f61308884828501613052565b91505092915050565b61309a81613033565b82525050565b5f6020820190506130b35f830184613091565b92915050565b5f80604083850312156130cf576130ce612d38565b5b5f6130dc85828601613052565b92505060206130ed85828601612f69565b9150509250929050565b5f6020828403121561310c5761310b612d38565b5b5f61311984828501612f69565b91505092915050565b61312b81612dc0565b8114613135575f80fd5b50565b5f8135905061314681613122565b92915050565b5f806040838503121561316257613161612d38565b5b5f61316f85828601612f69565b925050602061318085828601613138565b9150509250929050565b5f80fd5b5f80fd5b7f4e487b71000000000000000000000000000000000000000000000000000000005f52604160045260245ffd5b6131c882612e35565b810181811067ffffffffffffffff821117156131e7576131e6613192565b5b80604052505050565b5f6131f9612d2f565b905061320582826131bf565b919050565b5f67ffffffffffffffff82111561322457613223613192565b5b61322d82612e35565b9050602081019050919050565b828183375f83830152505050565b5f61325a6132558461320a565b6131f0565b9050828152602081018484840111156132765761327561318e565b5b61328184828561323a565b509392505050565b5f82601f83011261329d5761329c61318a565b5b81356132ad848260208601613248565b91505092915050565b5f805f80608085870312156132ce576132cd612d38565b5b5f6132db87828801612f69565b94505060206132ec87828801612f69565b93505060406132fd87828801612ebc565b925050606085013567ffffffffffffffff81111561331e5761331d612d3c565b5b61332a87828801613289565b91505092959194509250565b5f67ffffffffffffffff8211156133505761334f613192565b5b61335982612e35565b9050602081019050919050565b5f61337861337384613336565b6131f0565b9050828152602081018484840111156133945761339361318e565b5b61339f84828561323a565b509392505050565b5f82601f8301126133bb576133ba61318a565b5b81356133cb848260208601613366565b91505092915050565b5f80604083850312156133ea576133e9612d38565b5b5f6133f785828601612f69565b925050602083013567ffffffffffffffff81111561341857613417612d3c565b5b613424858286016133a7565b9150509250929050565b5f806040838503121561344457613443612d38565b5b5f61345185828601612f69565b925050602061346285828601612f69565b9150509250929050565b7f4e487b71000000000000000000000000000000000000000000000000000000005f52602260045260245ffd5b5f60028204905060018216806134b057607f821691505b6020821081036134c3576134c261346c565b5b50919050565b7f4552433732313a20617070726f76616c20746f2063757272656e74206f776e655f8201527f7200000000000000000000000000000000000000000000000000000000000000602082015250565b5f613523602183612dfd565b915061352e826134c9565b604082019050919050565b5f6020820190508181035f83015261355081613517565b9050919050565b7f4552433732313a20617070726f76652063616c6c6572206973206e6f7420746f5f8201527f6b656e206f776e6572206f7220617070726f76656420666f7220616c6c000000602082015250565b5f6135b1603d83612dfd565b91506135bc82613557565b604082019050919050565b5f6020820190508181035f8301526135de816135a5565b9050919050565b7f4552433732313a2063616c6c6572206973206e6f7420746f6b656e206f776e655f8201527f72206f7220617070726f76656400000000000000000000000000000000000000602082015250565b5f61363f602d83612dfd565b915061364a826135e5565b604082019050919050565b5f6020820190508181035f83015261366c81613633565b9050919050565b7f455243373231456e756d657261626c653a206f776e657220696e646578206f755f8201527f74206f6620626f756e6473000000000000000000000000000000000000000000602082015250565b5f6136cd602b83612dfd565b91506136d882613673565b604082019050919050565b5f6020820190508181035f8301526136fa816136c1565b9050919050565b7f416363657373436f6e74726f6c3a2063616e206f6e6c792072656e6f756e63655f8201527f20726f6c657320666f722073656c660000000000000000000000000000000000602082015250565b5f61375b602f83612dfd565b915061376682613701565b604082019050919050565b5f6020820190508181035f8301526137888161374f565b9050919050565b7f455243373231456e756d657261626c653a20676c6f62616c20696e646578206f5f8201527f7574206f6620626f756e64730000000000000000000000000000000000000000602082015250565b5f6137e9602c83612dfd565b91506137f48261378f565b604082019050919050565b5f6020820190508181035f830152613816816137dd565b9050919050565b7f4e487b71000000000000000000000000000000000000000000000000000000005f52603260045260245ffd5b7f4552433732313a20696e76616c696420746f6b656e20494400000000000000005f82015250565b5f61387e601883612dfd565b91506138898261384a565b602082019050919050565b5f6020820190508181035f8301526138ab81613872565b9050919050565b7f4552433732313a2061646472657373207a65726f206973206e6f7420612076615f8201527f6c6964206f776e65720000000000000000000000000000000000000000000000602082015250565b5f61390c602983612dfd565b9150613917826138b2565b604082019050919050565b5f6020820190508181035f83015261393981613900565b9050919050565b7f4552433732313a207472616e736665722066726f6d20696e636f7272656374205f8201527f6f776e6572000000000000000000000000000000000000000000000000000000602082015250565b5f61399a602583612dfd565b91506139a582613940565b604082019050919050565b5f6020820190508181035f8301526139c78161398e565b9050919050565b7f4552433732313a207472616e7366657220746f20746865207a65726f206164645f8201527f7265737300000000000000000000000000000000000000000000000000000000602082015250565b5f613a28602483612dfd565b9150613a33826139ce565b604082019050919050565b5f6020820190508181035f830152613a5581613a1c565b9050919050565b7f4552433732313a20617070726f766520746f2063616c6c6572000000000000005f82015250565b5f613a90601983612dfd565b9150613a9b82613a5c565b602082019050919050565b5f6020820190508181035f830152613abd81613a84565b9050919050565b7f4552433732313a207472616e7366657220746f206e6f6e2045524337323152655f8201527f63656976657220696d706c656d656e7465720000000000000000000000000000602082015250565b5f613b1e603283612dfd565b9150613b2982613ac4565b604082019050919050565b5f6020820190508181035f830152613b4b81613b12565b9050919050565b5f81905092915050565b5f613b6682612df3565b613b708185613b52565b9350613b80818560208601612e0d565b80840191505092915050565b5f613b978285613b5c565b9150613ba38284613b5c565b91508190509392505050565b7f45524337323155524953746f726167653a2055524920736574206f66206e6f6e5f8201527f6578697374656e7420746f6b656e000000000000000000000000000000000000602082015250565b5f613c09602e83612dfd565b9150613c1482613baf565b604082019050919050565b5f6020820190508181035f830152613c3681613bfd565b9050919050565b5f819050815f5260205f209050919050565b5f6020601f8301049050919050565b5f82821b905092915050565b5f60088302613c997fffffffffffffffffffffffffffffffffffffffffffffffffffffffffffffffff82613c5e565b613ca38683613c5e565b95508019841693508086168417925050509392505050565b5f819050919050565b5f613cde613cd9613cd484612e9d565b613cbb565b612e9d565b9050919050565b5f819050919050565b613cf783613cc4565b613d0b613d0382613ce5565b848454613c6a565b825550505050565b5f90565b613d1f613d13565b613d2a818484613cee565b505050565b5b81811015613d4d57613d425f82613d17565b600181019050613d30565b5050565b601f821115613d9257613d6381613c3d565b613d6c84613c4f565b81016020851015613d7b578190505b613d8f613d8785613c4f565b830182613d2f565b50505b505050565b5f82821c905092915050565b5f613db25f1984600802613d97565b1980831691505092915050565b5f613dca8383613da3565b9150826002028217905092915050565b613de382612df3565b67ffffffffffffffff811115613dfc57613dfb613192565b5b613e068254613499565b613e11828285613d51565b5f60209050601f831160018114613e42575f8415613e30578287015190505b613e3a8582613dbf565b865550613ea1565b601f198416613e5086613c3d565b5f5b82811015613e7757848901518255600182019150602085019450602081019050613e52565b86831015613e945784890151613e90601f891682613da3565b8355505b6001600288020188555050505b505050505050565b7f416363657373436f6e74726f6c3a206163636f756e74200000000000000000005f82015250565b5f613edd601783613b52565b9150613ee882613ea9565b601782019050919050565b7f206973206d697373696e6720726f6c65200000000000000000000000000000005f82015250565b5f613f27601183613b52565b9150613f3282613ef3565b601182019050919050565b5f613f4782613ed1565b9150613f538285613b5c565b9150613f5e82613f1b565b9150613f6a8284613b5c565b91508190509392505050565b7f5061757361626c653a206e6f74207061757365640000000000000000000000005f82015250565b5f613faa601483612dfd565b9150613fb582613f76565b602082019050919050565b5f6020820190508181035f830152613fd781613f9e565b9050919050565b7f5061757361626c653a20706175736564000000000000000000000000000000005f82015250565b5f614012601083612dfd565b915061401d82613fde565b602082019050919050565b5f6020820190508181035f83015261403f81614006565b9050919050565b5f81519050919050565b5f82825260208201905092915050565b5f61406a82614046565b6140748185614050565b9350614084818560208601612e0d565b61408d81612e35565b840191505092915050565b5f6080820190506140ab5f830187612f2b565b6140b86020830186612f2b565b6140c56040830185612fbb565b81810360608301526140d78184614060565b905095945050505050565b5f815190506140f081612d6b565b92915050565b5f6020828403121561410b5761410a612d38565b5b5f614118848285016140e2565b91505092915050565b7f455243373231456e756d657261626c653a20636f6e73656375746976652074725f8201527f616e7366657273206e6f7420737570706f727465640000000000000000000000602082015250565b5f61417b603583612dfd565b915061418682614121565b604082019050919050565b5f6020820190508181035f8301526141a88161416f565b9050919050565b7f4e487b71000000000000000000000000000000000000000000000000000000005f52601160045260245ffd5b5f6141e682612e9d565b91506141f183612e9d565b92508282026141ff81612e9d565b91508282048414831517614216576142156141af565b5b5092915050565b5f61422782612e9d565b915061423283612e9d565b925082820190508082111561424a576142496141af565b5b92915050565b5f61425a82612e9d565b91505f820361426c5761426b6141af565b5b600182039050919050565b7f537472696e67733a20686578206c656e67746820696e73756666696369656e745f82015250565b5f6142ab602083612dfd565b91506142b682614277565b602082019050919050565b5f6020820190508181035f8301526142d88161429f565b9050919050565b7f4e487b71000000000000000000000000000000000000000000000000000000005f52601260045260245ffd5b7f4552433732313a206d696e7420746f20746865207a65726f20616464726573735f82015250565b5f614340602083612dfd565b915061434b8261430c565b602082019050919050565b5f6020820190508181035f83015261436d81614334565b9050919050565b7f4552433732313a20746f6b656e20616c7265616479206d696e746564000000005f82015250565b5f6143a8601c83612dfd565b91506143b382614374565b602082019050919050565b5f6020820190508181035f8301526143d58161439c565b9050919050565b5f6143e682612e9d565b91506143f183612e9d565b9250828203905081811115614409576144086141af565b5b92915050565b7f4e487b71000000000000000000000000000000000000000000000000000000005f52603160045260245ffdfe68747470733a2f2f657468657265756d2e737461636b65786368616e67652e636f6d2f7175657374696f6e732f3133353634342f68616e646c652d6d756c7469706c652d746f6b656e7572692d696e2d6f6e652d6e66742d736d6172742d636f6e74726163742d746f2d646966666572656e742d6d696e742d66756e6374696f6e73a264697066735822122038146e00678de1a6d56277b415e6298eae18385fd9316479442e72239977912964736f6c63430008140033",
  "immutableReferences": {},
  "source": "// SPDX-License-Identifier: MIT\npragma solidity ^0.8.9;\n\nimport \"../node_modules/@openzeppelin/contracts/token/ERC721/ERC721.sol\";\nimport \"../node_modules/@openzeppelin/contracts/token/ERC721/extensions/ERC721URIStorage.sol\";\nimport \"../node_modules/@openzeppelin/contracts/security/Pausable.sol\";\nimport \"../node_modules/@openzeppelin/contracts/access/AccessControl.sol\";\nimport \"../node_modules/@openzeppelin/contracts/token/ERC721/extensions/ERC721Burnable.sol\";\nimport \"../node_modules/@openzeppelin/contracts/utils/Counters.sol\";\nimport \"../node_modules/@openzeppelin/contracts/token/ERC721/extensions/ERC721Enumerable.sol\";\n\ncontract EpisodioTraumatico is ERC721, ERC721URIStorage, Pausable, AccessControl, \n    ERC721Burnable, ERC721Enumerable {\n    using Counters for Counters.Counter;\n\n    bytes32 public constant PAUSER_ROLE = keccak256(\"PAUSER_ROLE\");\n    bytes32 public constant MINTER_ROLE = keccak256(\"MINTER_ROLE\");\n    Counters.Counter private _tokenIdCounter;\n\n    constructor() ERC721(\"Episodio Traumatico\", \"Trauma\") {\n        _grantRole(DEFAULT_ADMIN_ROLE, msg.sender);\n        _grantRole(PAUSER_ROLE, msg.sender);\n        _grantRole(MINTER_ROLE, msg.sender);\n    }\n\n    function _baseURI() internal pure override returns (string memory) {\n        return \"https://ethereum.stackexchange.com/questions/135644/handle-multiple-tokenuri-in-one-nft-smart-contract-to-different-mint-functions\";\n    }\n\n    function pause() public onlyRole(PAUSER_ROLE) {\n        _pause();\n    }\n\n    function unpause() public onlyRole(PAUSER_ROLE) {\n        _unpause();\n    }\n\n    function safeMint(address to, string memory uri) public onlyRole(MINTER_ROLE) {\n        uint256 tokenId = _tokenIdCounter.current();\n        _tokenIdCounter.increment();\n        _safeMint(to, tokenId);\n        _setTokenURI(tokenId, uri);\n    }\n\n    function _beforeTokenTransfer(address from, address to, uint256 tokenId, uint256 batchSize)\n        internal\n        whenNotPaused\n        override(ERC721, ERC721Enumerable)\n    {\n        super._beforeTokenTransfer(from, to, tokenId, batchSize);\n    }\n\n    // The following functions are overrides required by Solidity.\n\n    function _burn(uint256 tokenId) internal override(ERC721, ERC721URIStorage) {\n        super._burn(tokenId);\n    }\n\n    function tokenURI(uint256 tokenId)\n        public\n        view\n        override(ERC721, ERC721URIStorage)\n        returns (string memory)\n    {\n        return super.tokenURI(tokenId);\n    }\n\n    function supportsInterface(bytes4 interfaceId)\n        public\n        view\n        override(ERC721, ERC721Enumerable, ERC721URIStorage, AccessControl)\n        returns (bool)\n    {\n        return super.supportsInterface(interfaceId);\n    }\n}",
  "sourcePath": "/home/victorcarvalho/Documents/Github/CPGoiasHackas/protected/blockchain/contracts/EpisodioTraumatico.sol",
  "compiler": {
    "name": "solc",
    "version": "0.8.20+commit.a1b79de6.Emscripten.clang"
  },
  "schemaVersion": "3.4.14",
  "updatedAt": "2023-06-09T04:50:41.771Z",
  "networkType": "ethereum",
  "devdoc": {
    "events": {
      "Approval(address,address,uint256)": {
        "details": "Emitted when `owner` enables `approved` to manage the `tokenId` token."
      },
      "ApprovalForAll(address,address,bool)": {
        "details": "Emitted when `owner` enables or disables (`approved`) `operator` to manage all of its assets."
      },
      "BatchMetadataUpdate(uint256,uint256)": {
        "details": "This event emits when the metadata of a range of tokens is changed. So that the third-party platforms such as NFT market could timely update the images and related attributes of the NFTs."
      },
      "MetadataUpdate(uint256)": {
        "details": "This event emits when the metadata of a token is changed. So that the third-party platforms such as NFT market could timely update the images and related attributes of the NFT."
      },
      "Paused(address)": {
        "details": "Emitted when the pause is triggered by `account`."
      },
      "RoleAdminChanged(bytes32,bytes32,bytes32)": {
        "details": "Emitted when `newAdminRole` is set as ``role``'s admin role, replacing `previousAdminRole` `DEFAULT_ADMIN_ROLE` is the starting admin for all roles, despite {RoleAdminChanged} not being emitted signaling this. _Available since v3.1._"
      },
      "RoleGranted(bytes32,address,address)": {
        "details": "Emitted when `account` is granted `role`. `sender` is the account that originated the contract call, an admin role bearer except when using {AccessControl-_setupRole}."
      },
      "RoleRevoked(bytes32,address,address)": {
        "details": "Emitted when `account` is revoked `role`. `sender` is the account that originated the contract call:   - if using `revokeRole`, it is the admin role bearer   - if using `renounceRole`, it is the role bearer (i.e. `account`)"
      },
      "Transfer(address,address,uint256)": {
        "details": "Emitted when `tokenId` token is transferred from `from` to `to`."
      },
      "Unpaused(address)": {
        "details": "Emitted when the pause is lifted by `account`."
      }
    },
    "kind": "dev",
    "methods": {
      "approve(address,uint256)": {
        "details": "See {IERC721-approve}."
      },
      "balanceOf(address)": {
        "details": "See {IERC721-balanceOf}."
      },
      "burn(uint256)": {
        "details": "Burns `tokenId`. See {ERC721-_burn}. Requirements: - The caller must own `tokenId` or be an approved operator."
      },
      "getApproved(uint256)": {
        "details": "See {IERC721-getApproved}."
      },
      "getRoleAdmin(bytes32)": {
        "details": "Returns the admin role that controls `role`. See {grantRole} and {revokeRole}. To change a role's admin, use {_setRoleAdmin}."
      },
      "grantRole(bytes32,address)": {
        "details": "Grants `role` to `account`. If `account` had not been already granted `role`, emits a {RoleGranted} event. Requirements: - the caller must have ``role``'s admin role. May emit a {RoleGranted} event."
      },
      "hasRole(bytes32,address)": {
        "details": "Returns `true` if `account` has been granted `role`."
      },
      "isApprovedForAll(address,address)": {
        "details": "See {IERC721-isApprovedForAll}."
      },
      "name()": {
        "details": "See {IERC721Metadata-name}."
      },
      "ownerOf(uint256)": {
        "details": "See {IERC721-ownerOf}."
      },
      "paused()": {
        "details": "Returns true if the contract is paused, and false otherwise."
      },
      "renounceRole(bytes32,address)": {
        "details": "Revokes `role` from the calling account. Roles are often managed via {grantRole} and {revokeRole}: this function's purpose is to provide a mechanism for accounts to lose their privileges if they are compromised (such as when a trusted device is misplaced). If the calling account had been revoked `role`, emits a {RoleRevoked} event. Requirements: - the caller must be `account`. May emit a {RoleRevoked} event."
      },
      "revokeRole(bytes32,address)": {
        "details": "Revokes `role` from `account`. If `account` had been granted `role`, emits a {RoleRevoked} event. Requirements: - the caller must have ``role``'s admin role. May emit a {RoleRevoked} event."
      },
      "safeTransferFrom(address,address,uint256)": {
        "details": "See {IERC721-safeTransferFrom}."
      },
      "safeTransferFrom(address,address,uint256,bytes)": {
        "details": "See {IERC721-safeTransferFrom}."
      },
      "setApprovalForAll(address,bool)": {
        "details": "See {IERC721-setApprovalForAll}."
      },
      "symbol()": {
        "details": "See {IERC721Metadata-symbol}."
      },
      "tokenByIndex(uint256)": {
        "details": "See {IERC721Enumerable-tokenByIndex}."
      },
      "tokenOfOwnerByIndex(address,uint256)": {
        "details": "See {IERC721Enumerable-tokenOfOwnerByIndex}."
      },
      "totalSupply()": {
        "details": "See {IERC721Enumerable-totalSupply}."
      },
      "transferFrom(address,address,uint256)": {
        "details": "See {IERC721-transferFrom}."
      }
    },
    "version": 1
  },
  "userdoc": {
    "kind": "user",
    "methods": {},
    "version": 1
  }
}