{
  "contractName": "EpisodioTraumatico",
  "abi": [
    {
      "inputs": [],
      "stateMutability": "nonpayable",
      "type": "constructor"
    },
    {
      "anonymous": false,
      "inputs": [
        {
          "indexed": true,
          "internalType": "address",
          "name": "owner",
          "type": "address"
        },
        {
          "indexed": true,
          "internalType": "address",
          "name": "approved",
          "type": "address"
        },
        {
          "indexed": true,
          "internalType": "uint256",
          "name": "tokenId",
          "type": "uint256"
        }
      ],
      "name": "Approval",
      "type": "event"
    },
    {
      "anonymous": false,
      "inputs": [
        {
          "indexed": true,
          "internalType": "address",
          "name": "owner",
          "type": "address"
        },
        {
          "indexed": true,
          "internalType": "address",
          "name": "operator",
          "type": "address"
        },
        {
          "indexed": false,
          "internalType": "bool",
          "name": "approved",
          "type": "bool"
        }
      ],
      "name": "ApprovalForAll",
      "type": "event"
    },
    {
      "anonymous": false,
      "inputs": [
        {
          "indexed": false,
          "internalType": "uint256",
          "name": "_fromTokenId",
          "type": "uint256"
        },
        {
          "indexed": false,
          "internalType": "uint256",
          "name": "_toTokenId",
          "type": "uint256"
        }
      ],
      "name": "BatchMetadataUpdate",
      "type": "event"
    },
    {
      "anonymous": false,
      "inputs": [
        {
          "indexed": false,
          "internalType": "uint256",
          "name": "_tokenId",
          "type": "uint256"
        }
      ],
      "name": "MetadataUpdate",
      "type": "event"
    },
    {
      "anonymous": false,
      "inputs": [
        {
          "indexed": false,
          "internalType": "address",
          "name": "account",
          "type": "address"
        }
      ],
      "name": "Paused",
      "type": "event"
    },
    {
      "anonymous": false,
      "inputs": [
        {
          "indexed": true,
          "internalType": "bytes32",
          "name": "role",
          "type": "bytes32"
        },
        {
          "indexed": true,
          "internalType": "bytes32",
          "name": "previousAdminRole",
          "type": "bytes32"
        },
        {
          "indexed": true,
          "internalType": "bytes32",
          "name": "newAdminRole",
          "type": "bytes32"
        }
      ],
      "name": "RoleAdminChanged",
      "type": "event"
    },
    {
      "anonymous": false,
      "inputs": [
        {
          "indexed": true,
          "internalType": "bytes32",
          "name": "role",
          "type": "bytes32"
        },
        {
          "indexed": true,
          "internalType": "address",
          "name": "account",
          "type": "address"
        },
        {
          "indexed": true,
          "internalType": "address",
          "name": "sender",
          "type": "address"
        }
      ],
      "name": "RoleGranted",
      "type": "event"
    },
    {
      "anonymous": false,
      "inputs": [
        {
          "indexed": true,
          "internalType": "bytes32",
          "name": "role",
          "type": "bytes32"
        },
        {
          "indexed": true,
          "internalType": "address",
          "name": "account",
          "type": "address"
        },
        {
          "indexed": true,
          "internalType": "address",
          "name": "sender",
          "type": "address"
        }
      ],
      "name": "RoleRevoked",
      "type": "event"
    },
    {
      "anonymous": false,
      "inputs": [
        {
          "indexed": true,
          "internalType": "address",
          "name": "from",
          "type": "address"
        },
        {
          "indexed": true,
          "internalType": "address",
          "name": "to",
          "type": "address"
        },
        {
          "indexed": true,
          "internalType": "uint256",
          "name": "tokenId",
          "type": "uint256"
        }
      ],
      "name": "Transfer",
      "type": "event"
    },
    {
      "anonymous": false,
      "inputs": [
        {
          "indexed": false,
          "internalType": "address",
          "name": "account",
          "type": "address"
        }
      ],
      "name": "Unpaused",
      "type": "event"
    },
    {
      "inputs": [],
      "name": "DEFAULT_ADMIN_ROLE",
      "outputs": [
        {
          "internalType": "bytes32",
          "name": "",
          "type": "bytes32"
        }
      ],
      "stateMutability": "view",
      "type": "function",
      "constant": true
    },
    {
      "inputs": [],
      "name": "MINTER_ROLE",
      "outputs": [
        {
          "internalType": "bytes32",
          "name": "",
          "type": "bytes32"
        }
      ],
      "stateMutability": "view",
      "type": "function",
      "constant": true
    },
    {
      "inputs": [],
      "name": "PAUSER_ROLE",
      "outputs": [
        {
          "internalType": "bytes32",
          "name": "",
          "type": "bytes32"
        }
      ],
      "stateMutability": "view",
      "type": "function",
      "constant": true
    },
    {
      "inputs": [
        {
          "internalType": "address",
          "name": "to",
          "type": "address"
        },
        {
          "internalType": "uint256",
          "name": "tokenId",
          "type": "uint256"
        }
      ],
      "name": "approve",
      "outputs": [],
      "stateMutability": "nonpayable",
      "type": "function"
    },
    {
      "inputs": [
        {
          "internalType": "address",
          "name": "owner",
          "type": "address"
        }
      ],
      "name": "balanceOf",
      "outputs": [
        {
          "internalType": "uint256",
          "name": "",
          "type": "uint256"
        }
      ],
      "stateMutability": "view",
      "type": "function",
      "constant": true
    },
    {
      "inputs": [
        {
          "internalType": "uint256",
          "name": "tokenId",
          "type": "uint256"
        }
      ],
      "name": "burn",
      "outputs": [],
      "stateMutability": "nonpayable",
      "type": "function"
    },
    {
      "inputs": [
        {
          "internalType": "uint256",
          "name": "tokenId",
          "type": "uint256"
        }
      ],
      "name": "getApproved",
      "outputs": [
        {
          "internalType": "address",
          "name": "",
          "type": "address"
        }
      ],
      "stateMutability": "view",
      "type": "function",
      "constant": true
    },
    {
      "inputs": [
        {
          "internalType": "bytes32",
          "name": "role",
          "type": "bytes32"
        }
      ],
      "name": "getRoleAdmin",
      "outputs": [
        {
          "internalType": "bytes32",
          "name": "",
          "type": "bytes32"
        }
      ],
      "stateMutability": "view",
      "type": "function",
      "constant": true
    },
    {
      "inputs": [
        {
          "internalType": "bytes32",
          "name": "role",
          "type": "bytes32"
        },
        {
          "internalType": "address",
          "name": "account",
          "type": "address"
        }
      ],
      "name": "grantRole",
      "outputs": [],
      "stateMutability": "nonpayable",
      "type": "function"
    },
    {
      "inputs": [
        {
          "internalType": "bytes32",
          "name": "role",
          "type": "bytes32"
        },
        {
          "internalType": "address",
          "name": "account",
          "type": "address"
        }
      ],
      "name": "hasRole",
      "outputs": [
        {
          "internalType": "bool",
          "name": "",
          "type": "bool"
        }
      ],
      "stateMutability": "view",
      "type": "function",
      "constant": true
    },
    {
      "inputs": [
        {
          "internalType": "address",
          "name": "owner",
          "type": "address"
        },
        {
          "internalType": "address",
          "name": "operator",
          "type": "address"
        }
      ],
      "name": "isApprovedForAll",
      "outputs": [
        {
          "internalType": "bool",
          "name": "",
          "type": "bool"
        }
      ],
      "stateMutability": "view",
      "type": "function",
      "constant": true
    },
    {
      "inputs": [],
      "name": "name",
      "outputs": [
        {
          "internalType": "string",
          "name": "",
          "type": "string"
        }
      ],
      "stateMutability": "view",
      "type": "function",
      "constant": true
    },
    {
      "inputs": [
        {
          "internalType": "uint256",
          "name": "tokenId",
          "type": "uint256"
        }
      ],
      "name": "ownerOf",
      "outputs": [
        {
          "internalType": "address",
          "name": "",
          "type": "address"
        }
      ],
      "stateMutability": "view",
      "type": "function",
      "constant": true
    },
    {
      "inputs": [],
      "name": "paused",
      "outputs": [
        {
          "internalType": "bool",
          "name": "",
          "type": "bool"
        }
      ],
      "stateMutability": "view",
      "type": "function",
      "constant": true
    },
    {
      "inputs": [
        {
          "internalType": "bytes32",
          "name": "role",
          "type": "bytes32"
        },
        {
          "internalType": "address",
          "name": "account",
          "type": "address"
        }
      ],
      "name": "renounceRole",
      "outputs": [],
      "stateMutability": "nonpayable",
      "type": "function"
    },
    {
      "inputs": [
        {
          "internalType": "bytes32",
          "name": "role",
          "type": "bytes32"
        },
        {
          "internalType": "address",
          "name": "account",
          "type": "address"
        }
      ],
      "name": "revokeRole",
      "outputs": [],
      "stateMutability": "nonpayable",
      "type": "function"
    },
    {
      "inputs": [
        {
          "internalType": "address",
          "name": "from",
          "type": "address"
        },
        {
          "internalType": "address",
          "name": "to",
          "type": "address"
        },
        {
          "internalType": "uint256",
          "name": "tokenId",
          "type": "uint256"
        }
      ],
      "name": "safeTransferFrom",
      "outputs": [],
      "stateMutability": "nonpayable",
      "type": "function"
    },
    {
      "inputs": [
        {
          "internalType": "address",
          "name": "from",
          "type": "address"
        },
        {
          "internalType": "address",
          "name": "to",
          "type": "address"
        },
        {
          "internalType": "uint256",
          "name": "tokenId",
          "type": "uint256"
        },
        {
          "internalType": "bytes",
          "name": "data",
          "type": "bytes"
        }
      ],
      "name": "safeTransferFrom",
      "outputs": [],
      "stateMutability": "nonpayable",
      "type": "function"
    },
    {
      "inputs": [
        {
          "internalType": "address",
          "name": "operator",
          "type": "address"
        },
        {
          "internalType": "bool",
          "name": "approved",
          "type": "bool"
        }
      ],
      "name": "setApprovalForAll",
      "outputs": [],
      "stateMutability": "nonpayable",
      "type": "function"
    },
    {
      "inputs": [],
      "name": "symbol",
      "outputs": [
        {
          "internalType": "string",
          "name": "",
          "type": "string"
        }
      ],
      "stateMutability": "view",
      "type": "function",
      "constant": true
    },
    {
      "inputs": [
        {
          "internalType": "uint256",
          "name": "index",
          "type": "uint256"
        }
      ],
      "name": "tokenByIndex",
      "outputs": [
        {
          "internalType": "uint256",
          "name": "",
          "type": "uint256"
        }
      ],
      "stateMutability": "view",
      "type": "function",
      "constant": true
    },
    {
      "inputs": [
        {
          "internalType": "address",
          "name": "owner",
          "type": "address"
        },
        {
          "internalType": "uint256",
          "name": "index",
          "type": "uint256"
        }
      ],
      "name": "tokenOfOwnerByIndex",
      "outputs": [
        {
          "internalType": "uint256",
          "name": "",
          "type": "uint256"
        }
      ],
      "stateMutability": "view",
      "type": "function",
      "constant": true
    },
    {
      "inputs": [],
      "name": "totalSupply",
      "outputs": [
        {
          "internalType": "uint256",
          "name": "",
          "type": "uint256"
        }
      ],
      "stateMutability": "view",
      "type": "function",
      "constant": true
    },
    {
      "inputs": [
        {
          "internalType": "address",
          "name": "from",
          "type": "address"
        },
        {
          "internalType": "address",
          "name": "to",
          "type": "address"
        },
        {
          "internalType": "uint256",
          "name": "tokenId",
          "type": "uint256"
        }
      ],
      "name": "transferFrom",
      "outputs": [],
      "stateMutability": "nonpayable",
      "type": "function"
    },
    {
      "inputs": [],
      "name": "pause",
      "outputs": [],
      "stateMutability": "nonpayable",
      "type": "function"
    },
    {
      "inputs": [],
      "name": "unpause",
      "outputs": [],
      "stateMutability": "nonpayable",
      "type": "function"
    },
    {
      "inputs": [
        {
          "internalType": "address",
          "name": "to",
          "type": "address"
        },
        {
          "internalType": "string",
          "name": "uri",
          "type": "string"
        }
      ],
      "name": "safeMint",
      "outputs": [],
      "stateMutability": "nonpayable",
      "type": "function"
    },
    {
      "inputs": [
        {
          "internalType": "address",
          "name": "owner",
          "type": "address"
        }
      ],
      "name": "getOwnerNFTURIs",
      "outputs": [
        {
          "internalType": "string[]",
          "name": "",
          "type": "string[]"
        }
      ],
      "stateMutability": "view",
      "type": "function",
      "constant": true
    },
    {
      "inputs": [
        {
          "internalType": "uint256",
          "name": "tokenId",
          "type": "uint256"
        }
      ],
      "name": "tokenURI",
      "outputs": [
        {
          "internalType": "string",
          "name": "",
          "type": "string"
        }
      ],
      "stateMutability": "view",
      "type": "function",
      "constant": true
    },
    {
      "inputs": [
        {
          "internalType": "bytes4",
          "name": "interfaceId",
          "type": "bytes4"
        }
      ],
      "name": "supportsInterface",
      "outputs": [
        {
          "internalType": "bool",
          "name": "",
          "type": "bool"
        }
      ],
      "stateMutability": "view",
      "type": "function",
      "constant": true
    }
  ],
  "bytecode": "0x60806040523480156200001157600080fd5b506040518060400160405280601381526020017f457069736f64696f20547261756d617469636f000000000000000000000000008152506040518060400160405280600681526020017f547261756d610000000000000000000000000000000000000000000000000000815250816000908051906020019062000096929190620002b1565b508060019080519060200190620000af929190620002b1565b5050506000600760006101000a81548160ff021916908315150217905550620000e26000801b336200014c60201b60201c565b620001147f65d7a28e3265b37a6474929f336521b332c1681b933f6cb9f3376673440d862a336200014c60201b60201c565b620001467f9f2df0fed2c77648de5860a4cc508cd0818c85b8b8a1ab4ceeef8d981c8956a6336200014c60201b60201c565b620003c5565b6200015e82826200023e60201b60201c565b6200023a5760016008600084815260200190815260200160002060000160008373ffffffffffffffffffffffffffffffffffffffff1673ffffffffffffffffffffffffffffffffffffffff16815260200190815260200160002060006101000a81548160ff021916908315150217905550620001df620002a960201b60201c565b73ffffffffffffffffffffffffffffffffffffffff168173ffffffffffffffffffffffffffffffffffffffff16837f2f8788117e7eff1d82e926ec794901d17c78024a50270940304540a733656f0d60405160405180910390a45b5050565b60006008600084815260200190815260200160002060000160008373ffffffffffffffffffffffffffffffffffffffff1673ffffffffffffffffffffffffffffffffffffffff16815260200190815260200160002060009054906101000a900460ff16905092915050565b600033905090565b828054620002bf9062000390565b90600052602060002090601f016020900481019282620002e357600085556200032f565b82601f10620002fe57805160ff19168380011785556200032f565b828001600101855582156200032f579182015b828111156200032e57825182559160200191906001019062000311565b5b5090506200033e919062000342565b5090565b5b808211156200035d57600081600090555060010162000343565b5090565b7f4e487b7100000000000000000000000000000000000000000000000000000000600052602260045260246000fd5b60006002820490506001821680620003a957607f821691505b602082108103620003bf57620003be62000361565b5b50919050565b6147e780620003d56000396000f3fe608060405234801561001057600080fd5b50600436106101da5760003560e01c80635c975abb11610104578063a22cb465116100a2578063d539139311610071578063d539139314610565578063d547741f14610583578063e63ab1e91461059f578063e985e9c5146105bd576101da565b8063a22cb465146104e1578063b88d4fde146104fd578063c87b56dd14610519578063d204c45e14610549576101da565b80638456cb59116100de5780638456cb591461046b57806391d148541461047557806395d89b41146104a5578063a217fddf146104c3576101da565b80635c975abb146103ed5780636352211e1461040b57806370a082311461043b576101da565b8063248a9ca31161017c5780633f4ba83a1161014b5780633f4ba83a1461037b57806342842e0e1461038557806342966c68146103a15780634f6ccce7146103bd576101da565b8063248a9ca3146102e35780632f2ff15d146103135780632f745c591461032f57806336568abe1461035f576101da565b8063095ea7b3116101b8578063095ea7b31461025d5780631070a7ba1461027957806318160ddd146102a957806323b872dd146102c7576101da565b806301ffc9a7146101df57806306fdde031461020f578063081812fc1461022d575b600080fd5b6101f960048036038101906101f491906130d6565b6105ed565b604051610206919061311e565b60405180910390f35b6102176105ff565b60405161022491906131d2565b60405180910390f35b6102476004803603810190610242919061322a565b610691565b6040516102549190613298565b60405180910390f35b610277600480360381019061027291906132df565b6106d7565b005b610293600480360381019061028e919061331f565b6107ee565b6040516102a09190613458565b60405180910390f35b6102b1610906565b6040516102be9190613489565b60405180910390f35b6102e160048036038101906102dc91906134a4565b610913565b005b6102fd60048036038101906102f8919061352d565b610973565b60405161030a9190613569565b60405180910390f35b61032d60048036038101906103289190613584565b610993565b005b610349600480360381019061034491906132df565b6109b4565b6040516103569190613489565b60405180910390f35b61037960048036038101906103749190613584565b610a59565b005b610383610adc565b005b61039f600480360381019061039a91906134a4565b610b11565b005b6103bb60048036038101906103b6919061322a565b610b31565b005b6103d760048036038101906103d2919061322a565b610b8d565b6040516103e49190613489565b60405180910390f35b6103f5610bfe565b604051610402919061311e565b60405180910390f35b6104256004803603810190610420919061322a565b610c15565b6040516104329190613298565b60405180910390f35b6104556004803603810190610450919061331f565b610c9b565b6040516104629190613489565b60405180910390f35b610473610d52565b005b61048f600480360381019061048a9190613584565b610d87565b60405161049c919061311e565b60405180910390f35b6104ad610df2565b6040516104ba91906131d2565b60405180910390f35b6104cb610e84565b6040516104d89190613569565b60405180910390f35b6104fb60048036038101906104f691906135f0565b610e8b565b005b61051760048036038101906105129190613765565b610ea1565b005b610533600480360381019061052e919061322a565b610f03565b60405161054091906131d2565b60405180910390f35b610563600480360381019061055e9190613889565b610f15565b005b61056d610fea565b60405161057a9190613569565b60405180910390f35b61059d60048036038101906105989190613584565b61100e565b005b6105a761102f565b6040516105b49190613569565b60405180910390f35b6105d760048036038101906105d291906138e5565b611053565b6040516105e4919061311e565b60405180910390f35b60006105f8826110e7565b9050919050565b60606000805461060e90613954565b80601f016020809104026020016040519081016040528092919081815260200182805461063a90613954565b80156106875780601f1061065c57610100808354040283529160200191610687565b820191906000526020600020905b81548152906001019060200180831161066a57829003601f168201915b5050505050905090565b600061069c82611161565b6004600083815260200190815260200160002060009054906101000a900473ffffffffffffffffffffffffffffffffffffffff169050919050565b60006106e282610c15565b90508073ffffffffffffffffffffffffffffffffffffffff168373ffffffffffffffffffffffffffffffffffffffff1603610752576040517f08c379a0000000000000000000000000000000000000000000000000000000008152600401610749906139f7565b60405180910390fd5b8073ffffffffffffffffffffffffffffffffffffffff166107716111ac565b73ffffffffffffffffffffffffffffffffffffffff1614806107a0575061079f8161079a6111ac565b611053565b5b6107df576040517f08c379a00000000000000000000000000000000000000000000000000000000081526004016107d690613a89565b60405180910390fd5b6107e983836111b4565b505050565b6060600e60008373ffffffffffffffffffffffffffffffffffffffff1673ffffffffffffffffffffffffffffffffffffffff168152602001908152602001600020805480602002602001604051908101604052809291908181526020016000905b828210156108fb57838290600052602060002001805461086e90613954565b80601f016020809104026020016040519081016040528092919081815260200182805461089a90613954565b80156108e75780601f106108bc576101008083540402835291602001916108e7565b820191906000526020600020905b8154815290600101906020018083116108ca57829003601f168201915b50505050508152602001906001019061084f565b505050509050919050565b6000600b80549050905090565b61092461091e6111ac565b8261126d565b610963576040517f08c379a000000000000000000000000000000000000000000000000000000000815260040161095a90613b1b565b60405180910390fd5b61096e838383611302565b505050565b600060086000838152602001908152602001600020600101549050919050565b61099c82610973565b6109a5816115fb565b6109af838361160f565b505050565b60006109bf83610c9b565b8210610a00576040517f08c379a00000000000000000000000000000000000000000000000000000000081526004016109f790613bad565b60405180910390fd5b600960008473ffffffffffffffffffffffffffffffffffffffff1673ffffffffffffffffffffffffffffffffffffffff168152602001908152602001600020600083815260200190815260200160002054905092915050565b610a616111ac565b73ffffffffffffffffffffffffffffffffffffffff168173ffffffffffffffffffffffffffffffffffffffff1614610ace576040517f08c379a0000000000000000000000000000000000000000000000000000000008152600401610ac590613c3f565b60405180910390fd5b610ad882826116f0565b5050565b7f65d7a28e3265b37a6474929f336521b332c1681b933f6cb9f3376673440d862a610b06816115fb565b610b0e6117d2565b50565b610b2c83838360405180602001604052806000815250610ea1565b505050565b610b42610b3c6111ac565b8261126d565b610b81576040517f08c379a0000000000000000000000000000000000000000000000000000000008152600401610b7890613b1b565b60405180910390fd5b610b8a81611835565b50565b6000610b97610906565b8210610bd8576040517f08c379a0000000000000000000000000000000000000000000000000000000008152600401610bcf90613cd1565b60405180910390fd5b600b8281548110610bec57610beb613cf1565b5b90600052602060002001549050919050565b6000600760009054906101000a900460ff16905090565b600080610c2183611841565b9050600073ffffffffffffffffffffffffffffffffffffffff168173ffffffffffffffffffffffffffffffffffffffff1603610c92576040517f08c379a0000000000000000000000000000000000000000000000000000000008152600401610c8990613d6c565b60405180910390fd5b80915050919050565b60008073ffffffffffffffffffffffffffffffffffffffff168273ffffffffffffffffffffffffffffffffffffffff1603610d0b576040517f08c379a0000000000000000000000000000000000000000000000000000000008152600401610d0290613dfe565b60405180910390fd5b600360008373ffffffffffffffffffffffffffffffffffffffff1673ffffffffffffffffffffffffffffffffffffffff168152602001908152602001600020549050919050565b7f65d7a28e3265b37a6474929f336521b332c1681b933f6cb9f3376673440d862a610d7c816115fb565b610d8461187e565b50565b60006008600084815260200190815260200160002060000160008373ffffffffffffffffffffffffffffffffffffffff1673ffffffffffffffffffffffffffffffffffffffff16815260200190815260200160002060009054906101000a900460ff16905092915050565b606060018054610e0190613954565b80601f0160208091040260200160405190810160405280929190818152602001828054610e2d90613954565b8015610e7a5780601f10610e4f57610100808354040283529160200191610e7a565b820191906000526020600020905b815481529060010190602001808311610e5d57829003601f168201915b5050505050905090565b6000801b81565b610e9d610e966111ac565b83836118e1565b5050565b610eb2610eac6111ac565b8361126d565b610ef1576040517f08c379a0000000000000000000000000000000000000000000000000000000008152600401610ee890613b1b565b60405180910390fd5b610efd84848484611a4d565b50505050565b6060610f0e82611aa9565b9050919050565b7f9f2df0fed2c77648de5860a4cc508cd0818c85b8b8a1ab4ceeef8d981c8956a6610f3f816115fb565b6000610f4b600d611bbb565b9050610f57600d611bc9565b610f618482611bdf565b610f6b8184611bfd565b600e60008573ffffffffffffffffffffffffffffffffffffffff1673ffffffffffffffffffffffffffffffffffffffff16815260200190815260200160002083908060018154018082558091505060019003906000526020600020016000909190919091509080519060200190610fe3929190612f87565b5050505050565b7f9f2df0fed2c77648de5860a4cc508cd0818c85b8b8a1ab4ceeef8d981c8956a681565b61101782610973565b611020816115fb565b61102a83836116f0565b505050565b7f65d7a28e3265b37a6474929f336521b332c1681b933f6cb9f3376673440d862a81565b6000600560008473ffffffffffffffffffffffffffffffffffffffff1673ffffffffffffffffffffffffffffffffffffffff16815260200190815260200160002060008373ffffffffffffffffffffffffffffffffffffffff1673ffffffffffffffffffffffffffffffffffffffff16815260200190815260200160002060009054906101000a900460ff16905092915050565b60007f780e9d63000000000000000000000000000000000000000000000000000000007bffffffffffffffffffffffffffffffffffffffffffffffffffffffff1916827bffffffffffffffffffffffffffffffffffffffffffffffffffffffff1916148061115a575061115982611ca8565b5b9050919050565b61116a81611d22565b6111a9576040517f08c379a00000000000000000000000000000000000000000000000000000000081526004016111a090613d6c565b60405180910390fd5b50565b600033905090565b816004600083815260200190815260200160002060006101000a81548173ffffffffffffffffffffffffffffffffffffffff021916908373ffffffffffffffffffffffffffffffffffffffff160217905550808273ffffffffffffffffffffffffffffffffffffffff1661122783610c15565b73ffffffffffffffffffffffffffffffffffffffff167f8c5be1e5ebec7d5bd14f71427d1e84f3dd0314c0f7b2291e5b200ac8c7c3b92560405160405180910390a45050565b60008061127983610c15565b90508073ffffffffffffffffffffffffffffffffffffffff168473ffffffffffffffffffffffffffffffffffffffff1614806112bb57506112ba8185611053565b5b806112f957508373ffffffffffffffffffffffffffffffffffffffff166112e184610691565b73ffffffffffffffffffffffffffffffffffffffff16145b91505092915050565b8273ffffffffffffffffffffffffffffffffffffffff1661132282610c15565b73ffffffffffffffffffffffffffffffffffffffff1614611378576040517f08c379a000000000000000000000000000000000000000000000000000000000815260040161136f90613e90565b60405180910390fd5b600073ffffffffffffffffffffffffffffffffffffffff168273ffffffffffffffffffffffffffffffffffffffff16036113e7576040517f08c379a00000000000000000000000000000000000000000000000000000000081526004016113de90613f22565b60405180910390fd5b6113f48383836001611d63565b8273ffffffffffffffffffffffffffffffffffffffff1661141482610c15565b73ffffffffffffffffffffffffffffffffffffffff161461146a576040517f08c379a000000000000000000000000000000000000000000000000000000000815260040161146190613e90565b60405180910390fd5b6004600082815260200190815260200160002060006101000a81549073ffffffffffffffffffffffffffffffffffffffff02191690556001600360008573ffffffffffffffffffffffffffffffffffffffff1673ffffffffffffffffffffffffffffffffffffffff168152602001908152602001600020600082825403925050819055506001600360008473ffffffffffffffffffffffffffffffffffffffff1673ffffffffffffffffffffffffffffffffffffffff16815260200190815260200160002060008282540192505081905550816002600083815260200190815260200160002060006101000a81548173ffffffffffffffffffffffffffffffffffffffff021916908373ffffffffffffffffffffffffffffffffffffffff160217905550808273ffffffffffffffffffffffffffffffffffffffff168473ffffffffffffffffffffffffffffffffffffffff167fddf252ad1be2c89b69c2b068fc378daa952ba7f163c4a11628f55a4df523b3ef60405160405180910390a46115f68383836001611d7d565b505050565b61160c816116076111ac565b611d83565b50565b6116198282610d87565b6116ec5760016008600084815260200190815260200160002060000160008373ffffffffffffffffffffffffffffffffffffffff1673ffffffffffffffffffffffffffffffffffffffff16815260200190815260200160002060006101000a81548160ff0219169083151502179055506116916111ac565b73ffffffffffffffffffffffffffffffffffffffff168173ffffffffffffffffffffffffffffffffffffffff16837f2f8788117e7eff1d82e926ec794901d17c78024a50270940304540a733656f0d60405160405180910390a45b5050565b6116fa8282610d87565b156117ce5760006008600084815260200190815260200160002060000160008373ffffffffffffffffffffffffffffffffffffffff1673ffffffffffffffffffffffffffffffffffffffff16815260200190815260200160002060006101000a81548160ff0219169083151502179055506117736111ac565b73ffffffffffffffffffffffffffffffffffffffff168173ffffffffffffffffffffffffffffffffffffffff16837ff6391f5c32d9c69d2a47ea670b442974b53935d1edc7fd64eb21e047a839171b60405160405180910390a45b5050565b6117da611e08565b6000600760006101000a81548160ff0219169083151502179055507f5db9ee0a495bf2e6ff9c91a7834c1ba4fdd244a5e8aa4e537bd38aeae4b073aa61181e6111ac565b60405161182b9190613298565b60405180910390a1565b61183e81611e51565b50565b60006002600083815260200190815260200160002060009054906101000a900473ffffffffffffffffffffffffffffffffffffffff169050919050565b611886611ea4565b6001600760006101000a81548160ff0219169083151502179055507f62e78cea01bee320cd4e420270b5ea74000d11b0c9f74754ebdbfc544b05a2586118ca6111ac565b6040516118d79190613298565b60405180910390a1565b8173ffffffffffffffffffffffffffffffffffffffff168373ffffffffffffffffffffffffffffffffffffffff160361194f576040517f08c379a000000000000000000000000000000000000000000000000000000000815260040161194690613f8e565b60405180910390fd5b80600560008573ffffffffffffffffffffffffffffffffffffffff1673ffffffffffffffffffffffffffffffffffffffff16815260200190815260200160002060008473ffffffffffffffffffffffffffffffffffffffff1673ffffffffffffffffffffffffffffffffffffffff16815260200190815260200160002060006101000a81548160ff0219169083151502179055508173ffffffffffffffffffffffffffffffffffffffff168373ffffffffffffffffffffffffffffffffffffffff167f17307eab39ab6107e8899845ad3d59bd9653f200f220920489ca2b5937696c3183604051611a40919061311e565b60405180910390a3505050565b611a58848484611302565b611a6484848484611eee565b611aa3576040517f08c379a0000000000000000000000000000000000000000000000000000000008152600401611a9a90614020565b60405180910390fd5b50505050565b6060611ab482611161565b6000600660008481526020019081526020016000208054611ad490613954565b80601f0160208091040260200160405190810160405280929190818152602001828054611b0090613954565b8015611b4d5780601f10611b2257610100808354040283529160200191611b4d565b820191906000526020600020905b815481529060010190602001808311611b3057829003601f168201915b505050505090506000611b5e612075565b90506000815103611b73578192505050611bb6565b600082511115611ba8578082604051602001611b9092919061407c565b60405160208183030381529060405292505050611bb6565b611bb184612095565b925050505b919050565b600081600001549050919050565b6001816000016000828254019250508190555050565b611bf98282604051806020016040528060008152506120fd565b5050565b611c0682611d22565b611c45576040517f08c379a0000000000000000000000000000000000000000000000000000000008152600401611c3c90614112565b60405180910390fd5b80600660008481526020019081526020016000209080519060200190611c6c929190612f87565b507ff8e1a15aba9398e019f0b49df1a4fde98ee17ae345cb5f6b5e2c27f5033e8ce782604051611c9c9190613489565b60405180910390a15050565b60007f7965db0b000000000000000000000000000000000000000000000000000000007bffffffffffffffffffffffffffffffffffffffffffffffffffffffff1916827bffffffffffffffffffffffffffffffffffffffffffffffffffffffff19161480611d1b5750611d1a82612158565b5b9050919050565b60008073ffffffffffffffffffffffffffffffffffffffff16611d4483611841565b73ffffffffffffffffffffffffffffffffffffffff1614159050919050565b611d6b611ea4565b611d77848484846121b9565b50505050565b50505050565b611d8d8282610d87565b611e0457611d9a81612317565b611da88360001c6020612344565b604051602001611db99291906141ca565b6040516020818303038152906040526040517f08c379a0000000000000000000000000000000000000000000000000000000008152600401611dfb91906131d2565b60405180910390fd5b5050565b611e10610bfe565b611e4f576040517f08c379a0000000000000000000000000000000000000000000000000000000008152600401611e4690614250565b60405180910390fd5b565b611e5a81612580565b6000600660008381526020019081526020016000208054611e7a90613954565b905014611ea157600660008281526020019081526020016000206000611ea0919061300d565b5b50565b611eac610bfe565b15611eec576040517f08c379a0000000000000000000000000000000000000000000000000000000008152600401611ee3906142bc565b60405180910390fd5b565b6000611f0f8473ffffffffffffffffffffffffffffffffffffffff166126ce565b15612068578373ffffffffffffffffffffffffffffffffffffffff1663150b7a02611f386111ac565b8786866040518563ffffffff1660e01b8152600401611f5a9493929190614331565b6020604051808303816000875af1925050508015611f9657506040513d601f19601f82011682018060405250810190611f939190614392565b60015b612018573d8060008114611fc6576040519150601f19603f3d011682016040523d82523d6000602084013e611fcb565b606091505b506000815103612010576040517f08c379a000000000000000000000000000000000000000000000000000000000815260040161200790614020565b60405180910390fd5b805181602001fd5b63150b7a0260e01b7bffffffffffffffffffffffffffffffffffffffffffffffffffffffff1916817bffffffffffffffffffffffffffffffffffffffffffffffffffffffff19161491505061206d565b600190505b949350505050565b60606040518060c001604052806082815260200161473060829139905090565b60606120a082611161565b60006120aa612075565b905060008151116120ca57604051806020016040528060008152506120f5565b806120d4846126f1565b6040516020016120e592919061407c565b6040516020818303038152906040525b915050919050565b61210783836127bf565b6121146000848484611eee565b612153576040517f08c379a000000000000000000000000000000000000000000000000000000000815260040161214a90614020565b60405180910390fd5b505050565b6000634906490660e01b7bffffffffffffffffffffffffffffffffffffffffffffffffffffffff1916827bffffffffffffffffffffffffffffffffffffffffffffffffffffffff191614806121b257506121b1826129dc565b5b9050919050565b6121c584848484612abe565b6001811115612209576040517f08c379a000000000000000000000000000000000000000000000000000000000815260040161220090614431565b60405180910390fd5b6000829050600073ffffffffffffffffffffffffffffffffffffffff168573ffffffffffffffffffffffffffffffffffffffff16036122505761224b81612ac4565b61228f565b8373ffffffffffffffffffffffffffffffffffffffff168573ffffffffffffffffffffffffffffffffffffffff161461228e5761228d8582612b0d565b5b5b600073ffffffffffffffffffffffffffffffffffffffff168473ffffffffffffffffffffffffffffffffffffffff16036122d1576122cc81612c7a565b612310565b8473ffffffffffffffffffffffffffffffffffffffff168473ffffffffffffffffffffffffffffffffffffffff161461230f5761230e8482612d4b565b5b5b5050505050565b606061233d8273ffffffffffffffffffffffffffffffffffffffff16601460ff16612344565b9050919050565b6060600060028360026123579190614480565b61236191906144da565b67ffffffffffffffff81111561237a5761237961363a565b5b6040519080825280601f01601f1916602001820160405280156123ac5781602001600182028036833780820191505090505b5090507f3000000000000000000000000000000000000000000000000000000000000000816000815181106123e4576123e3613cf1565b5b60200101907effffffffffffffffffffffffffffffffffffffffffffffffffffffffffffff1916908160001a9053507f78000000000000000000000000000000000000000000000000000000000000008160018151811061244857612447613cf1565b5b60200101907effffffffffffffffffffffffffffffffffffffffffffffffffffffffffffff1916908160001a905350600060018460026124889190614480565b61249291906144da565b90505b6001811115612532577f3031323334353637383961626364656600000000000000000000000000000000600f8616601081106124d4576124d3613cf1565b5b1a60f81b8282815181106124eb576124ea613cf1565b5b60200101907effffffffffffffffffffffffffffffffffffffffffffffffffffffffffffff1916908160001a905350600485901c94508061252b90614530565b9050612495565b5060008414612576576040517f08c379a000000000000000000000000000000000000000000000000000000000815260040161256d906145a5565b60405180910390fd5b8091505092915050565b600061258b82610c15565b905061259b816000846001611d63565b6125a482610c15565b90506004600083815260200190815260200160002060006101000a81549073ffffffffffffffffffffffffffffffffffffffff02191690556001600360008373ffffffffffffffffffffffffffffffffffffffff1673ffffffffffffffffffffffffffffffffffffffff168152602001908152602001600020600082825403925050819055506002600083815260200190815260200160002060006101000a81549073ffffffffffffffffffffffffffffffffffffffff021916905581600073ffffffffffffffffffffffffffffffffffffffff168273ffffffffffffffffffffffffffffffffffffffff167fddf252ad1be2c89b69c2b068fc378daa952ba7f163c4a11628f55a4df523b3ef60405160405180910390a46126ca816000846001611d7d565b5050565b6000808273ffffffffffffffffffffffffffffffffffffffff163b119050919050565b60606000600161270084612dca565b01905060008167ffffffffffffffff81111561271f5761271e61363a565b5b6040519080825280601f01601f1916602001820160405280156127515781602001600182028036833780820191505090505b509050600082602001820190505b6001156127b4578080600190039150507f3031323334353637383961626364656600000000000000000000000000000000600a86061a8153600a85816127a8576127a76145c5565b5b0494506000850361275f575b819350505050919050565b600073ffffffffffffffffffffffffffffffffffffffff168273ffffffffffffffffffffffffffffffffffffffff160361282e576040517f08c379a000000000000000000000000000000000000000000000000000000000815260040161282590614640565b60405180910390fd5b61283781611d22565b15612877576040517f08c379a000000000000000000000000000000000000000000000000000000000815260040161286e906146ac565b60405180910390fd5b612885600083836001611d63565b61288e81611d22565b156128ce576040517f08c379a00000000000000000000000000000000000000000000000000000000081526004016128c5906146ac565b60405180910390fd5b6001600360008473ffffffffffffffffffffffffffffffffffffffff1673ffffffffffffffffffffffffffffffffffffffff16815260200190815260200160002060008282540192505081905550816002600083815260200190815260200160002060006101000a81548173ffffffffffffffffffffffffffffffffffffffff021916908373ffffffffffffffffffffffffffffffffffffffff160217905550808273ffffffffffffffffffffffffffffffffffffffff16600073ffffffffffffffffffffffffffffffffffffffff167fddf252ad1be2c89b69c2b068fc378daa952ba7f163c4a11628f55a4df523b3ef60405160405180910390a46129d8600083836001611d7d565b5050565b60007f80ac58cd000000000000000000000000000000000000000000000000000000007bffffffffffffffffffffffffffffffffffffffffffffffffffffffff1916827bffffffffffffffffffffffffffffffffffffffffffffffffffffffff19161480612aa757507f5b5e139f000000000000000000000000000000000000000000000000000000007bffffffffffffffffffffffffffffffffffffffffffffffffffffffff1916827bffffffffffffffffffffffffffffffffffffffffffffffffffffffff1916145b80612ab75750612ab682612f1d565b5b9050919050565b50505050565b600b80549050600c600083815260200190815260200160002081905550600b81908060018154018082558091505060019003906000526020600020016000909190919091505550565b60006001612b1a84610c9b565b612b2491906146cc565b90506000600a6000848152602001908152602001600020549050818114612c09576000600960008673ffffffffffffffffffffffffffffffffffffffff1673ffffffffffffffffffffffffffffffffffffffff168152602001908152602001600020600084815260200190815260200160002054905080600960008773ffffffffffffffffffffffffffffffffffffffff1673ffffffffffffffffffffffffffffffffffffffff16815260200190815260200160002060008481526020019081526020016000208190555081600a600083815260200190815260200160002081905550505b600a600084815260200190815260200160002060009055600960008573ffffffffffffffffffffffffffffffffffffffff1673ffffffffffffffffffffffffffffffffffffffff16815260200190815260200160002060008381526020019081526020016000206000905550505050565b60006001600b80549050612c8e91906146cc565b90506000600c60008481526020019081526020016000205490506000600b8381548110612cbe57612cbd613cf1565b5b9060005260206000200154905080600b8381548110612ce057612cdf613cf1565b5b906000526020600020018190555081600c600083815260200190815260200160002081905550600c600085815260200190815260200160002060009055600b805480612d2f57612d2e614700565b5b6001900381819060005260206000200160009055905550505050565b6000612d5683610c9b565b905081600960008573ffffffffffffffffffffffffffffffffffffffff1673ffffffffffffffffffffffffffffffffffffffff16815260200190815260200160002060008381526020019081526020016000208190555080600a600084815260200190815260200160002081905550505050565b600080600090507a184f03e93ff9f4daa797ed6e38ed64bf6a1f0100000000000000008310612e28577a184f03e93ff9f4daa797ed6e38ed64bf6a1f0100000000000000008381612e1e57612e1d6145c5565b5b0492506040810190505b6d04ee2d6d415b85acef81000000008310612e65576d04ee2d6d415b85acef81000000008381612e5b57612e5a6145c5565b5b0492506020810190505b662386f26fc100008310612e9457662386f26fc100008381612e8a57612e896145c5565b5b0492506010810190505b6305f5e1008310612ebd576305f5e1008381612eb357612eb26145c5565b5b0492506008810190505b6127108310612ee2576127108381612ed857612ed76145c5565b5b0492506004810190505b60648310612f055760648381612efb57612efa6145c5565b5b0492506002810190505b600a8310612f14576001810190505b80915050919050565b60007f01ffc9a7000000000000000000000000000000000000000000000000000000007bffffffffffffffffffffffffffffffffffffffffffffffffffffffff1916827bffffffffffffffffffffffffffffffffffffffffffffffffffffffff1916149050919050565b828054612f9390613954565b90600052602060002090601f016020900481019282612fb55760008555612ffc565b82601f10612fce57805160ff1916838001178555612ffc565b82800160010185558215612ffc579182015b82811115612ffb578251825591602001919060010190612fe0565b5b509050613009919061304d565b5090565b50805461301990613954565b6000825580601f1061302b575061304a565b601f016020900490600052602060002090810190613049919061304d565b5b50565b5b8082111561306657600081600090555060010161304e565b5090565b6000604051905090565b600080fd5b600080fd5b60007fffffffff0000000000000000000000000000000000000000000000000000000082169050919050565b6130b38161307e565b81146130be57600080fd5b50565b6000813590506130d0816130aa565b92915050565b6000602082840312156130ec576130eb613074565b5b60006130fa848285016130c1565b91505092915050565b60008115159050919050565b61311881613103565b82525050565b6000602082019050613133600083018461310f565b92915050565b600081519050919050565b600082825260208201905092915050565b60005b83811015613173578082015181840152602081019050613158565b83811115613182576000848401525b50505050565b6000601f19601f8301169050919050565b60006131a482613139565b6131ae8185613144565b93506131be818560208601613155565b6131c781613188565b840191505092915050565b600060208201905081810360008301526131ec8184613199565b905092915050565b6000819050919050565b613207816131f4565b811461321257600080fd5b50565b600081359050613224816131fe565b92915050565b6000602082840312156132405761323f613074565b5b600061324e84828501613215565b91505092915050565b600073ffffffffffffffffffffffffffffffffffffffff82169050919050565b600061328282613257565b9050919050565b61329281613277565b82525050565b60006020820190506132ad6000830184613289565b92915050565b6132bc81613277565b81146132c757600080fd5b50565b6000813590506132d9816132b3565b92915050565b600080604083850312156132f6576132f5613074565b5b6000613304858286016132ca565b925050602061331585828601613215565b9150509250929050565b60006020828403121561333557613334613074565b5b6000613343848285016132ca565b91505092915050565b600081519050919050565b600082825260208201905092915050565b6000819050602082019050919050565b600082825260208201905092915050565b600061339482613139565b61339e8185613378565b93506133ae818560208601613155565b6133b781613188565b840191505092915050565b60006133ce8383613389565b905092915050565b6000602082019050919050565b60006133ee8261334c565b6133f88185613357565b93508360208202850161340a85613368565b8060005b85811015613446578484038952815161342785826133c2565b9450613432836133d6565b925060208a0199505060018101905061340e565b50829750879550505050505092915050565b6000602082019050818103600083015261347281846133e3565b905092915050565b613483816131f4565b82525050565b600060208201905061349e600083018461347a565b92915050565b6000806000606084860312156134bd576134bc613074565b5b60006134cb868287016132ca565b93505060206134dc868287016132ca565b92505060406134ed86828701613215565b9150509250925092565b6000819050919050565b61350a816134f7565b811461351557600080fd5b50565b60008135905061352781613501565b92915050565b60006020828403121561354357613542613074565b5b600061355184828501613518565b91505092915050565b613563816134f7565b82525050565b600060208201905061357e600083018461355a565b92915050565b6000806040838503121561359b5761359a613074565b5b60006135a985828601613518565b92505060206135ba858286016132ca565b9150509250929050565b6135cd81613103565b81146135d857600080fd5b50565b6000813590506135ea816135c4565b92915050565b6000806040838503121561360757613606613074565b5b6000613615858286016132ca565b9250506020613626858286016135db565b9150509250929050565b600080fd5b600080fd5b7f4e487b7100000000000000000000000000000000000000000000000000000000600052604160045260246000fd5b61367282613188565b810181811067ffffffffffffffff821117156136915761369061363a565b5b80604052505050565b60006136a461306a565b90506136b08282613669565b919050565b600067ffffffffffffffff8211156136d0576136cf61363a565b5b6136d982613188565b9050602081019050919050565b82818337600083830152505050565b6000613708613703846136b5565b61369a565b90508281526020810184848401111561372457613723613635565b5b61372f8482856136e6565b509392505050565b600082601f83011261374c5761374b613630565b5b813561375c8482602086016136f5565b91505092915050565b6000806000806080858703121561377f5761377e613074565b5b600061378d878288016132ca565b945050602061379e878288016132ca565b93505060406137af87828801613215565b925050606085013567ffffffffffffffff8111156137d0576137cf613079565b5b6137dc87828801613737565b91505092959194509250565b600067ffffffffffffffff8211156138035761380261363a565b5b61380c82613188565b9050602081019050919050565b600061382c613827846137e8565b61369a565b90508281526020810184848401111561384857613847613635565b5b6138538482856136e6565b509392505050565b600082601f8301126138705761386f613630565b5b8135613880848260208601613819565b91505092915050565b600080604083850312156138a05761389f613074565b5b60006138ae858286016132ca565b925050602083013567ffffffffffffffff8111156138cf576138ce613079565b5b6138db8582860161385b565b9150509250929050565b600080604083850312156138fc576138fb613074565b5b600061390a858286016132ca565b925050602061391b858286016132ca565b9150509250929050565b7f4e487b7100000000000000000000000000000000000000000000000000000000600052602260045260246000fd5b6000600282049050600182168061396c57607f821691505b60208210810361397f5761397e613925565b5b50919050565b7f4552433732313a20617070726f76616c20746f2063757272656e74206f776e6560008201527f7200000000000000000000000000000000000000000000000000000000000000602082015250565b60006139e1602183613144565b91506139ec82613985565b604082019050919050565b60006020820190508181036000830152613a10816139d4565b9050919050565b7f4552433732313a20617070726f76652063616c6c6572206973206e6f7420746f60008201527f6b656e206f776e6572206f7220617070726f76656420666f7220616c6c000000602082015250565b6000613a73603d83613144565b9150613a7e82613a17565b604082019050919050565b60006020820190508181036000830152613aa281613a66565b9050919050565b7f4552433732313a2063616c6c6572206973206e6f7420746f6b656e206f776e6560008201527f72206f7220617070726f76656400000000000000000000000000000000000000602082015250565b6000613b05602d83613144565b9150613b1082613aa9565b604082019050919050565b60006020820190508181036000830152613b3481613af8565b9050919050565b7f455243373231456e756d657261626c653a206f776e657220696e646578206f7560008201527f74206f6620626f756e6473000000000000000000000000000000000000000000602082015250565b6000613b97602b83613144565b9150613ba282613b3b565b604082019050919050565b60006020820190508181036000830152613bc681613b8a565b9050919050565b7f416363657373436f6e74726f6c3a2063616e206f6e6c792072656e6f756e636560008201527f20726f6c657320666f722073656c660000000000000000000000000000000000602082015250565b6000613c29602f83613144565b9150613c3482613bcd565b604082019050919050565b60006020820190508181036000830152613c5881613c1c565b9050919050565b7f455243373231456e756d657261626c653a20676c6f62616c20696e646578206f60008201527f7574206f6620626f756e64730000000000000000000000000000000000000000602082015250565b6000613cbb602c83613144565b9150613cc682613c5f565b604082019050919050565b60006020820190508181036000830152613cea81613cae565b9050919050565b7f4e487b7100000000000000000000000000000000000000000000000000000000600052603260045260246000fd5b7f4552433732313a20696e76616c696420746f6b656e2049440000000000000000600082015250565b6000613d56601883613144565b9150613d6182613d20565b602082019050919050565b60006020820190508181036000830152613d8581613d49565b9050919050565b7f4552433732313a2061646472657373207a65726f206973206e6f74206120766160008201527f6c6964206f776e65720000000000000000000000000000000000000000000000602082015250565b6000613de8602983613144565b9150613df382613d8c565b604082019050919050565b60006020820190508181036000830152613e1781613ddb565b9050919050565b7f4552433732313a207472616e736665722066726f6d20696e636f72726563742060008201527f6f776e6572000000000000000000000000000000000000000000000000000000602082015250565b6000613e7a602583613144565b9150613e8582613e1e565b604082019050919050565b60006020820190508181036000830152613ea981613e6d565b9050919050565b7f4552433732313a207472616e7366657220746f20746865207a65726f2061646460008201527f7265737300000000000000000000000000000000000000000000000000000000602082015250565b6000613f0c602483613144565b9150613f1782613eb0565b604082019050919050565b60006020820190508181036000830152613f3b81613eff565b9050919050565b7f4552433732313a20617070726f766520746f2063616c6c657200000000000000600082015250565b6000613f78601983613144565b9150613f8382613f42565b602082019050919050565b60006020820190508181036000830152613fa781613f6b565b9050919050565b7f4552433732313a207472616e7366657220746f206e6f6e20455243373231526560008201527f63656976657220696d706c656d656e7465720000000000000000000000000000602082015250565b600061400a603283613144565b915061401582613fae565b604082019050919050565b6000602082019050818103600083015261403981613ffd565b9050919050565b600081905092915050565b600061405682613139565b6140608185614040565b9350614070818560208601613155565b80840191505092915050565b6000614088828561404b565b9150614094828461404b565b91508190509392505050565b7f45524337323155524953746f726167653a2055524920736574206f66206e6f6e60008201527f6578697374656e7420746f6b656e000000000000000000000000000000000000602082015250565b60006140fc602e83613144565b9150614107826140a0565b604082019050919050565b6000602082019050818103600083015261412b816140ef565b9050919050565b7f416363657373436f6e74726f6c3a206163636f756e7420000000000000000000600082015250565b6000614168601783614040565b915061417382614132565b601782019050919050565b7f206973206d697373696e6720726f6c6520000000000000000000000000000000600082015250565b60006141b4601183614040565b91506141bf8261417e565b601182019050919050565b60006141d58261415b565b91506141e1828561404b565b91506141ec826141a7565b91506141f8828461404b565b91508190509392505050565b7f5061757361626c653a206e6f7420706175736564000000000000000000000000600082015250565b600061423a601483613144565b915061424582614204565b602082019050919050565b600060208201905081810360008301526142698161422d565b9050919050565b7f5061757361626c653a2070617573656400000000000000000000000000000000600082015250565b60006142a6601083613144565b91506142b182614270565b602082019050919050565b600060208201905081810360008301526142d581614299565b9050919050565b600081519050919050565b600082825260208201905092915050565b6000614303826142dc565b61430d81856142e7565b935061431d818560208601613155565b61432681613188565b840191505092915050565b60006080820190506143466000830187613289565b6143536020830186613289565b614360604083018561347a565b818103606083015261437281846142f8565b905095945050505050565b60008151905061438c816130aa565b92915050565b6000602082840312156143a8576143a7613074565b5b60006143b68482850161437d565b91505092915050565b7f455243373231456e756d657261626c653a20636f6e736563757469766520747260008201527f616e7366657273206e6f7420737570706f727465640000000000000000000000602082015250565b600061441b603583613144565b9150614426826143bf565b604082019050919050565b6000602082019050818103600083015261444a8161440e565b9050919050565b7f4e487b7100000000000000000000000000000000000000000000000000000000600052601160045260246000fd5b600061448b826131f4565b9150614496836131f4565b9250817fffffffffffffffffffffffffffffffffffffffffffffffffffffffffffffffff04831182151516156144cf576144ce614451565b5b828202905092915050565b60006144e5826131f4565b91506144f0836131f4565b9250827fffffffffffffffffffffffffffffffffffffffffffffffffffffffffffffffff0382111561452557614524614451565b5b828201905092915050565b600061453b826131f4565b91506000820361454e5761454d614451565b5b600182039050919050565b7f537472696e67733a20686578206c656e67746820696e73756666696369656e74600082015250565b600061458f602083613144565b915061459a82614559565b602082019050919050565b600060208201905081810360008301526145be81614582565b9050919050565b7f4e487b7100000000000000000000000000000000000000000000000000000000600052601260045260246000fd5b7f4552433732313a206d696e7420746f20746865207a65726f2061646472657373600082015250565b600061462a602083613144565b9150614635826145f4565b602082019050919050565b600060208201905081810360008301526146598161461d565b9050919050565b7f4552433732313a20746f6b656e20616c7265616479206d696e74656400000000600082015250565b6000614696601c83613144565b91506146a182614660565b602082019050919050565b600060208201905081810360008301526146c581614689565b9050919050565b60006146d7826131f4565b91506146e2836131f4565b9250828210156146f5576146f4614451565b5b828203905092915050565b7f4e487b7100000000000000000000000000000000000000000000000000000000600052603160045260246000fdfe68747470733a2f2f657468657265756d2e737461636b65786368616e67652e636f6d2f7175657374696f6e732f3133353634342f68616e646c652d6d756c7469706c652d746f6b656e7572692d696e2d6f6e652d6e66742d736d6172742d636f6e74726163742d746f2d646966666572656e742d6d696e742d66756e6374696f6e73a264697066735822122018073b4d84dcab3d422220c38a95eeb58d627e7b78559826f06454137085bed364736f6c634300080d0033",
  "immutableReferences": {},
  "source": "// SPDX-License-Identifier: MIT\npragma solidity ^0.8.9;\n\nimport \"../node_modules/@openzeppelin/contracts/token/ERC721/ERC721.sol\";\nimport \"../node_modules/@openzeppelin/contracts/token/ERC721/extensions/ERC721URIStorage.sol\";\nimport \"../node_modules/@openzeppelin/contracts/security/Pausable.sol\";\nimport \"../node_modules/@openzeppelin/contracts/access/AccessControl.sol\";\nimport \"../node_modules/@openzeppelin/contracts/token/ERC721/extensions/ERC721Burnable.sol\";\nimport \"../node_modules/@openzeppelin/contracts/utils/Counters.sol\";\nimport \"../node_modules/@openzeppelin/contracts/token/ERC721/extensions/ERC721Enumerable.sol\";\n\ncontract EpisodioTraumatico is ERC721, ERC721URIStorage, Pausable, AccessControl, \n    ERC721Burnable, ERC721Enumerable {\n    using Counters for Counters.Counter;\n\n    bytes32 public constant PAUSER_ROLE = keccak256(\"PAUSER_ROLE\");\n    bytes32 public constant MINTER_ROLE = keccak256(\"MINTER_ROLE\");\n    Counters.Counter private _tokenIdCounter;\n\n    mapping(address => string[]) private _ownerNFTURIs;\n\n    constructor() ERC721(\"Episodio Traumatico\", \"Trauma\") {\n        _grantRole(DEFAULT_ADMIN_ROLE, msg.sender);\n        _grantRole(PAUSER_ROLE, msg.sender);\n        _grantRole(MINTER_ROLE, msg.sender);\n    }\n\n    function _baseURI() internal pure override returns (string memory) {\n        return \"https://ethereum.stackexchange.com/questions/135644/handle-multiple-tokenuri-in-one-nft-smart-contract-to-different-mint-functions\";\n    }\n\n    function pause() public onlyRole(PAUSER_ROLE) {\n        _pause();\n    }\n\n    function unpause() public onlyRole(PAUSER_ROLE) {\n        _unpause();\n    }\n\n    function safeMint(address to, string memory uri) public onlyRole(MINTER_ROLE) {\n        uint256 tokenId = _tokenIdCounter.current();\n        _tokenIdCounter.increment();\n        _safeMint(to, tokenId);\n        _setTokenURI(tokenId, uri);\n        _ownerNFTURIs[to].push(uri);\n    }\n\n    function getOwnerNFTURIs(address owner) public view returns (string[] memory) {\n        return _ownerNFTURIs[owner];\n    }\n\n    function _beforeTokenTransfer(address from, address to, uint256 tokenId, uint256 batchSize)\n        internal\n        whenNotPaused\n        override(ERC721, ERC721Enumerable)\n    {\n        super._beforeTokenTransfer(from, to, tokenId, batchSize);\n    }\n\n    // The following functions are overrides required by Solidity.\n\n    function _burn(uint256 tokenId) internal override(ERC721, ERC721URIStorage) {\n        super._burn(tokenId);\n    }\n\n    function tokenURI(uint256 tokenId)\n        public\n        view\n        override(ERC721, ERC721URIStorage)\n        returns (string memory)\n    {\n        return super.tokenURI(tokenId);\n    }\n\n    function supportsInterface(bytes4 interfaceId)\n        public\n        view\n        override(ERC721, ERC721Enumerable, ERC721URIStorage, AccessControl)\n        returns (bool)\n    {\n        return super.supportsInterface(interfaceId);\n    }\n}",
  "sourcePath": "/home/victorcarvalho/Documents/Github/CPGoiasHackas/protected/blockchain/contracts/EpisodioTraumatico.sol",
  "compiler": {
    "name": "solc",
    "version": "0.8.13+commit.abaa5c0e.Emscripten.clang"
  },
  "schemaVersion": "3.4.14",
  "updatedAt": "2023-06-10T14:30:05.132Z",
  "networkType": "ethereum",
  "devdoc": {
    "kind": "dev",
    "methods": {
      "approve(address,uint256)": {
        "details": "See {IERC721-approve}."
      },
      "balanceOf(address)": {
        "details": "See {IERC721-balanceOf}."
      },
      "burn(uint256)": {
        "details": "Burns `tokenId`. See {ERC721-_burn}. Requirements: - The caller must own `tokenId` or be an approved operator."
      },
      "getApproved(uint256)": {
        "details": "See {IERC721-getApproved}."
      },
      "getRoleAdmin(bytes32)": {
        "details": "Returns the admin role that controls `role`. See {grantRole} and {revokeRole}. To change a role's admin, use {_setRoleAdmin}."
      },
      "grantRole(bytes32,address)": {
        "details": "Grants `role` to `account`. If `account` had not been already granted `role`, emits a {RoleGranted} event. Requirements: - the caller must have ``role``'s admin role. May emit a {RoleGranted} event."
      },
      "hasRole(bytes32,address)": {
        "details": "Returns `true` if `account` has been granted `role`."
      },
      "isApprovedForAll(address,address)": {
        "details": "See {IERC721-isApprovedForAll}."
      },
      "name()": {
        "details": "See {IERC721Metadata-name}."
      },
      "ownerOf(uint256)": {
        "details": "See {IERC721-ownerOf}."
      },
      "paused()": {
        "details": "Returns true if the contract is paused, and false otherwise."
      },
      "renounceRole(bytes32,address)": {
        "details": "Revokes `role` from the calling account. Roles are often managed via {grantRole} and {revokeRole}: this function's purpose is to provide a mechanism for accounts to lose their privileges if they are compromised (such as when a trusted device is misplaced). If the calling account had been revoked `role`, emits a {RoleRevoked} event. Requirements: - the caller must be `account`. May emit a {RoleRevoked} event."
      },
      "revokeRole(bytes32,address)": {
        "details": "Revokes `role` from `account`. If `account` had been granted `role`, emits a {RoleRevoked} event. Requirements: - the caller must have ``role``'s admin role. May emit a {RoleRevoked} event."
      },
      "safeTransferFrom(address,address,uint256)": {
        "details": "See {IERC721-safeTransferFrom}."
      },
      "safeTransferFrom(address,address,uint256,bytes)": {
        "details": "See {IERC721-safeTransferFrom}."
      },
      "setApprovalForAll(address,bool)": {
        "details": "See {IERC721-setApprovalForAll}."
      },
      "symbol()": {
        "details": "See {IERC721Metadata-symbol}."
      },
      "tokenByIndex(uint256)": {
        "details": "See {IERC721Enumerable-tokenByIndex}."
      },
      "tokenOfOwnerByIndex(address,uint256)": {
        "details": "See {IERC721Enumerable-tokenOfOwnerByIndex}."
      },
      "totalSupply()": {
        "details": "See {IERC721Enumerable-totalSupply}."
      },
      "transferFrom(address,address,uint256)": {
        "details": "See {IERC721-transferFrom}."
      }
    },
    "version": 1
  },
  "userdoc": {
    "kind": "user",
    "methods": {},
    "version": 1
  }
}